{"abi":[{"type":"constructor","inputs":[],"stateMutability":"nonpayable"},{"type":"function","name":"eip712Domain","inputs":[],"outputs":[{"name":"fields","type":"bytes1","internalType":"bytes1"},{"name":"name","type":"string","internalType":"string"},{"name":"version","type":"string","internalType":"string"},{"name":"chainId","type":"uint256","internalType":"uint256"},{"name":"verifyingContract","type":"address","internalType":"address"},{"name":"salt","type":"bytes32","internalType":"bytes32"},{"name":"extensions","type":"uint256[]","internalType":"uint256[]"}],"stateMutability":"view"},{"type":"function","name":"hashTypedDataV4","inputs":[{"name":"structHash","type":"bytes32","internalType":"bytes32"}],"outputs":[{"name":"","type":"bytes32","internalType":"bytes32"}],"stateMutability":"view"},{"type":"event","name":"EIP712DomainChanged","inputs":[],"anonymous":false},{"type":"error","name":"InvalidShortString","inputs":[]},{"type":"error","name":"PermissionInvalid_Disabled","inputs":[]},{"type":"error","name":"PermissionInvalid_Expired","inputs":[]},{"type":"error","name":"PermissionInvalid_IssuerSignature","inputs":[]},{"type":"error","name":"PermissionInvalid_RecipientSignature","inputs":[]},{"type":"error","name":"StringTooLong","inputs":[{"name":"str","type":"string","internalType":"string"}]}],"bytecode":{"object":"0x6101606040523461012157604051610018604082610125565b600381526020810190621050d360ea1b825260405191610039604084610125565b600183526020830191603160f81b83526100528161015c565b6101205261005f846102f2565b61014052519020918260e05251902080610100524660a0526040519060208201927f8b73c3c69bb8fe3d512ecc4cf759cc79239f7b179b0ffacaa9a75d522b39400f8452604083015260608201524660808201523060a082015260a081526100c860c082610125565b5190206080523060c05260405161050c908161042b8239608051816101fd015260a051816102ba015260c051816101c7015260e0518161024c015261010051816102720152610120518160470152610140518160700152f35b5f80fd5b601f909101601f19168101906001600160401b0382119082101761014857604052565b634e487b7160e01b5f52604160045260245ffd5b908151602081105f146101d6575090601f815111610196576020815191015160208210610187571790565b5f198260200360031b1b161790565b604460209160405192839163305a27a960e01b83528160048401528051918291826024860152018484015e5f828201840152601f01601f19168101030190fd5b6001600160401b038111610148575f54600181811c911680156102e8575b60208210146102d457601f81116102a2575b50602092601f821160011461024357928192935f92610238575b50508160011b915f199060031b1c1916175f5560ff90565b015190505f80610220565b601f198216935f8052805f20915f5b86811061028a5750836001959610610272575b505050811b015f5560ff90565b01515f1960f88460031b161c191690555f8080610265565b91926020600181928685015181550194019201610252565b5f8052601f60205f20910160051c810190601f830160051c015b8181106102c95750610206565b5f81556001016102bc565b634e487b7160e01b5f52602260045260245ffd5b90607f16906101f4565b908151602081105f1461031d575090601f815111610196576020815191015160208210610187571790565b6001600160401b03811161014857600154600181811c91168015610420575b60208210146102d457601f81116103ed575b50602092601f821160011461038c57928192935f92610381575b50508160011b915f199060031b1c19161760015560ff90565b015190505f80610368565b601f1982169360015f52805f20915f5b8681106103d557508360019596106103bd575b505050811b0160015560ff90565b01515f1960f88460031b161c191690555f80806103af565b9192602060018192868501518155019401920161039c565b60015f52601f60205f20910160051c810190601f830160051c015b818110610415575061034e565b5f8155600101610408565b90607f169061033c56fe60806040526004361015610011575f80fd5b5f3560e01c80634980f2881461012b576384b0196e1461002f575f80fd5b34610127575f366003190112610127576100cb61006b7f00000000000000000000000000000000000000000000000000000000000000006102e0565b6100947f0000000000000000000000000000000000000000000000000000000000000000610406565b60206100d9604051926100a7838561018e565b5f84525f368137604051958695600f60f81b875260e08588015260e087019061016a565b90858203604087015261016a565b4660608501523060808501525f60a085015283810360c08501528180845192838152019301915f5b82811061011057505050500390f35b835185528695509381019392810192600101610101565b5f80fd5b3461012757602036600319011261012757602060426101486101c4565b6040519061190160f01b82526002820152600435602282015220604051908152f35b805180835260209291819084018484015e5f828201840152601f01601f1916010190565b90601f8019910116810190811067ffffffffffffffff8211176101b057604052565b634e487b7160e01b5f52604160045260245ffd5b307f00000000000000000000000000000000000000000000000000000000000000006001600160a01b031614806102b7575b1561021f577f000000000000000000000000000000000000000000000000000000000000000090565b60405160208101907f8b73c3c69bb8fe3d512ecc4cf759cc79239f7b179b0ffacaa9a75d522b39400f82527f000000000000000000000000000000000000000000000000000000000000000060408201527f000000000000000000000000000000000000000000000000000000000000000060608201524660808201523060a082015260a081526102b160c08261018e565b51902090565b507f000000000000000000000000000000000000000000000000000000000000000046146101f6565b60ff81146103265760ff811690601f8211610317576040519161030460408461018e565b6020808452838101919036833783525290565b632cd44ac360e21b5f5260045ffd5b506040515f80548060011c91600182169182156103fc575b6020841083146103e85783855284929081156103c9575060011461036c575b6103699250038261018e565b90565b505f80805290917f290decd9548b62a8d60345a988386fc84ba6bc95484008f6362f93160ef3e5635b8183106103ad5750509060206103699282010161035d565b6020919350806001915483858801015201910190918392610395565b6020925061036994915060ff191682840152151560051b82010161035d565b634e487b7160e01b5f52602260045260245ffd5b92607f169261033e565b60ff811461042a5760ff811690601f8211610317576040519161030460408461018e565b506040515f6001548060011c91600182169182156104cc575b6020841083146103e85783855284929081156103c9575060011461046d576103699250038261018e565b5060015f90815290917fb10e2d527612073b26eecdfd717e6a320cf44b4afac2b0732d9fcbe2b7fa0cf65b8183106104b05750509060206103699282010161035d565b6020919350806001915483858801015201910190918392610498565b92607f169261044356fea2646970667358221220676e9b8700251266aa76261e22333e32360bde423fd0ec6053d2b53122be9f1164736f6c634300081a0033","linkReferences":{}},"methodIdentifiers":{"eip712Domain()":"84b0196e","hashTypedDataV4(bytes32)":"4980f288"},"storageLayout":{"storage":[{"astId":29027,"contract":"node_modules/@fhenixprotocol/cofhe-mock-contracts/Permissioned.sol:MockPermissioned","label":"_nameFallback","offset":0,"slot":"0","type":"t_string_storage"},{"astId":29029,"contract":"node_modules/@fhenixprotocol/cofhe-mock-contracts/Permissioned.sol:MockPermissioned","label":"_versionFallback","offset":0,"slot":"1","type":"t_string_storage"}],"types":{"t_string_storage":{"encoding":"bytes","label":"string","numberOfBytes":"32"}}},"id":9}