{"abi":[{"type":"constructor","inputs":[{"name":"initialOwner","type":"address","internalType":"address"}],"stateMutability":"nonpayable"},{"type":"function","name":"TASK_MANAGER_ADDRESS_","inputs":[],"outputs":[{"name":"","type":"address","internalType":"address"}],"stateMutability":"view"},{"type":"function","name":"acceptOwnership","inputs":[],"outputs":[],"stateMutability":"nonpayable"},{"type":"function","name":"allow","inputs":[{"name":"handle","type":"uint256","internalType":"uint256"},{"name":"account","type":"address","internalType":"address"},{"name":"requester","type":"address","internalType":"address"}],"outputs":[],"stateMutability":"nonpayable"},{"type":"function","name":"allowForDecryption","inputs":[{"name":"handlesList","type":"uint256[]","internalType":"uint256[]"},{"name":"requester","type":"address","internalType":"address"}],"outputs":[],"stateMutability":"nonpayable"},{"type":"function","name":"allowGlobal","inputs":[{"name":"handle","type":"uint256","internalType":"uint256"},{"name":"requester","type":"address","internalType":"address"}],"outputs":[],"stateMutability":"nonpayable"},{"type":"function","name":"allowTransient","inputs":[{"name":"handle","type":"uint256","internalType":"uint256"},{"name":"account","type":"address","internalType":"address"},{"name":"requester","type":"address","internalType":"address"}],"outputs":[],"stateMutability":"nonpayable"},{"type":"function","name":"allowedOnBehalf","inputs":[{"name":"delegatee","type":"address","internalType":"address"},{"name":"handle","type":"uint256","internalType":"uint256"},{"name":"contractAddress","type":"address","internalType":"address"},{"name":"account","type":"address","internalType":"address"}],"outputs":[{"name":"","type":"bool","internalType":"bool"}],"stateMutability":"view"},{"type":"function","name":"allowedTransient","inputs":[{"name":"handle","type":"uint256","internalType":"uint256"},{"name":"account","type":"address","internalType":"address"}],"outputs":[{"name":"","type":"bool","internalType":"bool"}],"stateMutability":"view"},{"type":"function","name":"cleanTransientStorage","inputs":[],"outputs":[],"stateMutability":"nonpayable"},{"type":"function","name":"delegateAccount","inputs":[{"name":"delegatee","type":"address","internalType":"address"},{"name":"delegateeContract","type":"address","internalType":"address"}],"outputs":[],"stateMutability":"nonpayable"},{"type":"function","name":"eip712Domain","inputs":[],"outputs":[{"name":"fields","type":"bytes1","internalType":"bytes1"},{"name":"name","type":"string","internalType":"string"},{"name":"version","type":"string","internalType":"string"},{"name":"chainId","type":"uint256","internalType":"uint256"},{"name":"verifyingContract","type":"address","internalType":"address"},{"name":"salt","type":"bytes32","internalType":"bytes32"},{"name":"extensions","type":"uint256[]","internalType":"uint256[]"}],"stateMutability":"view"},{"type":"function","name":"exists","inputs":[],"outputs":[{"name":"","type":"bool","internalType":"bool"}],"stateMutability":"pure"},{"type":"function","name":"getTaskManagerAddress","inputs":[],"outputs":[{"name":"","type":"address","internalType":"address"}],"stateMutability":"view"},{"type":"function","name":"getVersion","inputs":[],"outputs":[{"name":"","type":"string","internalType":"string"}],"stateMutability":"pure"},{"type":"function","name":"globalAllowed","inputs":[{"name":"handle","type":"uint256","internalType":"uint256"}],"outputs":[{"name":"","type":"bool","internalType":"bool"}],"stateMutability":"view"},{"type":"function","name":"hashTypedDataV4","inputs":[{"name":"structHash","type":"bytes32","internalType":"bytes32"}],"outputs":[{"name":"","type":"bytes32","internalType":"bytes32"}],"stateMutability":"view"},{"type":"function","name":"isAllowed","inputs":[{"name":"handle","type":"uint256","internalType":"uint256"},{"name":"account","type":"address","internalType":"address"}],"outputs":[{"name":"","type":"bool","internalType":"bool"}],"stateMutability":"view"},{"type":"function","name":"isAllowedForDecryption","inputs":[{"name":"handle","type":"uint256","internalType":"uint256"}],"outputs":[{"name":"","type":"bool","internalType":"bool"}],"stateMutability":"view"},{"type":"function","name":"isAllowedWithPermission","inputs":[{"name":"permission","type":"tuple","internalType":"struct Permission","components":[{"name":"issuer","type":"address","internalType":"address"},{"name":"expiration","type":"uint64","internalType":"uint64"},{"name":"recipient","type":"address","internalType":"address"},{"name":"validatorId","type":"uint256","internalType":"uint256"},{"name":"validatorContract","type":"address","internalType":"address"},{"name":"sealingKey","type":"bytes32","internalType":"bytes32"},{"name":"issuerSignature","type":"bytes","internalType":"bytes"},{"name":"recipientSignature","type":"bytes","internalType":"bytes"}]},{"name":"handle","type":"uint256","internalType":"uint256"}],"outputs":[{"name":"","type":"bool","internalType":"bool"}],"stateMutability":"view"},{"type":"function","name":"owner","inputs":[],"outputs":[{"name":"","type":"address","internalType":"address"}],"stateMutability":"view"},{"type":"function","name":"pendingOwner","inputs":[],"outputs":[{"name":"","type":"address","internalType":"address"}],"stateMutability":"view"},{"type":"function","name":"persistAllowed","inputs":[{"name":"handle","type":"uint256","internalType":"uint256"},{"name":"account","type":"address","internalType":"address"}],"outputs":[{"name":"","type":"bool","internalType":"bool"}],"stateMutability":"view"},{"type":"function","name":"renounceOwnership","inputs":[],"outputs":[],"stateMutability":"nonpayable"},{"type":"function","name":"transferOwnership","inputs":[{"name":"newOwner","type":"address","internalType":"address"}],"outputs":[],"stateMutability":"nonpayable"},{"type":"event","name":"AllowedForDecryption","inputs":[{"name":"handlesList","type":"uint256[]","indexed":false,"internalType":"uint256[]"}],"anonymous":false},{"type":"event","name":"EIP712DomainChanged","inputs":[],"anonymous":false},{"type":"event","name":"NewDelegation","inputs":[{"name":"sender","type":"address","indexed":true,"internalType":"address"},{"name":"delegatee","type":"address","indexed":true,"internalType":"address"},{"name":"contractAddress","type":"address","indexed":true,"internalType":"address"}],"anonymous":false},{"type":"event","name":"OwnershipTransferStarted","inputs":[{"name":"previousOwner","type":"address","indexed":true,"internalType":"address"},{"name":"newOwner","type":"address","indexed":true,"internalType":"address"}],"anonymous":false},{"type":"event","name":"OwnershipTransferred","inputs":[{"name":"previousOwner","type":"address","indexed":true,"internalType":"address"},{"name":"newOwner","type":"address","indexed":true,"internalType":"address"}],"anonymous":false},{"type":"error","name":"AlreadyDelegated","inputs":[]},{"type":"error","name":"DirectAllowForbidden","inputs":[{"name":"sender","type":"address","internalType":"address"}]},{"type":"error","name":"InvalidShortString","inputs":[]},{"type":"error","name":"OwnableInvalidOwner","inputs":[{"name":"owner","type":"address","internalType":"address"}]},{"type":"error","name":"OwnableUnauthorizedAccount","inputs":[{"name":"account","type":"address","internalType":"address"}]},{"type":"error","name":"PermissionInvalid_Disabled","inputs":[]},{"type":"error","name":"PermissionInvalid_Expired","inputs":[]},{"type":"error","name":"PermissionInvalid_IssuerSignature","inputs":[]},{"type":"error","name":"PermissionInvalid_RecipientSignature","inputs":[]},{"type":"error","name":"SenderCannotBeDelegateeAddress","inputs":[]},{"type":"error","name":"SenderNotAllowed","inputs":[{"name":"sender","type":"address","internalType":"address"}]},{"type":"error","name":"StringTooLong","inputs":[{"name":"str","type":"string","internalType":"string"}]}],"bytecode":{"object":"0x61016080604052346101bc57602081611ca0803803809161002082856101c0565b8339810103126101bc57516001600160a01b038116908190036101bc576040519061004c6040836101c0565b6003825260208201621050d360ea1b81526040519261006c6040856101c0565b600184526020840192603160f81b845280156101a957600180546001600160a01b03199081169091555f8054918216831781556001600160a01b03909116907f8be0079c531659141344cd1fd0a4f28419497f9722a3daafe3b4186f6b6457e09080a36100d8816101f7565b610120526100e584610392565b61014052519020918260e05251902080610100524660a0526040519060208201927f8b73c3c69bb8fe3d512ecc4cf759cc79239f7b179b0ffacaa9a75d522b39400f8452604083015260608201524660808201523060a082015260a0815261014e60c0826101c0565b5190206080523060c0526040516117d590816104cb82396080518161140d015260a051816114c4015260c051816113d7015260e0518161145c0152610100518161148201526101205181610781015261014051816107ad0152f35b631e4fbdf760e01b5f525f60045260245ffd5b5f80fd5b601f909101601f19168101906001600160401b038211908210176101e357604052565b634e487b7160e01b5f52604160045260245ffd5b908151602081105f14610271575090601f815111610231576020815191015160208210610222571790565b5f198260200360031b1b161790565b604460209160405192839163305a27a960e01b83528160048401528051918291826024860152018484015e5f828201840152601f01601f19168101030190fd5b6001600160401b0381116101e357600254600181811c91168015610388575b602082101461037457601f8111610341575b50602092601f82116001146102e057928192935f926102d5575b50508160011b915f199060031b1c19161760025560ff90565b015190505f806102bc565b601f1982169360025f52805f20915f5b8681106103295750836001959610610311575b505050811b0160025560ff90565b01515f1960f88460031b161c191690555f8080610303565b919260206001819286850151815501940192016102f0565b60025f52601f60205f20910160051c810190601f830160051c015b81811061036957506102a2565b5f815560010161035c565b634e487b7160e01b5f52602260045260245ffd5b90607f1690610290565b908151602081105f146103bd575090601f815111610231576020815191015160208210610222571790565b6001600160401b0381116101e357600354600181811c911680156104c0575b602082101461037457601f811161048d575b50602092601f821160011461042c57928192935f92610421575b50508160011b915f199060031b1c19161760035560ff90565b015190505f80610408565b601f1982169360035f52805f20915f5b868110610475575083600195961061045d575b505050811b0160035560ff90565b01515f1960f88460031b161c191690555f808061044f565b9192602060018192868501518155019401920161043c565b60035f52601f60205f20910160051c810190601f830160051c015b8181106104b557506103ee565b5f81556001016104a8565b90607f16906103dc56fe60806040526004361015610011575f80fd5b5f3560e01c80630d8e6e2c14610dae578063267c4ae414610d9357806335334c2314610d4457806337e6b44f14610d1e5780633c3839ba14610bab578063484de82214610af75780634980f28814610ace57806351b8fd2014610a425780635faa299a14610aa85780636330a70914610a7057806365ce8df714610a42578063715018a6146109df57806379a3a7fb1461096c57806379ba5097146108e75780637a9a598e146108c1578063846cd4331461083a57806384b0196e146107695780638da5cb5b1461074257806394d9184c1461070d578063a8b70100146105f3578063ae79f04a146102ba578063ccd9a7cd146101bf578063e30c3978146101975763f2fde38b14610121575f80fd5b346101935760203660031901126101935761013a610f18565b610142611194565b60018060a01b0316806bffffffffffffffffffffffff60a01b600154161760015560018060a01b035f54167f38d16b8cac22d99fc7c124b9cd0de2d3fa1faef420bfe791d8c362d765e227005f80a3005b5f80fd5b34610193575f366003190112610193576001546040516001600160a01b039091168152602090f35b34610193576080366003190112610193576101d8610f18565b60443590602435906001600160a01b0383168303610193576064356001600160a01b03811681036101935761020b611150565b9060018201845f528060205260405f2060018060a01b0383165f5260205260ff60405f205416948561028f575b50508361024d575b6020846040519015158152f35b6001600160a01b039081165f908152600392909201602090815260408084209483168452938152838320959091168252938452205460ff169050828080610240565b5f908152602091825260408082206001600160a01b0389168352909252205460ff1693508580610238565b346101935760403660031901126101935760043567ffffffffffffffff81116101935761010060031982360301126101935760405190610100820182811067ffffffffffffffff8211176105df5760405261031781600401610f2e565b825260248101359067ffffffffffffffff82168203610193576020830191825261034360448201610f2e565b6040840190815260608401916064810135835261036260848201610f2e565b936080860194855260a086019260a4830135845260c483013567ffffffffffffffff81116101935761039a9060043691860101610fed565b9260c0880193845260e481013567ffffffffffffffff81116101935767ffffffffffffffff9160046103cf9236920101610fed565b9260e08901938452511642116105d0578651610427906001600160a01b031661041f6103fa8a6111a7565b6104026113d4565b6042916040519161190160f01b8352600283015260228201522090565b8551916112e0565b156105c157516001600160a01b0316801515939092908461054b575b5050505061053c57518015159182610528575b82610494575b5050610485575160209061047b906001600160a01b0316602435611061565b6040519015158152f35b6365e9d4b360e11b5f5260045ffd5b5183516040516316c6723d60e31b81526001600160a01b039182166004820152602481019390935291925060209183916044918391165afa90811561051d575f916104e2575b50828061045c565b90506020813d602011610515575b816104fd60209383610f42565b810103126101935751801515810361019357826104da565b3d91506104f0565b6040513d5f823e3d90fd5b80516001600160a01b031615159250610456565b638e143bf760e01b5f5260045ffd5b6105b79450906105af91519051602081519101206040519060208201927f82af07a6c9eb6bb31a0c86f7f5cad0039589750ad5b4b925ed5741f7ad4e8d4b845260408301526060820152606081526105a4608082610f42565b5190206104026113d4565b9051916112e0565b1584808080610443565b634c40eccb60e01b5f5260045ffd5b63ed0764a160e01b5f5260045ffd5b634e487b7160e01b5f52604160045260245ffd5b346101935760403660031901126101935761060c610f18565b610614610f02565b73ea30c4b8b44078bbf8a6ef5b9f1ec1626c7848d933036106fa576001600160a01b0316903382146106eb57600361064a611150565b335f9081529101602081815260408084206001600160a01b038616855282528084208685529091529091205460ff166106dc57335f818152602092835260408082206001600160a01b0395909516808352948452808220868352909352918220805460ff19166001179055907ff03b7c0d4879b0bcbbf440794871f139c96fd13a145a8172b33b9cab5fa2830a9080a4005b631a30c08d60e31b5f5260045ffd5b6330dc920360e01b5f5260045ffd5b633809a24360e01b5f523360045260245ffd5b3461019357602036600319011261019357610726611150565b6004355f52602052602060ff60405f2054166040519015158152f35b34610193575f366003190112610193575f546040516001600160a01b039091168152602090f35b34610193575f366003190112610193576108086107a57f00000000000000000000000000000000000000000000000000000000000000006114ea565b6108366107d17f0000000000000000000000000000000000000000000000000000000000000000611613565b610816604051916107e3602084610f42565b5f83525f368137604051958695600f60f81b875260e0602088015260e0870190610ede565b908582036040870152610ede565b904660608501523060808501525f60a085015283820360c0850152610f9e565b0390f35b3461019357604036600319011261019357600435610856610f02565b73ea30c4b8b44078bbf8a6ef5b9f1ec1626c7848d933036106fa5761087b8183611061565b156108a15750610889611150565b5f91825260205260409020805460ff19166001179055005b6368692cbb60e11b5f9081526001600160a01b0391909116600452602490fd5b3461019357604036600319011261019357602061047b6108df610f02565b6004356110ac565b34610193575f36600319011261019357600154336001600160a01b039091160361095957600180546001600160a01b03199081169091555f805433928116831782556001600160a01b0316907f8be0079c531659141344cd1fd0a4f28419497f9722a3daafe3b4186f6b6457e09080a3005b63118cdaa760e01b5f523360045260245ffd5b346101935761097a36610f64565b73ea30c4b8b44078bbf8a6ef5b9f1ec1626c7848d992919233036106fa576109a28183611061565b156108a1575060016109b2611150565b5f92835201602090815260408083206001600160a01b03909416835292905220805460ff19166001179055005b34610193575f366003190112610193576109f7611194565b600180546001600160a01b03199081169091555f80549182168155906001600160a01b03167f8be0079c531659141344cd1fd0a4f28419497f9722a3daafe3b4186f6b6457e08280a3005b34610193575f36600319011261019357602060405173ea30c4b8b44078bbf8a6ef5b9f1ec1626c7848d98152f35b34610193576020366003190112610193576002610a8b611150565b016004355f52602052602060ff60405f2054166040519015158152f35b3461019357604036600319011261019357602061047b610ac6610f02565b600435611061565b34610193576020366003190112610193576020610aef6004356104026113d4565b604051908152f35b3461019357610b0536610f64565b73ea30c4b8b44078bbf8a6ef5b9f1ec1626c7848d933036106fa57610b2a8184611061565b1580610b84575b6108a15750604080516020810193845260609290921b6bffffffffffffffffffffffff191690820152610b7181605481015b03601f198101835282610f42565b5190206001815d60015f5c0190815d5f5d005b506001600160a01b03811673ea30c4b8b44078bbf8a6ef5b9f1ec1626c7848d91415610b31565b346101935760403660031901126101935760043567ffffffffffffffff811161019357366023820112156101935780600401359067ffffffffffffffff82116105df578160051b6020810192610c046040519485610f42565b8352602460208401918301019136831161019357602401905b828210610d0e5783610c2d610f02565b73ea30c4b8b44078bbf8a6ef5b9f1ec1626c7848d933036106fa578151610c52611150565b6002015f5b828110610c9c577f2fd616621b8415a2efb27b224024340ac767797553ce6fdf4c1adefd160504c6610c9786604051918291602083526020830190610f9e565b0390a1005b8451811015610cfa5760208160051b86010151610cb98582611061565b15610cdc57906001915f528260205260405f208260ff1982541617905501610c57565b6368692cbb60e11b5f9081526001600160a01b038616600452602490fd5b634e487b7160e01b5f52603260045260245ffd5b8135815260209182019101610c1d565b3461019357604036600319011261019357602061047b610d3c610f02565b600435611033565b34610193575f3660031901126101935773ea30c4b8b44078bbf8a6ef5b9f1ec1626c7848d933036106fa5760015f5c5f805d0160015b818110610d8357005b805f6001925c81835d5d01610d7a565b34610193575f36600319011261019357602060405160018152f35b34610193575f366003190112610193576040805190610dcd8183610f42565b600382526020820190621050d360ea1b8252610de76110e5565b6001610df281610fd1565b90610dff84519283610f42565b808252601f19610e0e82610fd1565b01366020840137600a602183015b5f1901916f181899199a1a9b1b9c1cb0b131b232b360811b8282061a835304908115610e4a57600a90610e1c565b50506108369460016020610ed09460028284968180610e676110e5565b958c519d8e9a518091848d015e8a019061103b60f11b83830152805192839101602283015e010190601760f91b84830152805192839101600383015e010190601760f91b84830152805192839101600283015e01015f838201520301601f198101845283610f42565b519182916020835260208301905b805180835260209291819084018484015e5f828201840152601f01601f1916010190565b602435906001600160a01b038216820361019357565b600435906001600160a01b038216820361019357565b35906001600160a01b038216820361019357565b90601f8019910116810190811067ffffffffffffffff8211176105df57604052565b606090600319011261019357600435906024356001600160a01b038116810361019357906044356001600160a01b03811681036101935790565b90602080835192838152019201905f5b818110610fbb5750505090565b8251845260209384019390920191600101610fae565b67ffffffffffffffff81116105df57601f01601f191660200190565b81601f820112156101935780359061100482610fd1565b926110126040519485610f42565b8284526020838301011161019357815f926020809301838601378301015290565b600161103d611150565b01905f5260205260405f209060018060a01b03165f5260205260ff60405f20541690565b61106b82826110ac565b918215611099575b50811561107e575090565b9050611088611150565b905f5260205260ff60405f20541690565b816110a5929350611033565b905f611073565b604080516020810192835260609390931b6bffffffffffffffffffffffff191690830152906110de8160548101610b63565b5190205c90565b5f6110f06001610fd1565b906110fe6040519283610f42565b60018252601f1961110f6001610fd1565b01366020840137600a602183015b5f1901916f181899199a1a9b1b9c1cb0b131b232b360811b8282061a835304801561114b57600a909161111d565b505090565b604051602081017fc4eb438ffad04c606bb4f9c3576c0f142d5dc3782731029ea1ab95b648322010815260208252611189604083610f42565b9051902060ff191690565b5f546001600160a01b0316330361095957565b6040810180516001600160a01b03168015611251575060018060a01b038251169167ffffffffffffffff6020820151169160018060a01b0390511690606081015190608060018060a01b0391015116916040519360208501957f8549e986c64faf9b741179c61561f9d39f337cf9739f86178d84dabc6ca4cad5875260408601526060850152608084015260a083015260c082015260c0815261124b60e082610f42565b51902090565b91905060018060a01b038151169167ffffffffffffffff60208301511691606081015160a0600180821b03608084015116920151926040519460208601967f0ce0d938c38f948b8f9cf16098cd15ec62de132c8d422719ad270c5e2a101102885260408701526060860152608085015260a084015260c083015260e082015260e0815261124b61010082610f42565b9190823b61132f57906112f2916116e3565b50600481101561131b5715918261130857505090565b6001600160a01b03918216911614919050565b634e487b7160e01b5f52602160045260245ffd5b915f92610b6361136585946040519283916020830195630b135d3f60e11b87526024840152604060448401526064830190610ede565b51915afa3d156113cd573d61137981610fd1565b906113876040519283610f42565b81523d5f602083013e5b816113bf575b816113a0575090565b90506020818051810103126101935760200151630b135d3f60e11b1490565b905060208151101590611397565b6060611391565b307f00000000000000000000000000000000000000000000000000000000000000006001600160a01b031614806114c1575b1561142f577f000000000000000000000000000000000000000000000000000000000000000090565b60405160208101907f8b73c3c69bb8fe3d512ecc4cf759cc79239f7b179b0ffacaa9a75d522b39400f82527f000000000000000000000000000000000000000000000000000000000000000060408201527f000000000000000000000000000000000000000000000000000000000000000060608201524660808201523060a082015260a0815261124b60c082610f42565b507f00000000000000000000000000000000000000000000000000000000000000004614611406565b60ff81146115305760ff811690601f8211611521576040519161150e604084610f42565b6020808452838101919036833783525290565b632cd44ac360e21b5f5260045ffd5b506040515f6002548060011c9160018216918215611609575b6020841083146115f55783855284929081156115d65750600114611577575b61157492500382610f42565b90565b5060025f90815290917f405787fa12a823e0f2b7631cc41b3ba8828b3321ca811111fa75cd3aa3bb5ace5b8183106115ba57505090602061157492820101611568565b60209193508060019154838588010152019101909183926115a2565b6020925061157494915060ff191682840152151560051b820101611568565b634e487b7160e01b5f52602260045260245ffd5b92607f1692611549565b60ff81146116375760ff811690601f8211611521576040519161150e604084610f42565b506040515f6003548060011c91600182169182156116d9575b6020841083146115f55783855284929081156115d6575060011461167a5761157492500382610f42565b5060035f90815290917fc2575a0e9e593c00f959f8c92f12db2869c3395a3b0502d05e2516446f71f85b5b8183106116bd57505090602061157492820101611568565b60209193508060019154838588010152019101909183926116a5565b92607f1692611650565b81519190604183036117135761170c9250602082015190606060408401519301515f1a9061171d565b9192909190565b50505f9160029190565b91907f7fffffffffffffffffffffffffffffff5d576e7357a4501ddfe92f46681b20a08411611794579160209360809260ff5f9560405194855216868401526040830152606082015282805260015afa1561051d575f516001600160a01b0381161561178a57905f905f90565b505f906001905f90565b5050505f916003919056fea264697066735822122051a1927caae3c8b8f31a5b73a2174308f367ae3d76402f6e7a418e01f065b97764736f6c634300081a0033","linkReferences":{}},"methodIdentifiers":{"TASK_MANAGER_ADDRESS_()":"51b8fd20","acceptOwnership()":"79ba5097","allow(uint256,address,address)":"79a3a7fb","allowForDecryption(uint256[],address)":"3c3839ba","allowGlobal(uint256,address)":"846cd433","allowTransient(uint256,address,address)":"484de822","allowedOnBehalf(address,uint256,address,address)":"ccd9a7cd","allowedTransient(uint256,address)":"7a9a598e","cleanTransientStorage()":"35334c23","delegateAccount(address,address)":"a8b70100","eip712Domain()":"84b0196e","exists()":"267c4ae4","getTaskManagerAddress()":"65ce8df7","getVersion()":"0d8e6e2c","globalAllowed(uint256)":"94d9184c","hashTypedDataV4(bytes32)":"4980f288","isAllowed(uint256,address)":"5faa299a","isAllowedForDecryption(uint256)":"6330a709","isAllowedWithPermission((address,uint64,address,uint256,address,bytes32,bytes,bytes),uint256)":"ae79f04a","owner()":"8da5cb5b","pendingOwner()":"e30c3978","persistAllowed(uint256,address)":"37e6b44f","renounceOwnership()":"715018a6","transferOwnership(address)":"f2fde38b"},"storageLayout":{"storage":[{"astId":24728,"contract":"node_modules/@fhenixprotocol/cofhe-mock-contracts/ACL.sol:ACL","label":"_owner","offset":0,"slot":"0","type":"t_address"},{"astId":24876,"contract":"node_modules/@fhenixprotocol/cofhe-mock-contracts/ACL.sol:ACL","label":"_pendingOwner","offset":0,"slot":"1","type":"t_address"},{"astId":29027,"contract":"node_modules/@fhenixprotocol/cofhe-mock-contracts/ACL.sol:ACL","label":"_nameFallback","offset":0,"slot":"2","type":"t_string_storage"},{"astId":29029,"contract":"node_modules/@fhenixprotocol/cofhe-mock-contracts/ACL.sol:ACL","label":"_versionFallback","offset":0,"slot":"3","type":"t_string_storage"}],"types":{"t_address":{"encoding":"inplace","label":"address","numberOfBytes":"20"},"t_string_storage":{"encoding":"bytes","label":"string","numberOfBytes":"32"}}},"id":2}