{"abi":[{"type":"constructor","inputs":[],"stateMutability":"nonpayable"},{"type":"function","name":"MOCK_logAllow","inputs":[{"name":"operation","type":"string","internalType":"string"},{"name":"ctHash","type":"uint256","internalType":"uint256"},{"name":"account","type":"address","internalType":"address"}],"outputs":[],"stateMutability":"view"},{"type":"function","name":"MOCK_setInEuintKey","inputs":[{"name":"ctHash","type":"uint256","internalType":"uint256"},{"name":"value","type":"uint256","internalType":"uint256"}],"outputs":[],"stateMutability":"nonpayable"},{"type":"function","name":"acl","inputs":[],"outputs":[{"name":"","type":"address","internalType":"contract ACL"}],"stateMutability":"view"},{"type":"function","name":"aggregator","inputs":[],"outputs":[{"name":"","type":"address","internalType":"address"}],"stateMutability":"view"},{"type":"function","name":"allow","inputs":[{"name":"ctHash","type":"uint256","internalType":"uint256"},{"name":"account","type":"address","internalType":"address"}],"outputs":[],"stateMutability":"nonpayable"},{"type":"function","name":"allowForDecryption","inputs":[{"name":"ctHash","type":"uint256","internalType":"uint256"}],"outputs":[],"stateMutability":"nonpayable"},{"type":"function","name":"allowGlobal","inputs":[{"name":"ctHash","type":"uint256","internalType":"uint256"}],"outputs":[],"stateMutability":"nonpayable"},{"type":"function","name":"allowTransient","inputs":[{"name":"ctHash","type":"uint256","internalType":"uint256"},{"name":"account","type":"address","internalType":"address"}],"outputs":[],"stateMutability":"nonpayable"},{"type":"function","name":"createDecryptTask","inputs":[{"name":"ctHash","type":"uint256","internalType":"uint256"},{"name":"","type":"address","internalType":"address"}],"outputs":[],"stateMutability":"nonpayable"},{"type":"function","name":"createTask","inputs":[{"name":"returnType","type":"uint8","internalType":"uint8"},{"name":"funcId","type":"uint8","internalType":"enum FunctionId"},{"name":"encryptedHashes","type":"uint256[]","internalType":"uint256[]"},{"name":"extraInputs","type":"uint256[]","internalType":"uint256[]"}],"outputs":[{"name":"","type":"uint256","internalType":"uint256"}],"stateMutability":"nonpayable"},{"type":"function","name":"exists","inputs":[],"outputs":[{"name":"","type":"bool","internalType":"bool"}],"stateMutability":"pure"},{"type":"function","name":"getDecryptResult","inputs":[{"name":"ctHash","type":"uint256","internalType":"uint256"}],"outputs":[{"name":"","type":"uint256","internalType":"uint256"}],"stateMutability":"view"},{"type":"function","name":"getDecryptResultSafe","inputs":[{"name":"ctHash","type":"uint256","internalType":"uint256"}],"outputs":[{"name":"result","type":"uint256","internalType":"uint256"},{"name":"decrypted","type":"bool","internalType":"bool"}],"stateMutability":"view"},{"type":"function","name":"handleDecryptResult","inputs":[{"name":"ctHash","type":"uint256","internalType":"uint256"},{"name":"result","type":"uint256","internalType":"uint256"},{"name":"","type":"address[]","internalType":"address[]"}],"outputs":[],"stateMutability":"nonpayable"},{"type":"function","name":"handleError","inputs":[{"name":"ctHash","type":"uint256","internalType":"uint256"},{"name":"operation","type":"string","internalType":"string"},{"name":"errorMessage","type":"string","internalType":"string"}],"outputs":[],"stateMutability":"nonpayable"},{"type":"function","name":"inMockStorage","inputs":[{"name":"","type":"uint256","internalType":"uint256"}],"outputs":[{"name":"","type":"bool","internalType":"bool"}],"stateMutability":"view"},{"type":"function","name":"initialize","inputs":[{"name":"initialOwner","type":"address","internalType":"address"}],"outputs":[],"stateMutability":"nonpayable"},{"type":"function","name":"isAllowed","inputs":[{"name":"ctHash","type":"uint256","internalType":"uint256"},{"name":"account","type":"address","internalType":"address"}],"outputs":[{"name":"","type":"bool","internalType":"bool"}],"stateMutability":"view"},{"type":"function","name":"isAllowedWithPermission","inputs":[{"name":"permission","type":"tuple","internalType":"struct Permission","components":[{"name":"issuer","type":"address","internalType":"address"},{"name":"expiration","type":"uint64","internalType":"uint64"},{"name":"recipient","type":"address","internalType":"address"},{"name":"validatorId","type":"uint256","internalType":"uint256"},{"name":"validatorContract","type":"address","internalType":"address"},{"name":"sealingKey","type":"bytes32","internalType":"bytes32"},{"name":"issuerSignature","type":"bytes","internalType":"bytes"},{"name":"recipientSignature","type":"bytes","internalType":"bytes"}]},{"name":"handle","type":"uint256","internalType":"uint256"}],"outputs":[{"name":"","type":"bool","internalType":"bool"}],"stateMutability":"view"},{"type":"function","name":"isInitialized","inputs":[],"outputs":[{"name":"","type":"bool","internalType":"bool"}],"stateMutability":"view"},{"type":"function","name":"logOps","inputs":[],"outputs":[{"name":"","type":"bool","internalType":"bool"}],"stateMutability":"view"},{"type":"function","name":"mockStorage","inputs":[{"name":"","type":"uint256","internalType":"uint256"}],"outputs":[{"name":"","type":"uint256","internalType":"uint256"}],"stateMutability":"view"},{"type":"function","name":"removeFirstLetter","inputs":[{"name":"str","type":"string","internalType":"string"}],"outputs":[{"name":"","type":"string","internalType":"string"}],"stateMutability":"pure"},{"type":"function","name":"setACLContract","inputs":[{"name":"_aclAddress","type":"address","internalType":"address"}],"outputs":[],"stateMutability":"nonpayable"},{"type":"function","name":"setAggregator","inputs":[{"name":"_aggregatorAddress","type":"address","internalType":"address"}],"outputs":[],"stateMutability":"nonpayable"},{"type":"function","name":"setLogOps","inputs":[{"name":"_logOps","type":"bool","internalType":"bool"}],"outputs":[],"stateMutability":"nonpayable"},{"type":"function","name":"setSecurityZoneMax","inputs":[{"name":"securityZone","type":"int32","internalType":"int32"}],"outputs":[],"stateMutability":"nonpayable"},{"type":"function","name":"setSecurityZoneMin","inputs":[{"name":"securityZone","type":"int32","internalType":"int32"}],"outputs":[],"stateMutability":"nonpayable"},{"type":"function","name":"setSecurityZones","inputs":[{"name":"minSZ","type":"int32","internalType":"int32"},{"name":"maxSZ","type":"int32","internalType":"int32"}],"outputs":[],"stateMutability":"nonpayable"},{"type":"function","name":"setVerifierSigner","inputs":[{"name":"signer","type":"address","internalType":"address"}],"outputs":[],"stateMutability":"nonpayable"},{"type":"function","name":"sliceString","inputs":[{"name":"str","type":"string","internalType":"string"},{"name":"start","type":"uint256","internalType":"uint256"},{"name":"length","type":"uint256","internalType":"uint256"}],"outputs":[{"name":"","type":"string","internalType":"string"}],"stateMutability":"pure"},{"type":"function","name":"verifyInput","inputs":[{"name":"input","type":"tuple","internalType":"struct EncryptedInput","components":[{"name":"ctHash","type":"uint256","internalType":"uint256"},{"name":"securityZone","type":"uint8","internalType":"uint8"},{"name":"utype","type":"uint8","internalType":"uint8"},{"name":"signature","type":"bytes","internalType":"bytes"}]},{"name":"sender","type":"address","internalType":"address"}],"outputs":[{"name":"","type":"uint256","internalType":"uint256"}],"stateMutability":"nonpayable"},{"type":"event","name":"DecryptionResult","inputs":[{"name":"ctHash","type":"uint256","indexed":false,"internalType":"uint256"},{"name":"result","type":"uint256","indexed":false,"internalType":"uint256"},{"name":"requestor","type":"address","indexed":true,"internalType":"address"}],"anonymous":false},{"type":"event","name":"ProtocolNotification","inputs":[{"name":"ctHash","type":"uint256","indexed":false,"internalType":"uint256"},{"name":"operation","type":"string","indexed":false,"internalType":"string"},{"name":"errorMessage","type":"string","indexed":false,"internalType":"string"}],"anonymous":false},{"type":"event","name":"TaskCreated","inputs":[{"name":"ctHash","type":"uint256","indexed":false,"internalType":"uint256"},{"name":"operation","type":"string","indexed":false,"internalType":"string"},{"name":"input1","type":"uint256","indexed":false,"internalType":"uint256"},{"name":"input2","type":"uint256","indexed":false,"internalType":"uint256"},{"name":"input3","type":"uint256","indexed":false,"internalType":"uint256"}],"anonymous":false},{"type":"error","name":"ACLNotAllowed","inputs":[{"name":"handle","type":"uint256","internalType":"uint256"},{"name":"account","type":"address","internalType":"address"}]},{"type":"error","name":"DecryptionResultNotReady","inputs":[{"name":"ctHash","type":"uint256","internalType":"uint256"}]},{"type":"error","name":"ECDSAInvalidSignature","inputs":[]},{"type":"error","name":"ECDSAInvalidSignatureLength","inputs":[{"name":"length","type":"uint256","internalType":"uint256"}]},{"type":"error","name":"ECDSAInvalidSignatureS","inputs":[{"name":"s","type":"bytes32","internalType":"bytes32"}]},{"type":"error","name":"InputNotInMockStorage","inputs":[{"name":"ctHash","type":"uint256","internalType":"uint256"}]},{"type":"error","name":"InvalidAddress","inputs":[]},{"type":"error","name":"InvalidInputForFunction","inputs":[{"name":"functionName","type":"string","internalType":"string"},{"name":"inputType","type":"uint8","internalType":"uint8"}]},{"type":"error","name":"InvalidInputType","inputs":[{"name":"actual","type":"uint8","internalType":"uint8"},{"name":"expected","type":"uint8","internalType":"uint8"}]},{"type":"error","name":"InvalidInputsAmount","inputs":[{"name":"operation","type":"string","internalType":"string"},{"name":"got","type":"uint256","internalType":"uint256"},{"name":"expected","type":"uint256","internalType":"uint256"}]},{"type":"error","name":"InvalidOperationInputs","inputs":[{"name":"operation","type":"string","internalType":"string"}]},{"type":"error","name":"InvalidSecurityZone","inputs":[{"name":"zone","type":"int32","internalType":"int32"},{"name":"min","type":"int32","internalType":"int32"},{"name":"max","type":"int32","internalType":"int32"}]},{"type":"error","name":"InvalidSignature","inputs":[]},{"type":"error","name":"InvalidSigner","inputs":[{"name":"signer","type":"address","internalType":"address"},{"name":"expectedSigner","type":"address","internalType":"address"}]},{"type":"error","name":"InvalidThreeInputOperation","inputs":[{"name":"operation","type":"string","internalType":"string"}]},{"type":"error","name":"InvalidTwoInputOperation","inputs":[{"name":"operation","type":"string","internalType":"string"}]},{"type":"error","name":"InvalidTypeOrSecurityZone","inputs":[{"name":"operation","type":"string","internalType":"string"}]},{"type":"error","name":"InvalidUnaryOperation","inputs":[{"name":"operation","type":"string","internalType":"string"}]},{"type":"error","name":"OnlyAggregatorAllowed","inputs":[{"name":"caller","type":"address","internalType":"address"}]},{"type":"error","name":"OnlyOwnerAllowed","inputs":[{"name":"caller","type":"address","internalType":"address"}]},{"type":"error","name":"RandomFunctionNotSupported","inputs":[]},{"type":"error","name":"StringsInsufficientHexLength","inputs":[{"name":"value","type":"uint256","internalType":"uint256"},{"name":"length","type":"uint256","internalType":"uint256"}]},{"type":"error","name":"TooManyInputs","inputs":[{"name":"operation","type":"string","internalType":"string"},{"name":"got","type":"uint256","internalType":"uint256"},{"name":"maxAllowed","type":"uint256","internalType":"uint256"}]}],"bytecode":{"object":"0x60808060405234602057600160ff195f5416175f5561556f90816100258239f35b5f80fdfe60806040526004361015610011575f80fd5b5f3560e01c8063082898271461021457806315a486fe1461020f5780631888debd1461020a5780631c76642b146102055780631d03193114610200578063245a7bfc146101fb57806326594a0c146101f6578063267c4ae4146101f157806327f9c762146101ec57806334ef1e5a146101e7578063392e53cd146101e2578063458693c9146101dd5780634bc98263146101d8578063591363c7146101d35780635faa299a146101ce5780635fb0bf91146101c9578063642b3f19146101c457806365d0509c146101bf5780637e5cf519146101ba57806381ba0986146101b55780638b2b9c23146101b05780638d9c9c92146101ab5780638db39c8d146101a657806392bd6c95146101a1578063a307d21d1461019c578063ae79f04a14610197578063c4d66de814610192578063d521ed4b1461018d578063de28735914610188578063e68d826f14610183578063f6bc7f3f1461017e5763f9120af614610179575f80fd5b6111f8565b6111b8565b611197565b61116f565b611120565b6110cb565b610fca565b610f0c565b610eac565b610e5f565b610db6565b610c84565b610c21565b610b43565b610a40565b610a11565b610983565b610952565b6108d8565b610807565b6107db565b6107b6565b61070a565b610667565b6105ed565b610561565b610527565b6104ee565b6104c4565b61043d565b610325565b610273565b602435906001600160a01b038216820361022f57565b5f80fd5b604435906001600160a01b038216820361022f57565b600435906001600160a01b038216820361022f57565b35906001600160a01b038216820361022f57565b3461022f57604036600319011261022f57610323600435610292610219565b5061029c81611b47565b805f52600560205260405f20600160ff198254161790556102bc81611bdc565b815f52600460205260405f20556103086102f96102ea6102de600a420661129e565b6001600160401b031690565b6001600160401b0342166112c7565b915f52600660205260405f2090565b906001600160401b03166001600160401b0319825416179055565b005b3461022f57604036600319011261022f57610323602435600435611c57565b6004359060ff8216820361022f57565b359060ff8216820361022f57565b634e487b7160e01b5f52604160045260245ffd5b608081019081106001600160401b0382111761039157604052565b610362565b90601f801991011681019081106001600160401b0382111761039157604052565b604051906103c761010083610396565b565b6001600160401b0381116103915760051b60200190565b9080601f8301121561022f5781356103f7816103c9565b926104056040519485610396565b81845260208085019260051b82010192831161022f57602001905b82821061042d5750505090565b8135815260209182019101610420565b3461022f57608036600319011261022f57610456610344565b60243590602082101561022f576044356001600160401b03811161022f576104829036906004016103e0565b90606435916001600160401b03831161022f576104c0936104aa6104b09436906004016103e0565b92611339565b6040519081529081906020820190565b0390f35b3461022f57602036600319011261022f576004355f526001602052602060405f2054604051908152f35b3461022f57602036600319011261022f576004355f526002602052602060ff60405f2054166040519015158152f35b5f91031261022f57565b3461022f575f36600319011261022f576007546040805191901c6001600160a01b03168152602090f35b600435908160030b820361022f57565b3461022f57604036600319011261022f5761057a610551565b602435908160030b820361022f576003546001600160a01b031633036105da576105c1906007549060201b67ffffffff00000000169067ffffffff00000000191617600755565b63ffffffff19600754169063ffffffff16176007555f80f35b63391c752b60e11b5f523360045260245ffd5b3461022f575f36600319011261022f57602060405160018152f35b6001600160401b03811161039157601f01601f191660200190565b81601f8201121561022f5760208135910161063d82610608565b9261064b6040519485610396565b8284528282011161022f57815f92602092838601378301015290565b3461022f57604036600319011261022f576004356001600160401b03811161022f576080600319823603011261022f57604051906106a482610376565b806004013582526106b760248201610354565b60208301526106c860448201610354565b60408301526064810135916001600160401b03831161022f576106f76104b09260046104c09536920101610623565b6060820152610704610219565b90611449565b3461022f57602036600319011261022f5760043560808082160361072a57005b600854610747906001600160a01b03165b6001600160a01b031690565b90813b1561022f5760405163846cd43360e01b815260048101829052336024820152915f908390604490829084905af19182156107b15761032392610797575b5033906107926115c3565b613861565b806107a55f6107ab93610396565b8061051d565b5f610787565b61132e565b3461022f575f36600319011261022f57602060ff60035460a01c166040519015158152f35b3461022f57602036600319011261022f5760406107f96004356115f0565b825191825215156020820152f35b3461022f57606036600319011261022f576004356024356001600160401b03811161022f5761083a903690600401610623565b6044356001600160401b03811161022f57610859903690600401610623565b60075490929060401c6001600160a01b031633036108c5576108c07f66d3f531abdf188fde59b6d2b282dc7c725ef2bb1c6c93954054721a13c1a3fa936108b26040519485948552606060208601526060850190610b0b565b908382036040850152610b0b565b0390a1005b6354ba507f60e11b5f523360045260245ffd5b3461022f57602036600319011261022f576108f1610551565b6003546001600160a01b031633036105da57600754908160201c60030b808260030b1261092f575063ffffffff169063ffffffff1916176007555f80f35b631265e79b60e11b5f52600391820b600452810b6024520b60445260645ffd5b5ffd5b3461022f57604036600319011261022f576020610979600435610973610219565b9061164c565b6040519015158152f35b3461022f57602036600319011261022f5761099c610551565b6003546001600160a01b031633036105da576007548060030b90818360030b136109e3576007805467ffffffff00000000191667ffffffff00000000602086901b16179055005b631265e79b60e11b5f52600392830b60045260201c820b602452900b60445260645ffd5b8015150361022f57565b3461022f57602036600319011261022f57600435610a2e81610a07565b60ff80195f541691151516175f555f80f35b3461022f57604036600319011261022f57600435610a5c610219565b60808281161415610a6c565b1590565b610a7257005b600854610a87906001600160a01b031661073b565b91823b1561022f576040516379a3a7fb60e01b8152600481018290526001600160a01b0383166024820152336044820152925f908490606490829084905af19283156107b15761032393610af7575b506001600160a01b0382163303610aef576107926116f5565b6107926116ce565b806107a55f610b0593610396565b5f610ad6565b805180835260209291819084018484015e5f828201840152601f01601f1916010190565b906020610b40928181520190610b0b565b90565b3461022f57606036600319011261022f576004356001600160401b03811161022f57610b73903690600401610623565b6024359060443590818301808411610c1c57815110610be757610b9582611720565b925f5b838110610bad57604051806104c08782610b2f565b80610bd4610bc6610bc0600194866112ba565b86611783565b516001600160f81b03191690565b5f1a610be08288611783565b5301610b98565b60405162461bcd60e51b815260206004820152600d60248201526c4f7574206f6620626f756e647360981b6044820152606490fd5b61128a565b3461022f57606036600319011261022f576044356024356004356001600160401b03831161022f573660238401121561022f578260040135916001600160401b03831161022f573660248460051b8601011161022f576024610323940191611834565b3461022f57606036600319011261022f576004356001600160401b03811161022f57610cb4903690600401610623565b602435610cbf610233565b9060ff5f5416610ccb57005b610cdc610cd66137e3565b93614c9b565b610ced610ce7613805565b92614dd2565b6001600160a01b039093169384610d0c610d0760286112ac565b611720565b956030610d1888611766565b536078610d2488611773565b53610d2f602861129e565b60018111610d695750610d52575091610d4d93916103239593613826565b614ea0565b63e22e27eb60e01b5f52600452601460245260445ffd5b90600f81166010811015610db157610dac91610da6916f181899199a1a9b1b9c1cb0b131b232b360811b901a610d9f858c611783565b5360041c90565b916154ab565b610d2f565b611752565b3461022f57604036600319011261022f57600435610dd2610219565b608080831603610dde57005b600854610df3906001600160a01b031661073b565b91823b1561022f57604051632426f41160e11b8152600481018290526001600160a01b0383166024820152336044820152925f908490606490829084905af19283156107b15761032393610e4b575b50610792611897565b806107a55f610e5993610396565b5f610e42565b3461022f57602036600319011261022f57610e78610249565b6003546001600160a01b031633036105da57600980546001600160a01b0319166001600160a01b0392909216919091179055005b3461022f57602036600319011261022f57610ec5610249565b6003546001600160a01b031633036105da576001600160a01b03168015610efd576001600160601b0360a01b60085416176008555f80f35b63e6c4247b60e01b5f5260045ffd5b3461022f57602036600319011261022f57600435608080821603610f2c57005b610f346118c7565b9080610f3f83611766565b52600854610f55906001600160a01b031661073b565b803b1561022f57604051631e1c1cdd60e11b8152925f918491829084908290610f8390339060048401611945565b03925af19182156107b15761032392610fa2575b503390610792611993565b806107a55f610fb093610396565b5f610f97565b35906001600160401b038216820361022f57565b3461022f57604036600319011261022f576004356001600160401b03811161022f57610100600319823603011261022f576110036103b7565b906110108160040161025f565b825261101e60248201610fb6565b602083015261102f6044820161025f565b60408301526064810135606083015261104a6084820161025f565b608083015260a481013560a083015260c48101356001600160401b03811161022f5761107c9060043691840101610623565b60c083015260e4810135916001600160401b03831161022f576110ab6110b99260046104c09536920101610623565b60e0820152602435906119c7565b60405190151581529081906020820190565b3461022f57602036600319011261022f57600160a01b6001600160a01b036110f1610249565b166affffffffffffffffffffff60a81b6003541617176003556001600160601b0360a01b600954166009555f80f35b3461022f57602036600319011261022f576004356001600160401b03811161022f5761115b6111566104c0923690600401610623565b611acb565b604051918291602083526020830190610b0b565b3461022f575f36600319011261022f576008546040516001600160a01b039091168152602090f35b3461022f575f36600319011261022f57602060ff5f54166040519015158152f35b3461022f57602036600319011261022f576004356111d5816115f0565b156111e557602090604051908152f35b50631c33d95560e21b5f5260045260245ffd5b3461022f57602036600319011261022f57611211610249565b6003546001600160a01b031633036105da576001600160a01b03811615610efd576007805468010000000000000000600160e01b03191660409290921b68010000000000000000600160e01b0316919091179055005b634e487b7160e01b5f52601260045260245ffd5b8115611285570690565b611267565b634e487b7160e01b5f52601160045260245ffd5b9060018201809211610c1c57565b9060028201809211610c1c57565b91908201809211610c1c57565b906001600160401b03809116911601906001600160401b038211610c1c57565b634e487b7160e01b5f52602160045260245ffd5b6020111561130557565b6112e7565b604090611324600393959495606083526060830190610b0b565b9460208201520152565b6040513d5f823e3d90fd5b919091611345836112fb565b601b831461143a5761135a82518551906112ba565b6003811161141157508183916113738361138f956131a3565b611389611380878461330a565b9687938561339f565b90613424565b6008549092906113a7906001600160a01b031661073b565b91823b1561022f57604051632426f41160e11b815260048101859052336024820152306044820152925f908490606490829084905af19081156107b157610b40936113f7926113fd575b50612e98565b83613596565b806107a55f61140b93610396565b5f6113f1565b61141a84612e98565b611436604051928392632b0399d560e01b84526004840161130a565b0390fd5b63098e08ab60e41b5f5260045ffd5b919091611472611466611460602084015160ff1690565b60ff1690565b63ffffffff1660030b90565b6009546001600160a01b0316938461151a575b506114b492935061149c6040835193015160ff1690565b9060ff617f0091169160081b16179061ffff19161790565b6008546114c9906001600160a01b031661073b565b803b1561022f57604051632426f41160e11b815260048101839052336024820152306044820152905f908290606490829084905af180156107b15761150c575090565b806107a55f610b4093610396565b611526610a6883613701565b61156f576115349083613727565b936001600160a01b0381166001600160a01b0386161461148557637ba5ffb560e01b5f526001600160a01b038086166004521660245260445ffd5b61094f8260075461158d6115868260201c60030b90565b9160030b90565b631265e79b60e11b5f52600392830b60045290820b602452900b604452606490565b604051906115be602083610396565b5f8252565b604051906115d2604083610396565b600f82526e1192114b985b1b1bddd1db1bd8985b608a1b6020830152565b805f52600560205260ff60405f2054161561163057805f5260066020526001600160401b0360405f20541642106116305761162a90611bdc565b90600190565b505f905f90565b9081602091031261022f5751610b4081610a07565b6080808216146116c757600854604051632fd514cd60e11b815260048101929092526001600160a01b039283166024830152909160209183916044918391165afa9081156107b1575f9161169e575090565b610b40915060203d6020116116c0575b6116b88183610396565b810190611637565b503d6116ae565b5050600190565b604051906116dd604083610396565b60098252684648452e616c6c6f7760b81b6020830152565b60405190611704604083610396565b600d82526c4648452e616c6c6f775468697360981b6020830152565b9061172a82610608565b6117376040519182610396565b8281528092611748601f1991610608565b0190602036910137565b634e487b7160e01b5f52603260045260245ffd5b805115610db15760200190565b805160011015610db15760210190565b908151811015610db1570160200190565b8051600411610be7576117a76004611720565b905f5b600481106117b757505090565b806117c7610bc660019385611783565b5f1a6117d38286611783565b53016117aa565b9060048101808211610c1c57825110610be7576117f76004611720565b915f5b600481106118085750505090565b80611821610bc661181b600194876112ba565b85611783565b5f1a61182d8287611783565b53016117fa565b60075490935090915060401c6001600160a01b031633036108c5575f918252600560209081526040808420805460ff191660011790556004825280842092909255600690529020805467ffffffffffffffff1916426001600160401b0316179055565b604051906118a6604083610396565b60128252711192114b985b1b1bddd51c985b9cda595b9d60721b6020830152565b604080519091906118d88382610396565b6001815291601f1901366020840137565b906118f3826103c9565b6119006040519182610396565b8281528092611748601f19916103c9565b805160011015610db15760400190565b805160021015610db15760600190565b8051821015610db15760209160051b010190565b9092919260408201906040835280518092526020606084019101915f5b81811061197d575050602091509360018060a01b0316910152565b8351835260209384019390920191600101611962565b604051906119a2604083610396565b60168252752324229730b63637bba337b92232b1b93cb83a34b7b760511b6020830152565b6008546040805163573cf82560e11b8152600481019190915282516001600160a01b0390811660448301526020848101516001600160401b03166064840152919491938593909116918391829190611a869060408101516001600160a01b03166084850152606081015160a485015260808101516001600160a01b031660c485015260a081015160e485015260e0611a7160c0830151610100610104880152610144870190610b0b565b91015184820360431901610124860152610b0b565b90602483015203915afa9081156107b1575f9161169e575090565b5f19810191908211610c1c57565b600319810191908211610c1c57565b91908203918211610c1c57565b90815115611b315781515f198101908111610c1c57611ae990611720565b9160015b8151811015611b2d576001600160f81b0319611b098284611783565b5116905f198101818111610c1c57611b266001935f1a9187611783565b5301611aed565b5050565b9050604051611b41602082610396565b5f815290565b608081811603611b545750565b600854611b69906001600160a01b031661073b565b604051632fd514cd60e11b81526004810183905233602482015290602090829060449082905afa9081156107b1575f91611bbd575b5015611ba75750565b63268989cf60e11b5f526004523360245260445ffd5b611bd6915060203d6020116116c0576116b88183610396565b5f611b9e565b805f52600260205260ff60405f20541615611c11575f196001611bfe83614eed565b1b01905f52600160205260405f20541690565b63850a796d60e01b5f5260045260245ffd5b5f196001611c3083614eed565b1b01815f52600160205260405f20555f52600260205260405f20600160ff19825416179055565b905f196001611c6584614eed565b1b0116815f52600160205260405f20555f52600260205260405f20600160ff19825416179055565b60405190611c9c604083610396565b600482526318d85cdd60e21b6020830152565b60405190611cbe604083610396565b600a8252691cd9585b13dd5d1c1d5d60b21b6020830152565b60405190611ce6604083610396565b60068252651cd95b1958dd60d21b6020830152565b60405190611d0a604083610396565b6007825266191958dc9e5c1d60ca1b6020830152565b60405190611d2f604083610396565b600382526239bab160e91b6020830152565b60405190611d50604083610396565b600382526218591960ea1b6020830152565b60405190611d71604083610396565b60038252623c37b960e91b6020830152565b60405190611d92604083610396565b6003825262185b9960ea1b6020830152565b60405190611db3604083610396565b600282526137b960f11b6020830152565b60405190611dd3604083610396565b60038252621b9bdd60ea1b6020830152565b60405190611df4604083610396565b60038252623234bb60e91b6020830152565b60405190611e15604083610396565b600382526272656d60e81b6020830152565b60405190611e36604083610396565b60038252621b5d5b60ea1b6020830152565b60405190611e57604083610396565b60038252621cda1b60ea1b6020830152565b60405190611e78604083610396565b600382526239b43960e91b6020830152565b60405190611e99604083610396565b600382526267746560e81b6020830152565b60405190611eba604083610396565b60038252626c746560e81b6020830152565b60405190611edb604083610396565b60028252611b1d60f21b6020830152565b60405190611efb604083610396565b600282526119dd60f21b6020830152565b60405190611f1b604083610396565b600382526236b4b760e91b6020830152565b60405190611f3c604083610396565b60038252620dac2f60eb1b6020830152565b60405190611f5d604083610396565b6002825261657160f01b6020830152565b60405190611f7d604083610396565b60028252616e6560f01b6020830152565b60405190611f9d604083610396565b600e82526d1d1c9a5d9a585b115b98dc9e5c1d60921b6020830152565b60405190611fc9604083610396565b600682526572616e646f6d60d01b6020830152565b60405190611fed604083610396565b60038252621c9bdb60ea1b6020830152565b6040519061200e604083610396565b60038252623937b960e91b6020830152565b6040519061202f604083610396565b600682526573717561726560d01b6020830152565b610b40611c8d565b612056601a6112fb565b612060601a6112fb565b61206a601a6112fb565b612074601a6112fb565b61207e601a6112fb565b612088601a6112fb565b612092601a6112fb565b61209c601a6112fb565b6120a6601a6112fb565b6120b0601a6112fb565b6120ba601a6112fb565b6120c4601a6112fb565b6120ce601a6112fb565b6120d8601a6112fb565b6120e2601a6112fb565b6120ec601a6112fb565b6120f6601a6112fb565b612100601a6112fb565b61210a601a6112fb565b612114601a6112fb565b61211e601a6112fb565b612128601a6112fb565b612132601a6112fb565b61213c601a6112fb565b610b40611f8e565b610b40611cd7565b610b40611d20565b61215e60086112fb565b610b40611d41565b61217060096112fb565b61217a60096112fb565b610b40611d62565b61218c600a6112fb565b612196600a6112fb565b6121a0600a6112fb565b610b40611d83565b6121b2600b6112fb565b6121bc600b6112fb565b6121c6600b6112fb565b6121d0600b6112fb565b6121da600b6112fb565b610b40611da4565b6121ec600d6112fb565b6121f6600d6112fb565b612200600d6112fb565b61220a600d6112fb565b612214600d6112fb565b61221e600d6112fb565b612228600d6112fb565b610b40611de5565b61223a600e6112fb565b612244600e6112fb565b61224e600e6112fb565b612258600e6112fb565b612262600e6112fb565b61226c600e6112fb565b612276600e6112fb565b612280600e6112fb565b61228a600e6112fb565b610b40611e06565b61229c600f6112fb565b6122a6600f6112fb565b6122b0600f6112fb565b6122ba600f6112fb565b6122c4600f6112fb565b6122ce600f6112fb565b6122d8600f6112fb565b6122e2600f6112fb565b6122ec600f6112fb565b6122f6600f6112fb565b610b40611e27565b61230860106112fb565b61231260106112fb565b61231c60106112fb565b61232660106112fb565b61233060106112fb565b61233a60106112fb565b61234460106112fb565b61234e60106112fb565b61235860106112fb565b61236260106112fb565b61236c60106112fb565b610b40611e48565b61237e60116112fb565b61238860116112fb565b61239260116112fb565b61239c60116112fb565b6123a660116112fb565b6123b060116112fb565b6123ba60116112fb565b6123c460116112fb565b6123ce60116112fb565b6123d860116112fb565b6123e260116112fb565b6123ec60116112fb565b6123f660116112fb565b610b40611e69565b61240860126112fb565b61241260126112fb565b61241c60126112fb565b61242660126112fb565b61243060126112fb565b61243a60126112fb565b61244460126112fb565b61244e60126112fb565b61245860126112fb565b61246260126112fb565b61246c60126112fb565b61247660126112fb565b61248060126112fb565b61248a60126112fb565b610b40611e8a565b61249c60136112fb565b6124a660136112fb565b6124b060136112fb565b6124ba60136112fb565b6124c460136112fb565b6124ce60136112fb565b6124d860136112fb565b6124e260136112fb565b6124ec60136112fb565b6124f660136112fb565b61250060136112fb565b61250a60136112fb565b61251460136112fb565b61251e60136112fb565b61252860136112fb565b610b40611eab565b61253a60146112fb565b61254460146112fb565b61254e60146112fb565b61255860146112fb565b61256260146112fb565b61256c60146112fb565b61257660146112fb565b61258060146112fb565b61258a60146112fb565b61259460146112fb565b61259e60146112fb565b6125a860146112fb565b6125b260146112fb565b6125bc60146112fb565b6125c660146112fb565b6125d060146112fb565b6125da60146112fb565b610b40611ecc565b6125ec60156112fb565b6125f660156112fb565b61260060156112fb565b61260a60156112fb565b61261460156112fb565b61261e60156112fb565b61262860156112fb565b61263260156112fb565b61263c60156112fb565b61264660156112fb565b61265060156112fb565b61265a60156112fb565b61266460156112fb565b61266e60156112fb565b61267860156112fb565b61268260156112fb565b61268c60156112fb565b61269660156112fb565b610b40611eec565b6126a860166112fb565b6126b260166112fb565b6126bc60166112fb565b6126c660166112fb565b6126d060166112fb565b6126da60166112fb565b6126e460166112fb565b6126ee60166112fb565b6126f860166112fb565b61270260166112fb565b61270c60166112fb565b61271660166112fb565b61272060166112fb565b61272a60166112fb565b61273460166112fb565b61273e60166112fb565b61274860166112fb565b61275260166112fb565b61275c60166112fb565b610b40611f0c565b61276e60176112fb565b61277860176112fb565b61278260176112fb565b61278c60176112fb565b61279660176112fb565b6127a060176112fb565b6127aa60176112fb565b6127b460176112fb565b6127be60176112fb565b6127c860176112fb565b6127d260176112fb565b6127dc60176112fb565b6127e660176112fb565b6127f060176112fb565b6127fa60176112fb565b61280460176112fb565b61280e60176112fb565b61281860176112fb565b61282260176112fb565b61282c60176112fb565b61283660176112fb565b610b40611f2d565b61284860186112fb565b61285260186112fb565b61285c60186112fb565b61286660186112fb565b61287060186112fb565b61287a60186112fb565b61288460186112fb565b61288e60186112fb565b61289860186112fb565b6128a260186112fb565b6128ac60186112fb565b6128b660186112fb565b6128c060186112fb565b6128ca60186112fb565b6128d460186112fb565b6128de60186112fb565b6128e860186112fb565b6128f260186112fb565b6128fc60186112fb565b61290660186112fb565b61291060186112fb565b61291a60186112fb565b610b40611f4e565b61292c60196112fb565b61293660196112fb565b61294060196112fb565b61294a60196112fb565b61295460196112fb565b61295e60196112fb565b61296860196112fb565b61297260196112fb565b61297c60196112fb565b61298660196112fb565b61299060196112fb565b61299a60196112fb565b6129a460196112fb565b6129ae60196112fb565b6129b860196112fb565b6129c260196112fb565b6129cc60196112fb565b6129d660196112fb565b6129e060196112fb565b6129ea60196112fb565b6129f460196112fb565b6129fe60196112fb565b612a0860196112fb565b610b40611f6e565b612a1a601c6112fb565b612a24601c6112fb565b612a2e601c6112fb565b612a38601c6112fb565b612a42601c6112fb565b612a4c601c6112fb565b612a56601c6112fb565b612a60601c6112fb565b612a6a601c6112fb565b612a74601c6112fb565b612a7e601c6112fb565b612a88601c6112fb565b612a92601c6112fb565b612a9c601c6112fb565b612aa6601c6112fb565b612ab0601c6112fb565b612aba601c6112fb565b612ac4601c6112fb565b612ace601c6112fb565b612ad8601c6112fb565b612ae2601c6112fb565b612aec601c6112fb565b612af6601c6112fb565b612b00601c6112fb565b612b0a601c6112fb565b612b14601c6112fb565b610b40611fde565b612b26601d6112fb565b612b30601d6112fb565b612b3a601d6112fb565b612b44601d6112fb565b612b4e601d6112fb565b612b58601d6112fb565b612b62601d6112fb565b612b6c601d6112fb565b612b76601d6112fb565b612b80601d6112fb565b612b8a601d6112fb565b612b94601d6112fb565b612b9e601d6112fb565b612ba8601d6112fb565b612bb2601d6112fb565b612bbc601d6112fb565b612bc6601d6112fb565b612bd0601d6112fb565b612bda601d6112fb565b612be4601d6112fb565b612bee601d6112fb565b612bf8601d6112fb565b612c02601d6112fb565b612c0c601d6112fb565b612c16601d6112fb565b612c20601d6112fb565b612c2a601d6112fb565b610b40611fff565b612c3c601b6112fb565b612c46601b6112fb565b612c50601b6112fb565b612c5a601b6112fb565b612c64601b6112fb565b612c6e601b6112fb565b612c78601b6112fb565b612c82601b6112fb565b612c8c601b6112fb565b612c96601b6112fb565b612ca0601b6112fb565b612caa601b6112fb565b612cb4601b6112fb565b612cbe601b6112fb565b612cc8601b6112fb565b612cd2601b6112fb565b612cdc601b6112fb565b612ce6601b6112fb565b612cf0601b6112fb565b612cfa601b6112fb565b612d04601b6112fb565b612d0e601b6112fb565b612d18601b6112fb565b612d22601b6112fb565b612d2c601b6112fb565b610b40611fba565b612d3e600c6112fb565b612d48600c6112fb565b612d52600c6112fb565b612d5c600c6112fb565b612d66600c6112fb565b612d70600c6112fb565b610b40611dc4565b612d82601e6112fb565b612d8c601e6112fb565b612d96601e6112fb565b612da0601e6112fb565b612daa601e6112fb565b612db4601e6112fb565b612dbe601e6112fb565b612dc8601e6112fb565b612dd2601e6112fb565b612ddc601e6112fb565b612de6601e6112fb565b612df0601e6112fb565b612dfa601e6112fb565b612e04601e6112fb565b612e0e601e6112fb565b612e18601e6112fb565b612e22601e6112fb565b612e2c601e6112fb565b612e36601e6112fb565b612e40601e6112fb565b612e4a601e6112fb565b612e54601e6112fb565b612e5e601e6112fb565b612e68601e6112fb565b612e72601e6112fb565b612e7c601e6112fb565b612e86601e6112fb565b612e90601e6112fb565b610b40612020565b612ea1816112fb565b6002811461316657612eb2816112fb565b6003811461315d57612ec3816112fb565b6004811461315457612ed4816112fb565b6006811461314b57612ee5816112fb565b6007811461314257612ef6816112fb565b6008811461313957612f07816112fb565b6009811461313057612f18816112fb565b600a811461312757612f29816112fb565b600b811461311e57612f3a816112fb565b600c811461311557612f4b816112fb565b600d811461310c57612f5c816112fb565b600e811461310357612f6d816112fb565b600f81146130fa57612f7e816112fb565b601081146130f157612f8f816112fb565b601181146130e857612fa0816112fb565b601281146130df57612fb1816112fb565b601381146130d657612fc2816112fb565b601481146130cd57612fd3816112fb565b601581146130c457612fe4816112fb565b601681146130bb57612ff5816112fb565b601781146130b257613006816112fb565b601881146130a957613017816112fb565b601981146130a057613028816112fb565b601a811461309757613039816112fb565b601b811461308e5761304a816112fb565b601c81146130855761305b816112fb565b601d811461307c578061306f601e926112fb565b14612e9057610b406115af565b50610b40611fff565b50610b40611fde565b50610b40611fba565b50610b40611f8e565b50610b40611f6e565b50610b40611f4e565b50610b40611f2d565b50610b40611f0c565b50610b40611eec565b50610b40611ecc565b50610b40611eab565b50610b40611e8a565b50610b40611e69565b50610b40611e48565b50610b40611e27565b50610b40611e06565b50610b40611de5565b50610b40611dc4565b50610b40611da4565b50610b40611d83565b50610b40611d62565b50610b40611d41565b50610b40611d20565b50610b40611cfb565b50610b40611cd7565b50610b40611caf565b50610b40611c8d565b604090611324600293959495606083526060830190610b0b565b604090611324600193959495606083526060830190610b0b565b9190916131af83612e98565b8151156132c5576131bf846112fb565b60048403613221576131d0826139a5565b6131e56131dc83611766565b5160ff165f0b90565b936131f2610a6886613701565b61320a576103c793945061320583613a58565b613acc565b61094f8560075461158d6115868260201c60030b90565b61322a8461393d565b1561325c5781516001810361323f57506131d0565b6040516326a10d4760e21b81529182916114369160048401613189565b8151600281036132a8575061328661327383611766565b5161327d84611911565b5118617fff1690565b156131d0576040516352b50ae160e01b81529081906114369060048301610b2f565b6040516326a10d4760e21b8152918291611436916004840161316f565b91926132d59150610a689061391d565b6132dc5750565b60405163598b095560e11b81529081906114369060048301610b2f565b60ff1660ff8114610c1c5760010190565b9190825181518101809111610c1c57613322906118e9565b905f5b845160ff82169081101561335857908161334d6133456133539489611931565b519186611931565b526132f9565b613325565b509392935b61336a84518351906112ba565b60ff82169081101561339757906133929161334d61334561338c885184611abe565b86611931565b61335d565b505050905090565b6133ab9092919261391d565b6133c35750805115610db1576020015160ff165f0b90565b809150515f198101908111610c1c576133db91611931565b5160030b90565b805191908290602001825e015f815290565b6103c790613416613410949360405195869360208501906133e2565b906133e2565b03601f198101845283610396565b91909293606094613434816112fb565b601a8114905f965b845160ff891690811015613476576134709161346461345e61346a9389611931565b51613bba565b906133f4565b976132f9565b9661343c565b509093610b409693975094919461348c856112fb565b601e85146134f1575b50906134c66134de60016134eb946134ac886112fb565b60ff60f81b8860f81b1660405194859260208401906133e2565b9060ff60f81b16815203601e19810184520182610396565b6020815191012093613bde565b916137b8565b9350906134c66134de60016135116134eb9561346461345e600f9a611766565b9394505050613495565b9161353a9060809497969592845260a0602085015260a0840190610b0b565b95604083015260608201520152565b909361353a6080935f959796845260a0602085015260a0840190610b0b565b6135865f93608093969596835260a0602084015260a0830190610b0b565b9460408201528260608201520152565b9091600181511480156136ea575b156135fc57916135f5837fe9de54a3e7ddf0c48cc6e1134185300d5a71acbf2d8c21fcdefa9d9dd9e20ac16135ed6135de6103c797611766565b51604051918291878984613568565b0390a1611766565b5191614b6a565b805160020361366d576103c7927fe9de54a3e7ddf0c48cc6e1134185300d5a71acbf2d8c21fcdefa9d9dd9e20ac161363383611766565b5161363d84611911565b5190613650604051928392868985613549565b0390a161366661365f83611766565b5192611911565b5192614494565b6103c7927fe9de54a3e7ddf0c48cc6e1134185300d5a71acbf2d8c21fcdefa9d9dd9e20ac161369b83611766565b516136a584611911565b51906136c26136b386611921565b51604051938493878a8661351b565b0390a16136ce82611766565b51906136e36136dc84611911565b5193611921565b5193613d59565b506136fc6136f6612044565b84615060565b6135a4565b6007549060030b8160201c60030b811215918261371d57505090565b60030b1215919050565b6060613797928251906040840151906020850151604051926020840194855260ff60f81b9060f81b16604084015260ff60f81b9060f81b1660418301526001600160601b031990841b1660428201524660568201526056815261378b607682610396565b51902091015190614c85565b6001600160a01b038116156137a95790565b638baa579f60e01b5f5260045ffd5b92156137d857607f60ff6080925b1692161760081b179061ffff19161790565b607f60ff5f926137c6565b604051906137f2604083610396565b60048252630714a4e160e51b6020830152565b60405190613814604083610396565b60038252620103e160ed1b6020830152565b919360046138506103c7956134106134109998613410613416976040519c8d9a60208c01906133e2565b63010169f160e51b815201906133e2565b919060ff5f541661387157505050565b61387c610cd66137e3565b613887610ce7613805565b6001600160a01b0390931693846138a1610d0760286112ac565b9560306138ad88611766565b5360786138b988611773565b536138c4602861129e565b600181116138e25750610d52575091610d4d93916103c79593613826565b90600f81166010811015610db15761391891610da6916f181899199a1a9b1b9c1cb0b131b232b360811b901a610d9f858c611783565b6138c4565b602081101561130557601b8114908115613935575090565b601a91501490565b602081101561130557600c811490811561396d575b811561395c575090565b60029150613969816112fb565b1490565b601e81149150613952565b6040600391939293606081526113246060820160409060068152651cd95b1958dd60d21b60208201520190565b805160038103613a3b57506139c66139bc82611911565b5161327d83611921565b613a0c576139d66139e591611766565b5160ff90617f001660081c1690565b60ff81166139f05750565b63884a0e9d60e01b5f90815260ff90911660045260245260445ffd5b6040516352b50ae160e01b81526020600482015260066024820152651cd95b1958dd60d21b6044820152606490fd5b6040516326a10d4760e21b81529081906114369060048301613978565b5f5b81519060ff811691821015613a8957613a7f613a79613a849385611931565b51611b47565b6132f9565b613a5a565b505050565b91906020613aa6600792604086526040860190610b0b565b930152565b9060ff613ac5602092959495604085526040850190610b0b565b9416910152565b92909192613ad981614fc8565b613bb457613ae69061500d565b15613b49575f5b835160ff821690811015613b42576007613b0d6139d6613b149388611931565b1860ff1690565b15613b2757613b22906132f9565b613aed565b604051631236966f60e31b8152806114368560048301613a8e565b5050915050565b5f9291925b825160ff821690811015613b42576139d6613b699185611931565b60ff6007821816158015613ba9575b613b8b5750613b86906132f9565b613b4e565b604051631236966f60e31b8152908190611436908760048401613aab565b5060ff811615613b78565b50915050565b604080519190613bca8184610396565b602083526020830190601f19013682375290565b613be7816112fb565b60138114908115613c6f575b8115613c5a575b8115613c45575b8115613c30575b8115613c1c575b50613c175790565b505f90565b60199150613c29816112fb565b145f613c0f565b9050613c3b816112fb565b6018811490613c08565b9050613c50816112fb565b6015811490613c01565b9050613c65816112fb565b6012811490613bfa565b9050613c7a816112fb565b6014811490613bf3565b906103c761341692604051938491664648452e61734560c81b602084015260278301906133e2565b60016103c791613cd9613ccb95948360405197889460208601906133e2565b600560fb1b815201906133e2565b602960f81b815203601e19810185520183610396565b613416613d1194936003613d216103c79582604051998a9760208901906133e2565b620101f960ed1b815201906133e2565b620101d160ed1b815201906133e2565b60405190613d40604083610396565b600a8252691192114b9cd95b1958dd60b21b6020830152565b9291939093613d6f613d6961204c565b86615060565b613e0c57613d7e613d69612144565b613d9d57604051635e45fa0160e01b8152806114368760048301610b2f565b6103c7945091613de191613de7613de1613ddb866001613dbf613ded99611bdc565b03613dfb57613dd6613dd087611bdc565b8a611c57565b614dd2565b93614dd2565b91614dd2565b91613cef565b90613df6613d31565b614f62565b613dd6613e0786611bdc565b613dd0565b6103c794508381949350613e209250611c57565b613e56613de1613e3a613e35611156856151e2565b613c84565b93613e50613e4a611156866151e2565b91615278565b90613cac565b91614f62565b6103c790613416613e7a9493600360405196879460208601906133e2565b6201016960ed1b815201906133e2565b60405190613e99604083610396565b60078252662324229739bab160c91b6020830152565b6103c790613416613ecd9493600360405196879460208601906133e2565b6201015960ed1b815201906133e2565b60405190613eec604083610396565b60078252661192114b98591960ca1b6020830152565b6103c790613416613f209493600360405196879460208601906133e2565b620102f160ed1b815201906133e2565b60405190613f3f604083610396565b6007825266232422973c37b960c91b6020830152565b6103c790613416613f739493600360405196879460208601906133e2565b6201013160ed1b815201906133e2565b60405190613f92604083610396565b60078252661192114b985b9960ca1b6020830152565b6103c790613416613fc69493600360405196879460208601906133e2565b620103e160ed1b815201906133e2565b60405190613fe5604083610396565b60068252652324229737b960d11b6020830152565b8115611285570490565b6103c7906134166140229493600360405196879460208601906133e2565b6201017960ed1b815201906133e2565b60405190614041604083610396565b6007825266232422973234bb60c91b6020830152565b6103c7906134166140759493600360405196879460208601906133e2565b6201012960ed1b815201906133e2565b60405190614094604083610396565b60078252664648452e72656d60c81b6020830152565b6103c7906134166140c89493600360405196879460208601906133e2565b6201015160ed1b815201906133e2565b604051906140e7604083610396565b60078252661192114b9b5d5b60ca1b6020830152565b6103c79061341661411b9493600460405196879460208601906133e2565b630101e1e160e51b815201906133e2565b6040519061413b604083610396565b60078252661192114b9cda1b60ca1b6020830152565b6103c79061341661416f9493600460405196879460208601906133e2565b630101f1f160e51b815201906133e2565b6040519061418f604083610396565b60078252662324229739b43960c91b6020830152565b6103c7906134166141c39493600460405196879460208601906133e2565b630101f1e960e51b815201906133e2565b604051906141e3604083610396565b60078252664648452e67746560c81b6020830152565b6103c7906134166142179493600460405196879460208601906133e2565b630101e1e960e51b815201906133e2565b60405190614237604083610396565b60078252664648452e6c746560c81b6020830152565b6103c79061341661426b9493600360405196879460208601906133e2565b620101e160ed1b815201906133e2565b6040519061428a604083610396565b60068252651192114b9b1d60d21b6020830152565b6103c7906134166142bd9493600360405196879460208601906133e2565b620101f160ed1b815201906133e2565b604051906142dc604083610396565b60068252651192114b99dd60d21b6020830152565b60016103c791613cd961431e95946002604051978894630dad2dc560e31b602087015260248601906133e2565b61016160f51b815201906133e2565b6040519061433c604083610396565b60078252662324229736b4b760c91b6020830152565b60016103c791613cd961431e95946002604051978894630dac2f0560e31b602087015260248601906133e2565b6040519061438e604083610396565b600782526608c908a5cdac2f60cb1b6020830152565b6103c7906134166143c29493600460405196879460208601906133e2565b630101e9e960e51b815201906133e2565b604051906143e2604083610396565b60068252654648452e657160d01b6020830152565b6103c7906134166144159493600460405196879460208601906133e2565b63010109e960e51b815201906133e2565b60405190614435604083610396565b60068252654648452e6e6560d01b6020830152565b60405190614459604083610396565b60078252661192114b9c9bdb60ca1b6020830152565b6040519061447e604083610396565b6007825266232422973937b960c91b6020830152565b919290926144a96144a361214c565b85615060565b614a90576144b86144a3612154565b614a52576144c76144a3612166565b614a14576144d66144a3612182565b6149d6576144e56144a36121a8565b614998576144f46144a36121e2565b614949576145036144a3612230565b614909576145126144a3612292565b6148cb576145216144a36122fe565b6148a3576145306144a3612374565b61487b5761453f6144a36123fe565b61483c5761454e6144a3612492565b6147fd5761455d6144a3612530565b6147bf5761456c6144a36125e2565b6147815761457b6144a361269e565b61473b5761458a6144a3612764565b6146de576145996144a361283e565b6146a0576145a86144a3612922565b614661576145b76144a3612a10565b614623576145c66144a3612b1c565b6145e55760405163cef6088560e01b8152806114368660048301610b2f565b6103c7935061461a91614614613de183613dd6614604613de196611bdc565b61460d86611bdc565b1c88611c57565b90614151565b90613df661446f565b6103c7935061465891614652613de183613dd6614642613de196611bdc565b61464b86611bdc565b1b88611c57565b906140fd565b90613df661444a565b6103c7935061469791614691613de183613dd6614680613de196611bdc565b61468986611bdc565b1415886153ce565b906143f7565b90613df6614426565b6103c793506146d5916146cf613de183613dd66146bf613de196611bdc565b6146c886611bdc565b14886153ce565b906143a4565b90613df66143d3565b6103c793506147219161471b613de1836146fa613de195611bdc565b61470385611bdc565b101561472a57613dd661471582611bdc565b88611c57565b90614352565b90613df661437f565b613dd661473685611bdc565b614715565b6103c7935061477891614772613de183614757613de195611bdc565b61476085611bdc565b111561472a57613dd661471582611bdc565b906142f1565b90613df661432d565b6103c793506147b6916147b0613de183613dd66147a0613de196611bdc565b6147a986611bdc565b10886153ce565b9061429f565b90613df66142cd565b6103c793506147f4916147ee613de183613dd66147de613de196611bdc565b6147e786611bdc565b11886153ce565b9061424d565b90613df661427b565b6103c793506148339161482d613de183613dd661481c613de196611bdc565b61482586611bdc565b1015886153ce565b906141f9565b90613df6614228565b6103c793506148729161486c613de183613dd661485b613de196611bdc565b61486486611bdc565b1115886153ce565b906141a5565b90613df66141d4565b6103c7935061489a91614614613de183613dd6614604613de196611bdc565b90613df6614180565b6103c793506148c291614652613de183613dd6614642613de196611bdc565b90613df661412c565b6103c79350614900916148fa613de183613dd66148ea613de196611bdc565b6148f386611bdc565b0288611c57565b906140aa565b90613df66140d8565b6103c793506149409161493a613de183613dd661471561492b613de197611bdc565b61493487611bdc565b9061127b565b90614057565b90613df6614085565b6103c7935081614974613de1613de19361496561497a96611bdc565b806149835750613dd687611c23565b90614004565b90613df6614032565b614715613dd69161499384611bdc565b613ffa565b6103c793506149cd916149c7613de183613dd66149b7613de196611bdc565b6149c086611bdc565b1788611c57565b90613fa8565b90613df6613fd6565b6103c79350614a0b91614a05613de183613dd66149f5613de196611bdc565b6149fe86611bdc565b1688611c57565b90613f55565b90613df6613f83565b6103c79350614a4991614a43613de183613dd6614a33613de196611bdc565b614a3c86611bdc565b1888611c57565b90613f02565b90613df6613f30565b6103c79350614a8791614a81613de183613dd6614a71613de196611bdc565b614a7a86611bdc565b0188611c57565b90613eaf565b90613df6613edd565b6103c79350614ac691614ac0613de183613dd6614aaf613de196611bdc565b614ab886611bdc565b900388611c57565b90613e5c565b90613df6613e8a565b60405190614ade604083610396565b600a8252694648452e72616e646f6d60b01b6020830152565b60405190614b06604083610396565b60088252671192114b98d85cdd60c21b6020830152565b60405190614b2c604083610396565b60078252661192114b9b9bdd60ca1b6020830152565b60405190614b51604083610396565b600a8252694648452e73717561726560b01b6020830152565b9091614b776136f6612c32565b614c5257614b866136f6612044565b614c2b57614b956136f6612d34565b614c0057614ba46136f6612d78565b614bc357604051633654b39f60e21b8152806114368560048301610b2f565b6103c79250613de181614beb614bdb614bf794611bdc565b614be483611bdc565b0285611c57565b6148fa613de182614dd2565b90613df6614b42565b6103c79250613de181613dd66001614c1a614c2295611bdc565b1415856153ce565b90613df6614b1d565b6103c79250613de181613dd6614c43614c4994611bdc565b85611c57565b90613df6614af7565b506103c79150614c6f90613dd6614c6843611aa1565b4082611c57565b614c77614acf565b614c7f6115af565b90614f62565b610b4091614c92916153eb565b9092919261542f565b906010825110156103c757614cb06010611720565b5f5b8351811015614ce6576001906001600160f81b0319614cd18287611783565b51165f1a614cdf8285611783565b5301614cb2565b909192505b60108110614cf7575090565b806020614d0660019385611783565b5301614ceb565b60405190614d1c604083610396565b600582526466616c736560d81b6020830152565b60405190614d3f604083610396565b60048252637472756560e01b6020830152565b60405190614d61604083610396565b6005825264454d50545960d81b6020830152565b614dbc613ccb95946002614dad6103c79682614d9e600198896040519d8e9a60208c01906133e2565b61171760f11b815201906133e2565b61295b60f01b815201906133e2565b605d60f81b815203601e19810185520183610396565b614ddb81615278565b8051916006831115614e9a57610b4092815f526002602052614e0260405f2060ff90541690565b91614e15815f52600160205260405f2090565b54614e248260081c607f161590565b15614e8b57600103614e7857614e5d614e44614e3e614d30565b926151e2565b94614e57614e5182611794565b94611aaf565b906117da565b9215614e695792614d75565b50614e72614d52565b92614d75565b614e5d614e44614e86614d0d565b614e3e565b614e44614e3e614e5d92615278565b50905090565b5f8091604051614eda81614ecc602082019463104c13eb60e21b86526020602484018181520190610b0b565b03601f198101835282610396565b51906a636f6e736f6c652e6c6f675afa50565b60ff9060081c607f16168015614f5c5760028114614f5c5760038114614f565760048114614f505760058114614f4a5760068114614f445760088114614f3d57600714614f38575f90565b60a090565b5061010090565b50608090565b50604090565b50602090565b50601090565b50600890565b9160ff5f5416614f7157505050565b6103c792614ecc610d4d926006614fb561341096613410614f99614f936137e3565b97614c9b565b613410614fa4613805565b916040519b8c9a60208c01906133e2565b65010101e9f10160d51b815201906133e2565b60208110156113055760048114908115615002575b8115614fed57811561395c575090565b9050614ff8816112fb565b6019811490613952565b601881149150614fdd565b60208110156113055760098114908115615055575b8115615040575b8115615033575090565b600c9150613969816112fb565b905061504b816112fb565b600b811490615029565b600a81149150615022565b60405161507581614ecc6020820180956133e2565b5190209060405161508e81614ecc6020820180956133e2565b5190201490565b604051906150a4604083610396565b600582526419589bdbdb60da1b6020830152565b604051906150c7604083610396565b60068252650caead2dce8760d31b6020830152565b604051906150eb604083610396565b600782526632bab4b73a189b60c91b6020830152565b60405190615110604083610396565b600782526632bab4b73a199960c91b6020830152565b60405190615135604083610396565b6007825266195d5a5b9d0d8d60ca1b6020830152565b6040519061515a604083610396565b60088252670caead2dce86264760c31b6020830152565b60405190615180604083610396565b600882526732bab4b73a191a9b60c11b6020830152565b604051906151a6604083610396565b6008825267656164647265737360c01b6020830152565b604051906151cc604083610396565b60078252663ab735b737bbb760c91b6020830152565b60ff9060081c607f1616801561526f5760028114615266576003811461525d5760048114615254576005811461524b576006811461524257600881146152395760071461523157610b406151bd565b610b40615197565b50610b40615171565b50610b4061514b565b50610b40615126565b50610b40615101565b50610b406150dc565b50610b406150b8565b50610b40615095565b805f9172184f03e93ff9f4daa797ed6e38ed64bf6a1f0160401b8210156153ab575b806d04ee2d6d415b85acef8100000000600a92101561538f575b662386f26fc1000081101561537a575b6305f5e100811015615368575b612710811015615358575b6064811015615349575b101561533e575b61532960216152fe60018501611720565b938401015b5f1901916f181899199a1a9b1b9c1cb0b131b232b360811b600a82061a8353600a900490565b8015615339576153299091615303565b505090565b6001909101906152ed565b600290606490049301926152e6565b60049061271090049301926152dc565b6008906305f5e10090049301926152d1565b601090662386f26fc1000090049301926152c4565b6020906d04ee2d6d415b85acef810000000090049301926152b4565b506040915072184f03e93ff9f4daa797ed6e38ed64bf6a1f0160401b810461529a565b6103c791156153e35760ff60015b1690611c57565b60ff5f6153dc565b815191906041830361541b576154149250602082015190606060408401519301515f1a906154b7565b9192909190565b50505f9160029190565b6004111561130557565b61543881615425565b80615441575050565b61544a81615425565b600181036154615763f645eedf60e01b5f5260045ffd5b61546a81615425565b60028103615485575063fce698f760e01b5f5260045260245ffd5b80615491600392615425565b146154995750565b6335e2f38360e21b5f5260045260245ffd5b8015610c1c575f190190565b91907f7fffffffffffffffffffffffffffffff5d576e7357a4501ddfe92f46681b20a0841161552e579160209360809260ff5f9560405194855216868401526040830152606082015282805260015afa156107b1575f516001600160a01b0381161561552457905f905f90565b505f906001905f90565b5050505f916003919056fea2646970667358221220f5ac1f580149a6ff650b8a943b5c8189cce700478e3ddea6acc0612fc4b6158e64736f6c634300081a0033","linkReferences":{}},"methodIdentifiers":{"MOCK_logAllow(string,uint256,address)":"8b2b9c23","MOCK_setInEuintKey(uint256,uint256)":"15a486fe","acl()":"de287359","aggregator()":"245a7bfc","allow(uint256,address)":"65d0509c","allowForDecryption(uint256)":"a307d21d","allowGlobal(uint256)":"34ef1e5a","allowTransient(uint256,address)":"8d9c9c92","createDecryptTask(uint256,address)":"08289827","createTask(uint8,uint8,uint256[],uint256[])":"1888debd","exists()":"267c4ae4","getDecryptResult(uint256)":"f6bc7f3f","getDecryptResultSafe(uint256)":"458693c9","handleDecryptResult(uint256,uint256,address[])":"81ba0986","handleError(uint256,string,string)":"4bc98263","inMockStorage(uint256)":"1d031931","initialize(address)":"c4d66de8","isAllowed(uint256,address)":"5faa299a","isAllowedWithPermission((address,uint64,address,uint256,address,bytes32,bytes,bytes),uint256)":"ae79f04a","isInitialized()":"392e53cd","logOps()":"e68d826f","mockStorage(uint256)":"1c76642b","removeFirstLetter(string)":"d521ed4b","setACLContract(address)":"92bd6c95","setAggregator(address)":"f9120af6","setLogOps(bool)":"642b3f19","setSecurityZoneMax(int32)":"591363c7","setSecurityZoneMin(int32)":"5fb0bf91","setSecurityZones(int32,int32)":"26594a0c","setVerifierSigner(address)":"8db39c8d","sliceString(string,uint256,uint256)":"7e5cf519","verifyInput((uint256,uint8,uint8,bytes),address)":"27f9c762"},"storageLayout":{"storage":[{"astId":19554,"contract":"node_modules/@fhenixprotocol/cofhe-mock-contracts/MockTaskManager.sol:TaskManager","label":"logOps","offset":0,"slot":"0","type":"t_bool"},{"astId":19558,"contract":"node_modules/@fhenixprotocol/cofhe-mock-contracts/MockTaskManager.sol:TaskManager","label":"mockStorage","offset":0,"slot":"1","type":"t_mapping(t_uint256,t_uint256)"},{"astId":19562,"contract":"node_modules/@fhenixprotocol/cofhe-mock-contracts/MockTaskManager.sol:TaskManager","label":"inMockStorage","offset":0,"slot":"2","type":"t_mapping(t_uint256,t_bool)"},{"astId":22379,"contract":"node_modules/@fhenixprotocol/cofhe-mock-contracts/MockTaskManager.sol:TaskManager","label":"owner","offset":0,"slot":"3","type":"t_address"},{"astId":22381,"contract":"node_modules/@fhenixprotocol/cofhe-mock-contracts/MockTaskManager.sol:TaskManager","label":"initialized","offset":20,"slot":"3","type":"t_bool"},{"astId":22385,"contract":"node_modules/@fhenixprotocol/cofhe-mock-contracts/MockTaskManager.sol:TaskManager","label":"_decryptResult","offset":0,"slot":"4","type":"t_mapping(t_uint256,t_uint256)"},{"astId":22389,"contract":"node_modules/@fhenixprotocol/cofhe-mock-contracts/MockTaskManager.sol:TaskManager","label":"_decryptResultReady","offset":0,"slot":"5","type":"t_mapping(t_uint256,t_bool)"},{"astId":22393,"contract":"node_modules/@fhenixprotocol/cofhe-mock-contracts/MockTaskManager.sol:TaskManager","label":"_decryptResultReadyTimestamp","offset":0,"slot":"6","type":"t_mapping(t_uint256,t_uint64)"},{"astId":22503,"contract":"node_modules/@fhenixprotocol/cofhe-mock-contracts/MockTaskManager.sol:TaskManager","label":"securityZoneMax","offset":0,"slot":"7","type":"t_int32"},{"astId":22505,"contract":"node_modules/@fhenixprotocol/cofhe-mock-contracts/MockTaskManager.sol:TaskManager","label":"securityZoneMin","offset":4,"slot":"7","type":"t_int32"},{"astId":22507,"contract":"node_modules/@fhenixprotocol/cofhe-mock-contracts/MockTaskManager.sol:TaskManager","label":"aggregator","offset":8,"slot":"7","type":"t_address"},{"astId":22510,"contract":"node_modules/@fhenixprotocol/cofhe-mock-contracts/MockTaskManager.sol:TaskManager","label":"acl","offset":0,"slot":"8","type":"t_contract(ACL)18082"},{"astId":22512,"contract":"node_modules/@fhenixprotocol/cofhe-mock-contracts/MockTaskManager.sol:TaskManager","label":"verifierSigner","offset":0,"slot":"9","type":"t_address"}],"types":{"t_address":{"encoding":"inplace","label":"address","numberOfBytes":"20"},"t_bool":{"encoding":"inplace","label":"bool","numberOfBytes":"1"},"t_contract(ACL)18082":{"encoding":"inplace","label":"contract ACL","numberOfBytes":"20"},"t_int32":{"encoding":"inplace","label":"int32","numberOfBytes":"4"},"t_mapping(t_uint256,t_bool)":{"encoding":"mapping","key":"t_uint256","label":"mapping(uint256 => bool)","numberOfBytes":"32","value":"t_bool"},"t_mapping(t_uint256,t_uint256)":{"encoding":"mapping","key":"t_uint256","label":"mapping(uint256 => uint256)","numberOfBytes":"32","value":"t_uint256"},"t_mapping(t_uint256,t_uint64)":{"encoding":"mapping","key":"t_uint256","label":"mapping(uint256 => uint64)","numberOfBytes":"32","value":"t_uint64"},"t_uint256":{"encoding":"inplace","label":"uint256","numberOfBytes":"32"},"t_uint64":{"encoding":"inplace","label":"uint64","numberOfBytes":"8"}}},"id":6}