{"abi":[{"type":"constructor","inputs":[{"name":"_poolManager","type":"address","internalType":"contract IPoolManager"}],"stateMutability":"nonpayable"},{"type":"function","name":"afterAddLiquidity","inputs":[{"name":"sender","type":"address","internalType":"address"},{"name":"key","type":"tuple","internalType":"struct PoolKey","components":[{"name":"currency0","type":"address","internalType":"Currency"},{"name":"currency1","type":"address","internalType":"Currency"},{"name":"fee","type":"uint24","internalType":"uint24"},{"name":"tickSpacing","type":"int24","internalType":"int24"},{"name":"hooks","type":"address","internalType":"contract IHooks"}]},{"name":"params","type":"tuple","internalType":"struct ModifyLiquidityParams","components":[{"name":"tickLower","type":"int24","internalType":"int24"},{"name":"tickUpper","type":"int24","internalType":"int24"},{"name":"liquidityDelta","type":"int256","internalType":"int256"},{"name":"salt","type":"bytes32","internalType":"bytes32"}]},{"name":"delta","type":"int256","internalType":"BalanceDelta"},{"name":"feesAccrued","type":"int256","internalType":"BalanceDelta"},{"name":"hookData","type":"bytes","internalType":"bytes"}],"outputs":[{"name":"","type":"bytes4","internalType":"bytes4"},{"name":"","type":"int256","internalType":"BalanceDelta"}],"stateMutability":"nonpayable"},{"type":"function","name":"afterDonate","inputs":[{"name":"sender","type":"address","internalType":"address"},{"name":"key","type":"tuple","internalType":"struct PoolKey","components":[{"name":"currency0","type":"address","internalType":"Currency"},{"name":"currency1","type":"address","internalType":"Currency"},{"name":"fee","type":"uint24","internalType":"uint24"},{"name":"tickSpacing","type":"int24","internalType":"int24"},{"name":"hooks","type":"address","internalType":"contract IHooks"}]},{"name":"amount0","type":"uint256","internalType":"uint256"},{"name":"amount1","type":"uint256","internalType":"uint256"},{"name":"hookData","type":"bytes","internalType":"bytes"}],"outputs":[{"name":"","type":"bytes4","internalType":"bytes4"}],"stateMutability":"nonpayable"},{"type":"function","name":"afterInitialize","inputs":[{"name":"sender","type":"address","internalType":"address"},{"name":"key","type":"tuple","internalType":"struct PoolKey","components":[{"name":"currency0","type":"address","internalType":"Currency"},{"name":"currency1","type":"address","internalType":"Currency"},{"name":"fee","type":"uint24","internalType":"uint24"},{"name":"tickSpacing","type":"int24","internalType":"int24"},{"name":"hooks","type":"address","internalType":"contract IHooks"}]},{"name":"sqrtPriceX96","type":"uint160","internalType":"uint160"},{"name":"tick","type":"int24","internalType":"int24"}],"outputs":[{"name":"","type":"bytes4","internalType":"bytes4"}],"stateMutability":"nonpayable"},{"type":"function","name":"afterRemoveLiquidity","inputs":[{"name":"sender","type":"address","internalType":"address"},{"name":"key","type":"tuple","internalType":"struct PoolKey","components":[{"name":"currency0","type":"address","internalType":"Currency"},{"name":"currency1","type":"address","internalType":"Currency"},{"name":"fee","type":"uint24","internalType":"uint24"},{"name":"tickSpacing","type":"int24","internalType":"int24"},{"name":"hooks","type":"address","internalType":"contract IHooks"}]},{"name":"params","type":"tuple","internalType":"struct ModifyLiquidityParams","components":[{"name":"tickLower","type":"int24","internalType":"int24"},{"name":"tickUpper","type":"int24","internalType":"int24"},{"name":"liquidityDelta","type":"int256","internalType":"int256"},{"name":"salt","type":"bytes32","internalType":"bytes32"}]},{"name":"delta","type":"int256","internalType":"BalanceDelta"},{"name":"feesAccrued","type":"int256","internalType":"BalanceDelta"},{"name":"hookData","type":"bytes","internalType":"bytes"}],"outputs":[{"name":"","type":"bytes4","internalType":"bytes4"},{"name":"","type":"int256","internalType":"BalanceDelta"}],"stateMutability":"nonpayable"},{"type":"function","name":"afterSwap","inputs":[{"name":"sender","type":"address","internalType":"address"},{"name":"key","type":"tuple","internalType":"struct PoolKey","components":[{"name":"currency0","type":"address","internalType":"Currency"},{"name":"currency1","type":"address","internalType":"Currency"},{"name":"fee","type":"uint24","internalType":"uint24"},{"name":"tickSpacing","type":"int24","internalType":"int24"},{"name":"hooks","type":"address","internalType":"contract IHooks"}]},{"name":"params","type":"tuple","internalType":"struct SwapParams","components":[{"name":"zeroForOne","type":"bool","internalType":"bool"},{"name":"amountSpecified","type":"int256","internalType":"int256"},{"name":"sqrtPriceLimitX96","type":"uint160","internalType":"uint160"}]},{"name":"delta","type":"int256","internalType":"BalanceDelta"},{"name":"hookData","type":"bytes","internalType":"bytes"}],"outputs":[{"name":"","type":"bytes4","internalType":"bytes4"},{"name":"","type":"int128","internalType":"int128"}],"stateMutability":"nonpayable"},{"type":"function","name":"beforeAddLiquidity","inputs":[{"name":"sender","type":"address","internalType":"address"},{"name":"key","type":"tuple","internalType":"struct PoolKey","components":[{"name":"currency0","type":"address","internalType":"Currency"},{"name":"currency1","type":"address","internalType":"Currency"},{"name":"fee","type":"uint24","internalType":"uint24"},{"name":"tickSpacing","type":"int24","internalType":"int24"},{"name":"hooks","type":"address","internalType":"contract IHooks"}]},{"name":"params","type":"tuple","internalType":"struct ModifyLiquidityParams","components":[{"name":"tickLower","type":"int24","internalType":"int24"},{"name":"tickUpper","type":"int24","internalType":"int24"},{"name":"liquidityDelta","type":"int256","internalType":"int256"},{"name":"salt","type":"bytes32","internalType":"bytes32"}]},{"name":"hookData","type":"bytes","internalType":"bytes"}],"outputs":[{"name":"","type":"bytes4","internalType":"bytes4"}],"stateMutability":"nonpayable"},{"type":"function","name":"beforeDonate","inputs":[{"name":"sender","type":"address","internalType":"address"},{"name":"key","type":"tuple","internalType":"struct PoolKey","components":[{"name":"currency0","type":"address","internalType":"Currency"},{"name":"currency1","type":"address","internalType":"Currency"},{"name":"fee","type":"uint24","internalType":"uint24"},{"name":"tickSpacing","type":"int24","internalType":"int24"},{"name":"hooks","type":"address","internalType":"contract IHooks"}]},{"name":"amount0","type":"uint256","internalType":"uint256"},{"name":"amount1","type":"uint256","internalType":"uint256"},{"name":"hookData","type":"bytes","internalType":"bytes"}],"outputs":[{"name":"","type":"bytes4","internalType":"bytes4"}],"stateMutability":"nonpayable"},{"type":"function","name":"beforeInitialize","inputs":[{"name":"sender","type":"address","internalType":"address"},{"name":"key","type":"tuple","internalType":"struct PoolKey","components":[{"name":"currency0","type":"address","internalType":"Currency"},{"name":"currency1","type":"address","internalType":"Currency"},{"name":"fee","type":"uint24","internalType":"uint24"},{"name":"tickSpacing","type":"int24","internalType":"int24"},{"name":"hooks","type":"address","internalType":"contract IHooks"}]},{"name":"sqrtPriceX96","type":"uint160","internalType":"uint160"}],"outputs":[{"name":"","type":"bytes4","internalType":"bytes4"}],"stateMutability":"nonpayable"},{"type":"function","name":"beforeRemoveLiquidity","inputs":[{"name":"sender","type":"address","internalType":"address"},{"name":"key","type":"tuple","internalType":"struct PoolKey","components":[{"name":"currency0","type":"address","internalType":"Currency"},{"name":"currency1","type":"address","internalType":"Currency"},{"name":"fee","type":"uint24","internalType":"uint24"},{"name":"tickSpacing","type":"int24","internalType":"int24"},{"name":"hooks","type":"address","internalType":"contract IHooks"}]},{"name":"params","type":"tuple","internalType":"struct ModifyLiquidityParams","components":[{"name":"tickLower","type":"int24","internalType":"int24"},{"name":"tickUpper","type":"int24","internalType":"int24"},{"name":"liquidityDelta","type":"int256","internalType":"int256"},{"name":"salt","type":"bytes32","internalType":"bytes32"}]},{"name":"hookData","type":"bytes","internalType":"bytes"}],"outputs":[{"name":"","type":"bytes4","internalType":"bytes4"}],"stateMutability":"nonpayable"},{"type":"function","name":"beforeSwap","inputs":[{"name":"sender","type":"address","internalType":"address"},{"name":"key","type":"tuple","internalType":"struct PoolKey","components":[{"name":"currency0","type":"address","internalType":"Currency"},{"name":"currency1","type":"address","internalType":"Currency"},{"name":"fee","type":"uint24","internalType":"uint24"},{"name":"tickSpacing","type":"int24","internalType":"int24"},{"name":"hooks","type":"address","internalType":"contract IHooks"}]},{"name":"params","type":"tuple","internalType":"struct SwapParams","components":[{"name":"zeroForOne","type":"bool","internalType":"bool"},{"name":"amountSpecified","type":"int256","internalType":"int256"},{"name":"sqrtPriceLimitX96","type":"uint160","internalType":"uint160"}]},{"name":"hookData","type":"bytes","internalType":"bytes"}],"outputs":[{"name":"","type":"bytes4","internalType":"bytes4"},{"name":"","type":"int256","internalType":"BeforeSwapDelta"},{"name":"","type":"uint24","internalType":"uint24"}],"stateMutability":"nonpayable"},{"type":"function","name":"getHookPermissions","inputs":[],"outputs":[{"name":"","type":"tuple","internalType":"struct Hooks.Permissions","components":[{"name":"beforeInitialize","type":"bool","internalType":"bool"},{"name":"afterInitialize","type":"bool","internalType":"bool"},{"name":"beforeAddLiquidity","type":"bool","internalType":"bool"},{"name":"afterAddLiquidity","type":"bool","internalType":"bool"},{"name":"beforeRemoveLiquidity","type":"bool","internalType":"bool"},{"name":"afterRemoveLiquidity","type":"bool","internalType":"bool"},{"name":"beforeSwap","type":"bool","internalType":"bool"},{"name":"afterSwap","type":"bool","internalType":"bool"},{"name":"beforeDonate","type":"bool","internalType":"bool"},{"name":"afterDonate","type":"bool","internalType":"bool"},{"name":"beforeSwapReturnDelta","type":"bool","internalType":"bool"},{"name":"afterSwapReturnDelta","type":"bool","internalType":"bool"},{"name":"afterAddLiquidityReturnDelta","type":"bool","internalType":"bool"},{"name":"afterRemoveLiquidityReturnDelta","type":"bool","internalType":"bool"}]}],"stateMutability":"pure"},{"type":"function","name":"performanceMetrics","inputs":[{"name":"","type":"address","internalType":"address"}],"outputs":[{"name":"totalReturn","type":"uint256","internalType":"euint128"},{"name":"benchmarkReturn","type":"uint256","internalType":"euint128"},{"name":"activeReturn","type":"uint256","internalType":"euint128"},{"name":"measurementPeriod","type":"uint256","internalType":"euint64"}],"stateMutability":"view"},{"type":"function","name":"poolActiveAuctions","inputs":[{"name":"","type":"bytes32","internalType":"PoolId"},{"name":"","type":"uint256","internalType":"uint256"}],"outputs":[{"name":"","type":"uint256","internalType":"uint256"}],"stateMutability":"view"},{"type":"function","name":"poolAuctionCount","inputs":[{"name":"","type":"bytes32","internalType":"PoolId"}],"outputs":[{"name":"","type":"uint256","internalType":"uint256"}],"stateMutability":"view"},{"type":"function","name":"poolManager","inputs":[],"outputs":[{"name":"","type":"address","internalType":"contract IPoolManager"}],"stateMutability":"view"},{"type":"function","name":"portfolioCounter","inputs":[],"outputs":[{"name":"","type":"uint256","internalType":"uint256"}],"stateMutability":"view"},{"type":"function","name":"portfolioPools","inputs":[{"name":"","type":"address","internalType":"address"},{"name":"","type":"uint256","internalType":"uint256"}],"outputs":[{"name":"currency0","type":"address","internalType":"Currency"},{"name":"currency1","type":"address","internalType":"Currency"},{"name":"fee","type":"uint24","internalType":"uint24"},{"name":"tickSpacing","type":"int24","internalType":"int24"},{"name":"hooks","type":"address","internalType":"contract IHooks"}],"stateMutability":"view"},{"type":"function","name":"portfolios","inputs":[{"name":"","type":"address","internalType":"address"}],"outputs":[{"name":"rebalanceFrequency","type":"uint256","internalType":"euint64"},{"name":"totalValue","type":"uint256","internalType":"euint128"},{"name":"toleranceBand","type":"uint256","internalType":"euint32"},{"name":"autoRebalanceEnabled","type":"uint256","internalType":"ebool"},{"name":"lastRebalance","type":"uint256","internalType":"euint64"},{"name":"isActive","type":"bool","internalType":"bool"},{"name":"lastRebalanceTime","type":"uint256","internalType":"uint256"},{"name":"rebalanceFrequencySeconds","type":"uint256","internalType":"uint256"}],"stateMutability":"view"},{"type":"function","name":"rebalanceOrders","inputs":[{"name":"","type":"address","internalType":"address"},{"name":"","type":"bytes32","internalType":"bytes32"}],"outputs":[{"name":"tokenIn","type":"address","internalType":"address"},{"name":"tokenOut","type":"address","internalType":"address"},{"name":"amountIn","type":"uint256","internalType":"euint128"},{"name":"minAmountOut","type":"uint256","internalType":"euint128"},{"name":"executionWindow","type":"uint256","internalType":"euint64"},{"name":"priority","type":"uint256","internalType":"euint32"},{"name":"isActive","type":"uint256","internalType":"ebool"}],"stateMutability":"view"},{"type":"function","name":"setupPhantomPortfolio","inputs":[{"name":"tokens","type":"address[]","internalType":"address[]"},{"name":"targetAllocations","type":"tuple[]","internalType":"struct InEuint128[]","components":[{"name":"ctHash","type":"uint256","internalType":"uint256"},{"name":"securityZone","type":"uint8","internalType":"uint8"},{"name":"utype","type":"uint8","internalType":"uint8"},{"name":"signature","type":"bytes","internalType":"bytes"}]},{"name":"tradingLimits","type":"tuple[]","internalType":"struct InEuint128[]","components":[{"name":"ctHash","type":"uint256","internalType":"uint256"},{"name":"securityZone","type":"uint8","internalType":"uint8"},{"name":"utype","type":"uint8","internalType":"uint8"},{"name":"signature","type":"bytes","internalType":"bytes"}]},{"name":"rebalanceFrequency","type":"tuple","internalType":"struct InEuint64","components":[{"name":"ctHash","type":"uint256","internalType":"uint256"},{"name":"securityZone","type":"uint8","internalType":"uint8"},{"name":"utype","type":"uint8","internalType":"uint8"},{"name":"signature","type":"bytes","internalType":"bytes"}]},{"name":"toleranceBand","type":"tuple","internalType":"struct InEuint32","components":[{"name":"ctHash","type":"uint256","internalType":"uint256"},{"name":"securityZone","type":"uint8","internalType":"uint8"},{"name":"utype","type":"uint8","internalType":"uint8"},{"name":"signature","type":"bytes","internalType":"bytes"}]}],"outputs":[],"stateMutability":"nonpayable"},{"type":"function","name":"triggerRebalance","inputs":[{"name":"portfolioOwner","type":"address","internalType":"address"}],"outputs":[],"stateMutability":"nonpayable"},{"type":"event","name":"OrderExecuted","inputs":[{"name":"owner","type":"address","indexed":true,"internalType":"address"},{"name":"tokenIn","type":"address","indexed":false,"internalType":"address"},{"name":"tokenOut","type":"address","indexed":false,"internalType":"address"},{"name":"amount","type":"uint256","indexed":false,"internalType":"euint128"},{"name":"timestamp","type":"uint256","indexed":false,"internalType":"uint256"}],"anonymous":false},{"type":"event","name":"PerformanceUpdated","inputs":[{"name":"owner","type":"address","indexed":true,"internalType":"address"},{"name":"portfolioId","type":"uint256","indexed":true,"internalType":"uint256"},{"name":"timestamp","type":"uint256","indexed":false,"internalType":"uint256"}],"anonymous":false},{"type":"event","name":"PhantomPortfolioCreated","inputs":[{"name":"owner","type":"address","indexed":true,"internalType":"address"},{"name":"portfolioId","type":"uint256","indexed":true,"internalType":"uint256"},{"name":"tokenCount","type":"uint256","indexed":false,"internalType":"uint256"},{"name":"timestamp","type":"uint256","indexed":false,"internalType":"uint256"}],"anonymous":false},{"type":"event","name":"PortfolioRebalanced","inputs":[{"name":"owner","type":"address","indexed":true,"internalType":"address"},{"name":"portfolioId","type":"uint256","indexed":true,"internalType":"uint256"},{"name":"tradeCount","type":"uint256","indexed":false,"internalType":"uint256"},{"name":"timestamp","type":"uint256","indexed":false,"internalType":"uint256"}],"anonymous":false},{"type":"event","name":"RebalanceOrderExecuted","inputs":[{"name":"owner","type":"address","indexed":true,"internalType":"address"},{"name":"orderId","type":"bytes32","indexed":true,"internalType":"bytes32"},{"name":"tokenIn","type":"address","indexed":false,"internalType":"address"},{"name":"tokenOut","type":"address","indexed":false,"internalType":"address"},{"name":"timestamp","type":"uint256","indexed":false,"internalType":"uint256"}],"anonymous":false},{"type":"error","name":"HookNotImplemented","inputs":[]},{"type":"error","name":"InvalidEncryptedInput","inputs":[{"name":"got","type":"uint8","internalType":"uint8"},{"name":"expected","type":"uint8","internalType":"uint8"}]},{"type":"error","name":"InvalidParameters","inputs":[]},{"type":"error","name":"NotManager","inputs":[]},{"type":"error","name":"NotPoolManager","inputs":[]},{"type":"error","name":"NotPortfolioOwner","inputs":[]},{"type":"error","name":"PortfolioNotFound","inputs":[]},{"type":"error","name":"RebalanceNotNeeded","inputs":[]},{"type":"error","name":"ReentrancyGuardReentrantCall","inputs":[]},{"type":"error","name":"SecurityZoneOutOfBounds","inputs":[{"name":"value","type":"int32","internalType":"int32"}]}],"bytecode":{"object":"0x60a06040523461027a57604051601f6123f938819003918201601f19168301916001600160401b0383118484101761027e5780849260209460405283398101031261027a57516001600160a01b038116810361027a576080525f6101a0610064610292565b8281528260208201528260408201528260608201528260808201528260a08201528260c08201528260e0820152826101008201528261012082015282610140820152826101608201528261018082015201525f6101a06100c2610292565b8281528260208201528260408201528260608201528260808201528260a0820152600160c0820152600160e08201528261010082015282610120820152826101408201528261016082015282610180820152015261200030161580159061026d575b8015610260575b8015610253575b8015610246575b8015610239575b8015610229575b8015610219575b801561020d575b8015610201575b80156101f5575b80156101e9575b80156101dd575b80156101d1575b6101be5760405161214690816102b38239608051818181610172015281816101f40152818161024601528181610aa401528181610bee0152818161168901526117240152f35b630732d7b560e51b5f523060045260245ffd5b50600130161515610178565b50600230161515610171565b5060043016151561016a565b50600830161515610163565b5060103016151561015c565b50602030161515610155565b506040301615156001141561014e565b5060803016151560011415610147565b5061010030161515610140565b5061020030161515610139565b5061040030161515610132565b506108003016151561012b565b5061100030161515610124565b5f80fd5b634e487b7160e01b5f52604160045260245ffd5b604051906101c082016001600160401b0381118382101761027e5760405256fe60806040526004361015610011575f80fd5b5f3560e01c806321d0ee7014611711578063259982e514611711578063337099b1146116e7578063575e24b414611634578063599ccaaa1461159f5780636badc4e614610d125780636c2bbe7e14610bdb5780636fe7e6eb14610cda5780637baab3da14610c4e57806392eb9c0c14610c315780639f063efc14610bdb578063b47b2fb114610a49578063b6854732146109ef578063b6a8b0fa1461015f578063c2db356b14610474578063c4e833ce1461030e578063d445ab5a14610275578063dc4c90d314610231578063dc98354e146101c3578063e1b4af691461015f5763e36496dc14610100575f80fd5b3461015b57604036600319011261015b576024356004355f52600460205260405f2090815481101561015b578154811015610147576020915f52815f200154604051908152f35b634e487b7160e01b5f52603260045260245ffd5b5f80fd5b3461015b5761016d366118de565b5050507f00000000000000000000000000000000000000000000000000000000000000006001600160a01b0316330392506101b491505057630a85dc2960e01b5f5260045ffd5b63570c108560e11b5f5260045ffd5b3461015b5760e036600319011261015b576101dc611765565b5060a036602319011261015b576101f16118b8565b507f00000000000000000000000000000000000000000000000000000000000000006001600160a01b031633036101b457630a85dc2960e01b5f5260045ffd5b3461015b575f36600319011261015b576040517f00000000000000000000000000000000000000000000000000000000000000006001600160a01b03168152602090f35b3461015b57604036600319011261015b5761028e611765565b6001600160a01b03165f90815260026020526040902080546024359081101561015b5760a0915f52600360205f20910201600180831b03815416906001810154906002600180861b039101541690604051928352600180851b038116602084015262ffffff81851c16604084015260b81c60020b60608301526080820152f35b3461015b575f36600319011261015b575f6101a060405161032e816119df565b8281528260208201528260408201528260608201528260808201528260a08201528260c08201528260e0820152826101008201528261012082015282610140820152826101608201528261018082015201526101c06020604051610391816119df565b5f8152818101905f8252604081015f8152606082015f8152608083015f815260a084015f815260c085016001815260e0860190600182526101008701925f84526101208801945f86526101408901965f88526101608a01985f8a526101a06101808c019b5f8d52019b5f8d526040519d8e915f835251151591015251151560408d015251151560608c015251151560808b015251151560a08a015251151560c089015251151560e08801525115156101008701525115156101208601525115156101408501525115156101608401525115156101808301525115156101a0820152f35b3461015b57602036600319011261015b576001600160a01b03610495611765565b168033036109e057805f525f60205260405f209060ff600983015416156109a4576104bf82611d49565b156109955742600a83015560408051926104d98285611a16565b60018452601f1982015f5b8181106109565750506008019081541561014757815f5260205f2060018060a01b0390541691805460011015610147575f90815260209081902060010154825193906001600160a01b03166105398386611a16565b5f85525f368137835160809561054f8783611a16565b60038252846105b9601f198901928336848701376103e861056f86611b19565b52600661057b86611b26565b525f61058686611b36565b526105cb89519586938493631888debd60e01b855260066004860152601a60248601528d60448601526084850190611ea4565b83810360031901606485015290611ea4565b03815f73ea30c4b8b44078bbf8a6ef5b9f1ec1626c7848d95af191821561094c575f9261091b575b506105b9908587516106058282611a16565b5f81525f368137896106788a5161061c8382611a16565b600381528536868301376103b661063282611b19565b52600661063e82611b26565b525f61064982611b36565b528b519687948594631888debd60e01b865260066004870152601a602487015260448601526084850190611ea4565b03815f73ea30c4b8b44078bbf8a6ef5b9f1ec1626c7848d95af1908115610911575f916108e0575b6105b992508688516106b28282611a16565b5f81525f3681378a6107258b516106c98382611a16565b60038152853686830137610e106106df82611b19565b5260056106eb82611b26565b525f6106f682611b36565b528c519788948594631888debd60e01b865260056004870152601a602487015260448601526084850190611ea4565b03815f73ea30c4b8b44078bbf8a6ef5b9f1ec1626c7848d95af19283156108a15789929188915f956108ab575b5089516105b9916107638483611a16565b5f82525f3681376107768c519d8e611a16565b60038d5236848e0137600161078a8d611b19565b5260046107968d611b26565b525f6107a18d611b36565b526107d38b519c8d938493631888debd60e01b8552600480860152601a60248601528860448601526084850190611ea4565b03815f73ea30c4b8b44078bbf8a6ef5b9f1ec1626c7848d95af19384156108a1575f94610865575b5f805160206120f183398151915299506108156001611ed7565b95895197610822896119c4565b88528888015288870152606086015284015260a083015260c082015261084786611b19565b5261085185611b19565b5060065494519082519182524290820152a3005b93508689813d831161089a575b61087c8183611a16565b8101031261015b575f805160206120f18339815191529851936107fb565b503d610872565b88513d5f823e3d90fd5b9350935082813d83116108d9575b6108c38183611a16565b8101031261015b57866105b98a93519490610752565b503d6108b9565b90508582813d831161090a575b6108f78183611a16565b8101031261015b576105b99151906106a0565b503d6108ed565b87513d5f823e3d90fd5b9091508481813d8311610945575b6109338183611a16565b8101031261015b5751906105b96105f3565b503d610929565b86513d5f823e3d90fd5b6020908451610964816119c4565b5f81525f838201525f868201525f60608201525f60808201525f60a08201525f60c0820152828289010152016104e4565b635121f34360e01b5f5260045ffd5b60405162461bcd60e51b8152602060048201526014602482015273506f7274666f6c696f206e6f742061637469766560601b6044820152606490fd5b6321c26d5960e11b5f5260045ffd5b3461015b57602036600319011261015b576001600160a01b03610a10611765565b165f526005602052608060405f208054906001810154906004600282015491015491604051938452602084015260408301526060820152f35b3461015b5761016036600319011261015b57610a63611765565b5060a036602319011261015b5760603660c319011261015b5761012435610144356001600160401b03811161015b57610aa090369060040161178f565b50507f00000000000000000000000000000000000000000000000000000000000000006001600160a01b031633036101b457610adb36611b5a565b508060801d81600f0b9080600f0b8015801590610bd2575b610b31575b600654604051600381524260208201525f805160206120f183398151915260403392a36040805163b47b2fb160e01b81525f6020820152f35b6fffffffffffffffffffffffffffffffff610b8381610b9596610b90955f610b8a96125f14610bca57610b6390611e84565b8216965b5f811215610bc157610b799150611e84565b8116955b16611fa9565b9316611fa9565b916120ae565b6120ae565b600654604051600281524260208201525f805160206120f183398151915260403392a380808080610af8565b50811695610b7d565b821696610b67565b50821515610af3565b3461015b57610be93661184f565b5050507f00000000000000000000000000000000000000000000000000000000000000006001600160a01b0316330393506101b49250505057630a85dc2960e01b5f5260045ffd5b3461015b575f36600319011261015b576020600654604051908152f35b3461015b57602036600319011261015b576001600160a01b03610c6f611765565b165f525f60205261010060405f206003810154906004810154906005810154600682015460078301549060ff60098501541692600b600a860154950154956040519788526020880152604087015260608601526080850152151560a084015260c083015260e0820152f35b3461015b5761010036600319011261015b57610cf4611765565b5060a036602319011261015b57610d096118b8565b506101f16118ce565b3461015b5760a036600319011261015b576004356001600160401b03811161015b57610d4290369060040161181f565b6024356001600160401b03811161015b57610d6190369060040161181f565b92906044356001600160401b03811161015b57610d8290369060040161181f565b9490916064356001600160401b03811161015b576080600319823603011261015b57608435916001600160401b03831161015b576080600319843603011261015b57610dcf848814611935565b610dda888814611935565b861561156757335f525f60205260405f2093600885016001600160401b03891161155357680100000000000000008911611553578054898255808a1061152d575b5087905f5260205f20905f5b8a81106115125750505060098501805460ff191660011790556006545f1981146114fe57600190810160065560609960809792939187019260028801929091908c5f8c8e5b8c81841061136c578e9193508c610e878d3690600401611a45565b60ff60408201511660058103611355575090610edf610eee92610ea8611d95565b50805190606060ff6020830151169101519060405192610ec7846119a9565b83526020830152600560408301526060820152611db9565b60038401553690600401611a45565b60ff6040820151166004810361133e5750610f4290610f0b611d95565b50805190606060ff6020830151169101519060405192610f2a846119a9565b83526020830152600460408301526060820152611db9565b6005820155610f516001611ed7565b6006820155604051602095610f668783611a16565b5f82525f368137866105b960405193610f7f8786611a16565b6003855283368487013742610f9386611b19565b526005610f9f86611b26565b525f610faa86611b36565b52610fde6040519586938493631888debd60e01b855260056004860152601a60248601528a60448601526084850190611ea4565b03815f73ea30c4b8b44078bbf8a6ef5b9f1ec1626c7848d95af180156113005787925f9161130b575b5060078401555f600a840155610e10600b8401556040516105b99490916110a4906110328585611a16565b5f84525f368137604051906110478483611a16565b600382523686830137620f424061105d82611b19565b52600661106982611b26565b525f61107482611b36565b526040519687948594631888debd60e01b865260066004870152601a602487015260448601526084850190611ea4565b03815f73ea30c4b8b44078bbf8a6ef5b9f1ec1626c7848d95af1918215611300575f926112d0575b50600401556110da82611b02565b906110e86040519283611a16565b828252838201908360051b81019136831161015b578591905b8382106112b95750505050335f525f835260405f206111208251611d17565b9361112b8351611d17565b9260028301925f5b82518110156111a3576001906001600160a01b036111518286611b46565b5116828060a01b03165f5282855260405f205461116e828b611b46565b52818060a01b0361117f8286611b46565b5116828060a01b03165f5285855260405f205461119c8289611b46565b5201611133565b509250909360056003840154930154945f5b87518110156111e9576001906111d5336111cf838c611b46565b51612033565b6111e3336111cf838a611b46565b016111b5565b50909192946111f83387612033565b6112023382612033565b5f5b8751811015611236578061122361121d6001938b611b46565b516120ae565b61123061121d8289611b46565b01611204565b50906112468592610b90886120ae565b5f5b8451811015611280578061127a61126160019386611b46565b51838060a01b03611272848a611b46565b511690612033565b01611248565b50826006549160405191825242908201527f209ce749f3f17aed82146c9bf9c292728cd862ce0d0aee0f7224890225a49d0360403392a3005b8280916112c58461177b565b815201910190611101565b9091508481813d83116112f9575b6112e88183611a16565b8101031261015b57519060046110cc565b503d6112de565b6040513d5f823e3d90fd5b83819492503d8311611337575b6113228183611a16565b8101031261015b5790518691906105b9611007565b503d611318565b6367cf307160e01b5f52600452600460245260445ffd5b6367cf307160e01b5f52600452600560245260445ffd5b836113d2926113a29261139361138e8f611389868d923693611987565b611a45565b611ca9565b906113a76113a285858a611af2565b611973565b60018060a01b03165f5260205260405f20556113cc61138e8b611389858d3693611987565b94611af2565b60018060a01b03165f528660205260405f20556105b98c602093849161146e604051926113ff8585611a16565b5f84525f368137604051906114148483611a16565b6003825236868301375f61142782611b19565b52600661143382611b26565b525f61143e82611b36565b526040519586948594631888debd60e01b865260066004870152601a602487015260448601526084850190611ea4565b03815f73ea30c4b8b44078bbf8a6ef5b9f1ec1626c7848d95af1908115611300578f938f8a925f946114c5575b506113a2856001976114ac93611af2565b858060a01b03165f525260405f2055018d908c8e610e6c565b9550509150508083813d83116114f7575b6114e08183611a16565b8101031261015b5791518e9288908f6113a261149b565b503d6114d6565b634e487b7160e01b5f52601160045260245ffd5b600190602061152084611973565b9301928185015501610e27565b815f528960205f2091820191015b8181106115485750610e1b565b5f815560010161153b565b634e487b7160e01b5f52604160045260245ffd5b60405162461bcd60e51b815260206004820152601060248201526f115b5c1d1e481d1bdad95b881b1a5cdd60821b6044820152606490fd5b3461015b57604036600319011261015b576001600160a01b036115c0611765565b165f52600160205260405f206024355f5260205260e060405f2060018060a01b038154169060018060a01b0360018201541690600281015460038201546004830154916006600585015494015494604051968752602087015260408601526060850152608084015260a083015260c0820152f35b3461015b5761014036600319011261015b5761164e611765565b5060a036602319011261015b5760603660c319011261015b57610124356001600160401b03811161015b5761168790369060040161178f565b7f00000000000000000000000000000000000000000000000000000000000000006001600160a01b031633036101b4576116c762ffffff91606093611c60565b906040939293519363ffffffff60e01b1684526020840152166040820152f35b3461015b57602036600319011261015b576004355f526003602052602060405f2054604051908152f35b3461015b5761171f366117bc565b5050507f00000000000000000000000000000000000000000000000000000000000000006001600160a01b0316330391506101b4905057630a85dc2960e01b5f5260045ffd5b600435906001600160a01b038216820361015b57565b35906001600160a01b038216820361015b57565b9181601f8401121561015b578235916001600160401b03831161015b576020838186019501011161015b57565b9061016060031983011261015b576004356001600160a01b038116810361015b579160a060231982011261015b57602491608060c31983011261015b5760c49161014435906001600160401b03821161015b5761181b9160040161178f565b9091565b9181601f8401121561015b578235916001600160401b03831161015b576020808501948460051b01011161015b57565b906101a060031983011261015b576004356001600160a01b038116810361015b579160a060231982011261015b57602491608060c31983011261015b5760c4916101443591610164359161018435906001600160401b03821161015b5761181b9160040161178f565b60c435906001600160a01b038216820361015b57565b60e435908160020b820361015b57565b61012060031982011261015b576004356001600160a01b038116810361015b579160a060231983011261015b5760249160c4359160e4359161010435906001600160401b03821161015b5761181b9160040161178f565b1561193c57565b60405162461bcd60e51b815260206004820152600f60248201526e098cadccee8d040dad2e6dac2e8c6d608b1b6044820152606490fd5b356001600160a01b038116810361015b5790565b91908110156101475760051b81013590607e198136030182121561015b570190565b608081019081106001600160401b0382111761155357604052565b60e081019081106001600160401b0382111761155357604052565b6101c081019081106001600160401b0382111761155357604052565b60a081019081106001600160401b0382111761155357604052565b90601f801991011681019081106001600160401b0382111761155357604052565b359060ff8216820361015b57565b919060808382031261015b57604051611a5d816119a9565b809380358252611a6f60208201611a37565b6020830152611a8060408201611a37565b60408301526060810135906001600160401b03821161015b57019082601f8301121561015b5781356001600160401b0381116115535760405193611ace601f8301601f191660200186611a16565b8185526020828501011161015b576020815f92826060960183880137850101520152565b91908110156101475760051b0190565b6001600160401b0381116115535760051b60200190565b8051156101475760200190565b8051600110156101475760400190565b8051600210156101475760600190565b80518210156101475760209160051b010190565b60a090602319011261015b5760405190611b73826119fb565b816024356001600160a01b038116810361015b5781526044356001600160a01b038116810361015b57602082015260643562ffffff8116810361015b5760408201526084358060020b810361015b57606082015260a435906001600160a01b038216820361015b5760800152565b91908260a091031261015b57604051611bf9816119fb565b8092611c048161177b565b8252611c126020820161177b565b6020830152604081013562ffffff8116810361015b5760408301526060810135908160020b820361015b57606083019190915260800135906001600160a01b038216820361015b5760800152565b50611c6c366024611be1565b50611c9a57604051611c7f602082611a16565b5f81525f36813751611c9a576315d7892d60e21b905f908190565b6315d7892d60e21b905f908190565b60ff60408201511660068103611d005750611cfd90611cc6611d95565b50805190606060ff6020830151169101519060405192611ce5846119a9565b83526020830152600660408301526060820152611db9565b90565b6367cf307160e01b5f52600452600660245260445ffd5b90611d2182611b02565b611d2e6040519182611a16565b8281528092611d3f601f1991611b02565b0190602036910137565b60ff60098201541615611d9057600a810154908115611d8957600b0154908115611d835780421115611d835742034281116114fe57101590565b50505f90565b5050600190565b505f90565b60405190611da2826119a9565b606080835f81525f60208201525f60408201520152565b6020606060e4829360405194859384926313fce3b160e11b8452604060048501528051604485015260ff8382015116606485015260ff60408201511660848501520151608060a484015280519182918260c4860152018484015e5f838284010152336024830152601f801991011681010301815f73ea30c4b8b44078bbf8a6ef5b9f1ec1626c7848d95af1908115611300575f91611e55575090565b90506020813d602011611e7c575b81611e7060209383611a16565b8101031261015b575190565b3d9150611e63565b600f0b6f7fffffffffffffffffffffffffffffff1981146114fe575f0390565b90602080835192838152019201905f5b818110611ec15750505090565b8251845260209384019390920191600101611eb4565b602090816105b9604051611eeb8382611a16565b5f81525f36813760405193611f01608086611a16565b6003855260603685870137611f1585611b19565b525f611f2085611b26565b525f611f2b85611b36565b52611f5f6040519485938493631888debd60e01b85525f6004860152601a6024860152608060448601526084850190611ea4565b03815f73ea30c4b8b44078bbf8a6ef5b9f1ec1626c7848d95af1918215611300575f92611f8b57505090565b90809250813d8311611fa2575b611e708183611a16565b503d611f98565b602090816105b9604051611fbd8382611a16565b5f81525f36813760405193611fd3608086611a16565b6003855260603685870137611fe785611b19565b526006611ff385611b26565b525f611ffe85611b36565b52611f5f6040519485938493631888debd60e01b855260066004860152601a6024860152608060448601526084850190611ea4565b73ea30c4b8b44078bbf8a6ef5b9f1ec1626c7848d93b1561015b57604051631974142760e21b815260048101919091526001600160a01b0390911660248201525f8180604481015b03818373ea30c4b8b44078bbf8a6ef5b9f1ec1626c7848d95af18015611300576120a25750565b5f6120ac91611a16565b565b73ea30c4b8b44078bbf8a6ef5b9f1ec1626c7848d93b1561015b57604051631974142760e21b815260048101919091523060248201525f81806044810161207b56feeea0ca0837bac590bc1df36a96431b06d6e8c95770315159e0545eef0f464258a2646970667358221220253c8fe707cb47053441b169c48723de1a8b47d2b6ad78117debff723d01836264736f6c634300081a0033","linkReferences":{}},"methodIdentifiers":{"afterAddLiquidity(address,(address,address,uint24,int24,address),(int24,int24,int256,bytes32),int256,int256,bytes)":"9f063efc","afterDonate(address,(address,address,uint24,int24,address),uint256,uint256,bytes)":"e1b4af69","afterInitialize(address,(address,address,uint24,int24,address),uint160,int24)":"6fe7e6eb","afterRemoveLiquidity(address,(address,address,uint24,int24,address),(int24,int24,int256,bytes32),int256,int256,bytes)":"6c2bbe7e","afterSwap(address,(address,address,uint24,int24,address),(bool,int256,uint160),int256,bytes)":"b47b2fb1","beforeAddLiquidity(address,(address,address,uint24,int24,address),(int24,int24,int256,bytes32),bytes)":"259982e5","beforeDonate(address,(address,address,uint24,int24,address),uint256,uint256,bytes)":"b6a8b0fa","beforeInitialize(address,(address,address,uint24,int24,address),uint160)":"dc98354e","beforeRemoveLiquidity(address,(address,address,uint24,int24,address),(int24,int24,int256,bytes32),bytes)":"21d0ee70","beforeSwap(address,(address,address,uint24,int24,address),(bool,int256,uint160),bytes)":"575e24b4","getHookPermissions()":"c4e833ce","performanceMetrics(address)":"b6854732","poolActiveAuctions(bytes32,uint256)":"e36496dc","poolAuctionCount(bytes32)":"337099b1","poolManager()":"dc4c90d3","portfolioCounter()":"92eb9c0c","portfolioPools(address,uint256)":"d445ab5a","portfolios(address)":"7baab3da","rebalanceOrders(address,bytes32)":"599ccaaa","setupPhantomPortfolio(address[],(uint256,uint8,uint8,bytes)[],(uint256,uint8,uint8,bytes)[],(uint256,uint8,uint8,bytes),(uint256,uint8,uint8,bytes))":"6badc4e6","triggerRebalance(address)":"c2db356b"},"storageLayout":{"storage":[{"astId":87768,"contract":"src/PhantomPortfolio.sol:PhantomPortfolio","label":"portfolios","offset":0,"slot":"0","type":"t_mapping(t_address,t_struct(EncryptedPortfolio)87723_storage)"},{"astId":87776,"contract":"src/PhantomPortfolio.sol:PhantomPortfolio","label":"rebalanceOrders","offset":0,"slot":"1","type":"t_mapping(t_address,t_mapping(t_bytes32,t_struct(EncryptedRebalanceOrder)87744_storage))"},{"astId":87783,"contract":"src/PhantomPortfolio.sol:PhantomPortfolio","label":"portfolioPools","offset":0,"slot":"2","type":"t_mapping(t_address,t_array(t_struct(PoolKey)36149_storage)dyn_storage)"},{"astId":87789,"contract":"src/PhantomPortfolio.sol:PhantomPortfolio","label":"poolAuctionCount","offset":0,"slot":"3","type":"t_mapping(t_userDefinedValueType(PoolId)36103,t_uint256)"},{"astId":87795,"contract":"src/PhantomPortfolio.sol:PhantomPortfolio","label":"poolActiveAuctions","offset":0,"slot":"4","type":"t_mapping(t_userDefinedValueType(PoolId)36103,t_array(t_uint256)dyn_storage)"},{"astId":87801,"contract":"src/PhantomPortfolio.sol:PhantomPortfolio","label":"performanceMetrics","offset":0,"slot":"5","type":"t_mapping(t_address,t_struct(EncryptedPerformanceMetrics)87762_storage)"},{"astId":87804,"contract":"src/PhantomPortfolio.sol:PhantomPortfolio","label":"portfolioCounter","offset":0,"slot":"6","type":"t_uint256"}],"types":{"t_address":{"encoding":"inplace","label":"address","numberOfBytes":"20"},"t_array(t_address)dyn_storage":{"encoding":"dynamic_array","label":"address[]","numberOfBytes":"32","base":"t_address"},"t_array(t_struct(PoolKey)36149_storage)dyn_storage":{"encoding":"dynamic_array","label":"struct PoolKey[]","numberOfBytes":"32","base":"t_struct(PoolKey)36149_storage"},"t_array(t_uint256)dyn_storage":{"encoding":"dynamic_array","label":"uint256[]","numberOfBytes":"32","base":"t_uint256"},"t_array(t_userDefinedValueType(euint128)28)dyn_storage":{"encoding":"dynamic_array","label":"euint128[]","numberOfBytes":"32","base":"t_userDefinedValueType(euint128)28"},"t_bool":{"encoding":"inplace","label":"bool","numberOfBytes":"1"},"t_bytes32":{"encoding":"inplace","label":"bytes32","numberOfBytes":"32"},"t_contract(IHooks)33403":{"encoding":"inplace","label":"contract IHooks","numberOfBytes":"20"},"t_int24":{"encoding":"inplace","label":"int24","numberOfBytes":"3"},"t_mapping(t_address,t_array(t_struct(PoolKey)36149_storage)dyn_storage)":{"encoding":"mapping","key":"t_address","label":"mapping(address => struct PoolKey[])","numberOfBytes":"32","value":"t_array(t_struct(PoolKey)36149_storage)dyn_storage"},"t_mapping(t_address,t_mapping(t_bytes32,t_struct(EncryptedRebalanceOrder)87744_storage))":{"encoding":"mapping","key":"t_address","label":"mapping(address => mapping(bytes32 => struct PhantomPortfolio.EncryptedRebalanceOrder))","numberOfBytes":"32","value":"t_mapping(t_bytes32,t_struct(EncryptedRebalanceOrder)87744_storage)"},"t_mapping(t_address,t_struct(EncryptedPerformanceMetrics)87762_storage)":{"encoding":"mapping","key":"t_address","label":"mapping(address => struct PhantomPortfolio.EncryptedPerformanceMetrics)","numberOfBytes":"32","value":"t_struct(EncryptedPerformanceMetrics)87762_storage"},"t_mapping(t_address,t_struct(EncryptedPortfolio)87723_storage)":{"encoding":"mapping","key":"t_address","label":"mapping(address => struct PhantomPortfolio.EncryptedPortfolio)","numberOfBytes":"32","value":"t_struct(EncryptedPortfolio)87723_storage"},"t_mapping(t_address,t_userDefinedValueType(euint128)28)":{"encoding":"mapping","key":"t_address","label":"mapping(address => euint128)","numberOfBytes":"32","value":"t_userDefinedValueType(euint128)28"},"t_mapping(t_bytes32,t_struct(EncryptedRebalanceOrder)87744_storage)":{"encoding":"mapping","key":"t_bytes32","label":"mapping(bytes32 => struct PhantomPortfolio.EncryptedRebalanceOrder)","numberOfBytes":"32","value":"t_struct(EncryptedRebalanceOrder)87744_storage"},"t_mapping(t_userDefinedValueType(PoolId)36103,t_array(t_uint256)dyn_storage)":{"encoding":"mapping","key":"t_userDefinedValueType(PoolId)36103","label":"mapping(PoolId => uint256[])","numberOfBytes":"32","value":"t_array(t_uint256)dyn_storage"},"t_mapping(t_userDefinedValueType(PoolId)36103,t_uint256)":{"encoding":"mapping","key":"t_userDefinedValueType(PoolId)36103","label":"mapping(PoolId => uint256)","numberOfBytes":"32","value":"t_uint256"},"t_struct(EncryptedPerformanceMetrics)87762_storage":{"encoding":"inplace","label":"struct PhantomPortfolio.EncryptedPerformanceMetrics","numberOfBytes":"160","members":[{"astId":87748,"contract":"src/PhantomPortfolio.sol:PhantomPortfolio","label":"totalReturn","offset":0,"slot":"0","type":"t_userDefinedValueType(euint128)28"},{"astId":87751,"contract":"src/PhantomPortfolio.sol:PhantomPortfolio","label":"benchmarkReturn","offset":0,"slot":"1","type":"t_userDefinedValueType(euint128)28"},{"astId":87754,"contract":"src/PhantomPortfolio.sol:PhantomPortfolio","label":"activeReturn","offset":0,"slot":"2","type":"t_userDefinedValueType(euint128)28"},{"astId":87758,"contract":"src/PhantomPortfolio.sol:PhantomPortfolio","label":"assetReturns","offset":0,"slot":"3","type":"t_array(t_userDefinedValueType(euint128)28)dyn_storage"},{"astId":87761,"contract":"src/PhantomPortfolio.sol:PhantomPortfolio","label":"measurementPeriod","offset":0,"slot":"4","type":"t_userDefinedValueType(euint64)26"}]},"t_struct(EncryptedPortfolio)87723_storage":{"encoding":"inplace","label":"struct PhantomPortfolio.EncryptedPortfolio","numberOfBytes":"384","members":[{"astId":87688,"contract":"src/PhantomPortfolio.sol:PhantomPortfolio","label":"targetAllocations","offset":0,"slot":"0","type":"t_mapping(t_address,t_userDefinedValueType(euint128)28)"},{"astId":87693,"contract":"src/PhantomPortfolio.sol:PhantomPortfolio","label":"currentHoldings","offset":0,"slot":"1","type":"t_mapping(t_address,t_userDefinedValueType(euint128)28)"},{"astId":87698,"contract":"src/PhantomPortfolio.sol:PhantomPortfolio","label":"tradingLimits","offset":0,"slot":"2","type":"t_mapping(t_address,t_userDefinedValueType(euint128)28)"},{"astId":87701,"contract":"src/PhantomPortfolio.sol:PhantomPortfolio","label":"rebalanceFrequency","offset":0,"slot":"3","type":"t_userDefinedValueType(euint64)26"},{"astId":87704,"contract":"src/PhantomPortfolio.sol:PhantomPortfolio","label":"totalValue","offset":0,"slot":"4","type":"t_userDefinedValueType(euint128)28"},{"astId":87707,"contract":"src/PhantomPortfolio.sol:PhantomPortfolio","label":"toleranceBand","offset":0,"slot":"5","type":"t_userDefinedValueType(euint32)24"},{"astId":87710,"contract":"src/PhantomPortfolio.sol:PhantomPortfolio","label":"autoRebalanceEnabled","offset":0,"slot":"6","type":"t_userDefinedValueType(ebool)18"},{"astId":87713,"contract":"src/PhantomPortfolio.sol:PhantomPortfolio","label":"lastRebalance","offset":0,"slot":"7","type":"t_userDefinedValueType(euint64)26"},{"astId":87716,"contract":"src/PhantomPortfolio.sol:PhantomPortfolio","label":"tokens","offset":0,"slot":"8","type":"t_array(t_address)dyn_storage"},{"astId":87718,"contract":"src/PhantomPortfolio.sol:PhantomPortfolio","label":"isActive","offset":0,"slot":"9","type":"t_bool"},{"astId":87720,"contract":"src/PhantomPortfolio.sol:PhantomPortfolio","label":"lastRebalanceTime","offset":0,"slot":"10","type":"t_uint256"},{"astId":87722,"contract":"src/PhantomPortfolio.sol:PhantomPortfolio","label":"rebalanceFrequencySeconds","offset":0,"slot":"11","type":"t_uint256"}]},"t_struct(EncryptedRebalanceOrder)87744_storage":{"encoding":"inplace","label":"struct PhantomPortfolio.EncryptedRebalanceOrder","numberOfBytes":"224","members":[{"astId":87726,"contract":"src/PhantomPortfolio.sol:PhantomPortfolio","label":"tokenIn","offset":0,"slot":"0","type":"t_address"},{"astId":87728,"contract":"src/PhantomPortfolio.sol:PhantomPortfolio","label":"tokenOut","offset":0,"slot":"1","type":"t_address"},{"astId":87731,"contract":"src/PhantomPortfolio.sol:PhantomPortfolio","label":"amountIn","offset":0,"slot":"2","type":"t_userDefinedValueType(euint128)28"},{"astId":87734,"contract":"src/PhantomPortfolio.sol:PhantomPortfolio","label":"minAmountOut","offset":0,"slot":"3","type":"t_userDefinedValueType(euint128)28"},{"astId":87737,"contract":"src/PhantomPortfolio.sol:PhantomPortfolio","label":"executionWindow","offset":0,"slot":"4","type":"t_userDefinedValueType(euint64)26"},{"astId":87740,"contract":"src/PhantomPortfolio.sol:PhantomPortfolio","label":"priority","offset":0,"slot":"5","type":"t_userDefinedValueType(euint32)24"},{"astId":87743,"contract":"src/PhantomPortfolio.sol:PhantomPortfolio","label":"isActive","offset":0,"slot":"6","type":"t_userDefinedValueType(ebool)18"}]},"t_struct(PoolKey)36149_storage":{"encoding":"inplace","label":"struct PoolKey","numberOfBytes":"96","members":[{"astId":36134,"contract":"src/PhantomPortfolio.sol:PhantomPortfolio","label":"currency0","offset":0,"slot":"0","type":"t_userDefinedValueType(Currency)35803"},{"astId":36138,"contract":"src/PhantomPortfolio.sol:PhantomPortfolio","label":"currency1","offset":0,"slot":"1","type":"t_userDefinedValueType(Currency)35803"},{"astId":36141,"contract":"src/PhantomPortfolio.sol:PhantomPortfolio","label":"fee","offset":20,"slot":"1","type":"t_uint24"},{"astId":36144,"contract":"src/PhantomPortfolio.sol:PhantomPortfolio","label":"tickSpacing","offset":23,"slot":"1","type":"t_int24"},{"astId":36148,"contract":"src/PhantomPortfolio.sol:PhantomPortfolio","label":"hooks","offset":0,"slot":"2","type":"t_contract(IHooks)33403"}]},"t_uint24":{"encoding":"inplace","label":"uint24","numberOfBytes":"3"},"t_uint256":{"encoding":"inplace","label":"uint256","numberOfBytes":"32"},"t_userDefinedValueType(Currency)35803":{"encoding":"inplace","label":"Currency","numberOfBytes":"20"},"t_userDefinedValueType(PoolId)36103":{"encoding":"inplace","label":"PoolId","numberOfBytes":"32"},"t_userDefinedValueType(ebool)18":{"encoding":"inplace","label":"ebool","numberOfBytes":"32"},"t_userDefinedValueType(euint128)28":{"encoding":"inplace","label":"euint128","numberOfBytes":"32"},"t_userDefinedValueType(euint32)24":{"encoding":"inplace","label":"euint32","numberOfBytes":"32"},"t_userDefinedValueType(euint64)26":{"encoding":"inplace","label":"euint64","numberOfBytes":"32"}}},"id":98}