{"abi":[{"type":"constructor","inputs":[{"name":"_poolManager","type":"address","internalType":"contract IPoolManager"}],"stateMutability":"nonpayable"},{"type":"function","name":"afterAddLiquidity","inputs":[{"name":"sender","type":"address","internalType":"address"},{"name":"key","type":"tuple","internalType":"struct PoolKey","components":[{"name":"currency0","type":"address","internalType":"Currency"},{"name":"currency1","type":"address","internalType":"Currency"},{"name":"fee","type":"uint24","internalType":"uint24"},{"name":"tickSpacing","type":"int24","internalType":"int24"},{"name":"hooks","type":"address","internalType":"contract IHooks"}]},{"name":"params","type":"tuple","internalType":"struct ModifyLiquidityParams","components":[{"name":"tickLower","type":"int24","internalType":"int24"},{"name":"tickUpper","type":"int24","internalType":"int24"},{"name":"liquidityDelta","type":"int256","internalType":"int256"},{"name":"salt","type":"bytes32","internalType":"bytes32"}]},{"name":"delta","type":"int256","internalType":"BalanceDelta"},{"name":"feesAccrued","type":"int256","internalType":"BalanceDelta"},{"name":"hookData","type":"bytes","internalType":"bytes"}],"outputs":[{"name":"","type":"bytes4","internalType":"bytes4"},{"name":"","type":"int256","internalType":"BalanceDelta"}],"stateMutability":"nonpayable"},{"type":"function","name":"afterDonate","inputs":[{"name":"sender","type":"address","internalType":"address"},{"name":"key","type":"tuple","internalType":"struct PoolKey","components":[{"name":"currency0","type":"address","internalType":"Currency"},{"name":"currency1","type":"address","internalType":"Currency"},{"name":"fee","type":"uint24","internalType":"uint24"},{"name":"tickSpacing","type":"int24","internalType":"int24"},{"name":"hooks","type":"address","internalType":"contract IHooks"}]},{"name":"amount0","type":"uint256","internalType":"uint256"},{"name":"amount1","type":"uint256","internalType":"uint256"},{"name":"hookData","type":"bytes","internalType":"bytes"}],"outputs":[{"name":"","type":"bytes4","internalType":"bytes4"}],"stateMutability":"nonpayable"},{"type":"function","name":"afterInitialize","inputs":[{"name":"sender","type":"address","internalType":"address"},{"name":"key","type":"tuple","internalType":"struct PoolKey","components":[{"name":"currency0","type":"address","internalType":"Currency"},{"name":"currency1","type":"address","internalType":"Currency"},{"name":"fee","type":"uint24","internalType":"uint24"},{"name":"tickSpacing","type":"int24","internalType":"int24"},{"name":"hooks","type":"address","internalType":"contract IHooks"}]},{"name":"sqrtPriceX96","type":"uint160","internalType":"uint160"},{"name":"tick","type":"int24","internalType":"int24"}],"outputs":[{"name":"","type":"bytes4","internalType":"bytes4"}],"stateMutability":"nonpayable"},{"type":"function","name":"afterRemoveLiquidity","inputs":[{"name":"sender","type":"address","internalType":"address"},{"name":"key","type":"tuple","internalType":"struct PoolKey","components":[{"name":"currency0","type":"address","internalType":"Currency"},{"name":"currency1","type":"address","internalType":"Currency"},{"name":"fee","type":"uint24","internalType":"uint24"},{"name":"tickSpacing","type":"int24","internalType":"int24"},{"name":"hooks","type":"address","internalType":"contract IHooks"}]},{"name":"params","type":"tuple","internalType":"struct ModifyLiquidityParams","components":[{"name":"tickLower","type":"int24","internalType":"int24"},{"name":"tickUpper","type":"int24","internalType":"int24"},{"name":"liquidityDelta","type":"int256","internalType":"int256"},{"name":"salt","type":"bytes32","internalType":"bytes32"}]},{"name":"delta","type":"int256","internalType":"BalanceDelta"},{"name":"feesAccrued","type":"int256","internalType":"BalanceDelta"},{"name":"hookData","type":"bytes","internalType":"bytes"}],"outputs":[{"name":"","type":"bytes4","internalType":"bytes4"},{"name":"","type":"int256","internalType":"BalanceDelta"}],"stateMutability":"nonpayable"},{"type":"function","name":"afterSwap","inputs":[{"name":"sender","type":"address","internalType":"address"},{"name":"key","type":"tuple","internalType":"struct PoolKey","components":[{"name":"currency0","type":"address","internalType":"Currency"},{"name":"currency1","type":"address","internalType":"Currency"},{"name":"fee","type":"uint24","internalType":"uint24"},{"name":"tickSpacing","type":"int24","internalType":"int24"},{"name":"hooks","type":"address","internalType":"contract IHooks"}]},{"name":"params","type":"tuple","internalType":"struct SwapParams","components":[{"name":"zeroForOne","type":"bool","internalType":"bool"},{"name":"amountSpecified","type":"int256","internalType":"int256"},{"name":"sqrtPriceLimitX96","type":"uint160","internalType":"uint160"}]},{"name":"delta","type":"int256","internalType":"BalanceDelta"},{"name":"hookData","type":"bytes","internalType":"bytes"}],"outputs":[{"name":"","type":"bytes4","internalType":"bytes4"},{"name":"","type":"int128","internalType":"int128"}],"stateMutability":"nonpayable"},{"type":"function","name":"beforeAddLiquidity","inputs":[{"name":"sender","type":"address","internalType":"address"},{"name":"key","type":"tuple","internalType":"struct PoolKey","components":[{"name":"currency0","type":"address","internalType":"Currency"},{"name":"currency1","type":"address","internalType":"Currency"},{"name":"fee","type":"uint24","internalType":"uint24"},{"name":"tickSpacing","type":"int24","internalType":"int24"},{"name":"hooks","type":"address","internalType":"contract IHooks"}]},{"name":"params","type":"tuple","internalType":"struct ModifyLiquidityParams","components":[{"name":"tickLower","type":"int24","internalType":"int24"},{"name":"tickUpper","type":"int24","internalType":"int24"},{"name":"liquidityDelta","type":"int256","internalType":"int256"},{"name":"salt","type":"bytes32","internalType":"bytes32"}]},{"name":"hookData","type":"bytes","internalType":"bytes"}],"outputs":[{"name":"","type":"bytes4","internalType":"bytes4"}],"stateMutability":"nonpayable"},{"type":"function","name":"beforeDonate","inputs":[{"name":"sender","type":"address","internalType":"address"},{"name":"key","type":"tuple","internalType":"struct PoolKey","components":[{"name":"currency0","type":"address","internalType":"Currency"},{"name":"currency1","type":"address","internalType":"Currency"},{"name":"fee","type":"uint24","internalType":"uint24"},{"name":"tickSpacing","type":"int24","internalType":"int24"},{"name":"hooks","type":"address","internalType":"contract IHooks"}]},{"name":"amount0","type":"uint256","internalType":"uint256"},{"name":"amount1","type":"uint256","internalType":"uint256"},{"name":"hookData","type":"bytes","internalType":"bytes"}],"outputs":[{"name":"","type":"bytes4","internalType":"bytes4"}],"stateMutability":"nonpayable"},{"type":"function","name":"beforeInitialize","inputs":[{"name":"sender","type":"address","internalType":"address"},{"name":"key","type":"tuple","internalType":"struct PoolKey","components":[{"name":"currency0","type":"address","internalType":"Currency"},{"name":"currency1","type":"address","internalType":"Currency"},{"name":"fee","type":"uint24","internalType":"uint24"},{"name":"tickSpacing","type":"int24","internalType":"int24"},{"name":"hooks","type":"address","internalType":"contract IHooks"}]},{"name":"sqrtPriceX96","type":"uint160","internalType":"uint160"}],"outputs":[{"name":"","type":"bytes4","internalType":"bytes4"}],"stateMutability":"nonpayable"},{"type":"function","name":"beforeRemoveLiquidity","inputs":[{"name":"sender","type":"address","internalType":"address"},{"name":"key","type":"tuple","internalType":"struct PoolKey","components":[{"name":"currency0","type":"address","internalType":"Currency"},{"name":"currency1","type":"address","internalType":"Currency"},{"name":"fee","type":"uint24","internalType":"uint24"},{"name":"tickSpacing","type":"int24","internalType":"int24"},{"name":"hooks","type":"address","internalType":"contract IHooks"}]},{"name":"params","type":"tuple","internalType":"struct ModifyLiquidityParams","components":[{"name":"tickLower","type":"int24","internalType":"int24"},{"name":"tickUpper","type":"int24","internalType":"int24"},{"name":"liquidityDelta","type":"int256","internalType":"int256"},{"name":"salt","type":"bytes32","internalType":"bytes32"}]},{"name":"hookData","type":"bytes","internalType":"bytes"}],"outputs":[{"name":"","type":"bytes4","internalType":"bytes4"}],"stateMutability":"nonpayable"},{"type":"function","name":"beforeSwap","inputs":[{"name":"sender","type":"address","internalType":"address"},{"name":"key","type":"tuple","internalType":"struct PoolKey","components":[{"name":"currency0","type":"address","internalType":"Currency"},{"name":"currency1","type":"address","internalType":"Currency"},{"name":"fee","type":"uint24","internalType":"uint24"},{"name":"tickSpacing","type":"int24","internalType":"int24"},{"name":"hooks","type":"address","internalType":"contract IHooks"}]},{"name":"params","type":"tuple","internalType":"struct SwapParams","components":[{"name":"zeroForOne","type":"bool","internalType":"bool"},{"name":"amountSpecified","type":"int256","internalType":"int256"},{"name":"sqrtPriceLimitX96","type":"uint160","internalType":"uint160"}]},{"name":"hookData","type":"bytes","internalType":"bytes"}],"outputs":[{"name":"","type":"bytes4","internalType":"bytes4"},{"name":"","type":"int256","internalType":"BeforeSwapDelta"},{"name":"","type":"uint24","internalType":"uint24"}],"stateMutability":"nonpayable"},{"type":"function","name":"getHookPermissions","inputs":[],"outputs":[{"name":"","type":"tuple","internalType":"struct Hooks.Permissions","components":[{"name":"beforeInitialize","type":"bool","internalType":"bool"},{"name":"afterInitialize","type":"bool","internalType":"bool"},{"name":"beforeAddLiquidity","type":"bool","internalType":"bool"},{"name":"afterAddLiquidity","type":"bool","internalType":"bool"},{"name":"beforeRemoveLiquidity","type":"bool","internalType":"bool"},{"name":"afterRemoveLiquidity","type":"bool","internalType":"bool"},{"name":"beforeSwap","type":"bool","internalType":"bool"},{"name":"afterSwap","type":"bool","internalType":"bool"},{"name":"beforeDonate","type":"bool","internalType":"bool"},{"name":"afterDonate","type":"bool","internalType":"bool"},{"name":"beforeSwapReturnDelta","type":"bool","internalType":"bool"},{"name":"afterSwapReturnDelta","type":"bool","internalType":"bool"},{"name":"afterAddLiquidityReturnDelta","type":"bool","internalType":"bool"},{"name":"afterRemoveLiquidityReturnDelta","type":"bool","internalType":"bool"}]}],"stateMutability":"pure"},{"type":"function","name":"performanceMetrics","inputs":[{"name":"","type":"address","internalType":"address"}],"outputs":[{"name":"totalReturn","type":"uint256","internalType":"euint128"},{"name":"benchmarkReturn","type":"uint256","internalType":"euint128"},{"name":"activeReturn","type":"uint256","internalType":"euint128"},{"name":"measurementPeriod","type":"uint256","internalType":"euint64"}],"stateMutability":"view"},{"type":"function","name":"poolActiveAuctions","inputs":[{"name":"","type":"bytes32","internalType":"PoolId"},{"name":"","type":"uint256","internalType":"uint256"}],"outputs":[{"name":"","type":"uint256","internalType":"uint256"}],"stateMutability":"view"},{"type":"function","name":"poolAuctionCount","inputs":[{"name":"","type":"bytes32","internalType":"PoolId"}],"outputs":[{"name":"","type":"uint256","internalType":"uint256"}],"stateMutability":"view"},{"type":"function","name":"poolManager","inputs":[],"outputs":[{"name":"","type":"address","internalType":"contract IPoolManager"}],"stateMutability":"view"},{"type":"function","name":"portfolioCounter","inputs":[],"outputs":[{"name":"","type":"uint256","internalType":"uint256"}],"stateMutability":"view"},{"type":"function","name":"portfolioPools","inputs":[{"name":"","type":"address","internalType":"address"},{"name":"","type":"uint256","internalType":"uint256"}],"outputs":[{"name":"currency0","type":"address","internalType":"Currency"},{"name":"currency1","type":"address","internalType":"Currency"},{"name":"fee","type":"uint24","internalType":"uint24"},{"name":"tickSpacing","type":"int24","internalType":"int24"},{"name":"hooks","type":"address","internalType":"contract IHooks"}],"stateMutability":"view"},{"type":"function","name":"portfolios","inputs":[{"name":"","type":"address","internalType":"address"}],"outputs":[{"name":"rebalanceFrequency","type":"uint256","internalType":"euint64"},{"name":"totalValue","type":"uint256","internalType":"euint128"},{"name":"toleranceBand","type":"uint256","internalType":"euint32"},{"name":"autoRebalanceEnabled","type":"uint256","internalType":"ebool"},{"name":"lastRebalance","type":"uint256","internalType":"euint64"},{"name":"isActive","type":"bool","internalType":"bool"},{"name":"lastRebalanceTime","type":"uint256","internalType":"uint256"},{"name":"rebalanceFrequencySeconds","type":"uint256","internalType":"uint256"}],"stateMutability":"view"},{"type":"function","name":"rebalanceOrders","inputs":[{"name":"","type":"address","internalType":"address"},{"name":"","type":"bytes32","internalType":"bytes32"}],"outputs":[{"name":"tokenIn","type":"address","internalType":"address"},{"name":"tokenOut","type":"address","internalType":"address"},{"name":"amountIn","type":"uint256","internalType":"euint128"},{"name":"minAmountOut","type":"uint256","internalType":"euint128"},{"name":"executionWindow","type":"uint256","internalType":"euint64"},{"name":"priority","type":"uint256","internalType":"euint32"},{"name":"isActive","type":"uint256","internalType":"ebool"}],"stateMutability":"view"},{"type":"function","name":"setupPhantomPortfolio","inputs":[{"name":"tokens","type":"address[]","internalType":"address[]"},{"name":"targetAllocations","type":"tuple[]","internalType":"struct InEuint128[]","components":[{"name":"ctHash","type":"uint256","internalType":"uint256"},{"name":"securityZone","type":"uint8","internalType":"uint8"},{"name":"utype","type":"uint8","internalType":"uint8"},{"name":"signature","type":"bytes","internalType":"bytes"}]},{"name":"tradingLimits","type":"tuple[]","internalType":"struct InEuint128[]","components":[{"name":"ctHash","type":"uint256","internalType":"uint256"},{"name":"securityZone","type":"uint8","internalType":"uint8"},{"name":"utype","type":"uint8","internalType":"uint8"},{"name":"signature","type":"bytes","internalType":"bytes"}]},{"name":"rebalanceFrequency","type":"tuple","internalType":"struct InEuint64","components":[{"name":"ctHash","type":"uint256","internalType":"uint256"},{"name":"securityZone","type":"uint8","internalType":"uint8"},{"name":"utype","type":"uint8","internalType":"uint8"},{"name":"signature","type":"bytes","internalType":"bytes"}]},{"name":"toleranceBand","type":"tuple","internalType":"struct InEuint32","components":[{"name":"ctHash","type":"uint256","internalType":"uint256"},{"name":"securityZone","type":"uint8","internalType":"uint8"},{"name":"utype","type":"uint8","internalType":"uint8"},{"name":"signature","type":"bytes","internalType":"bytes"}]}],"outputs":[],"stateMutability":"nonpayable"},{"type":"function","name":"triggerRebalance","inputs":[{"name":"portfolioOwner","type":"address","internalType":"address"}],"outputs":[],"stateMutability":"nonpayable"},{"type":"event","name":"OrderExecuted","inputs":[{"name":"owner","type":"address","indexed":true,"internalType":"address"},{"name":"tokenIn","type":"address","indexed":false,"internalType":"address"},{"name":"tokenOut","type":"address","indexed":false,"internalType":"address"},{"name":"amount","type":"uint256","indexed":false,"internalType":"euint128"},{"name":"timestamp","type":"uint256","indexed":false,"internalType":"uint256"}],"anonymous":false},{"type":"event","name":"PerformanceUpdated","inputs":[{"name":"owner","type":"address","indexed":true,"internalType":"address"},{"name":"portfolioId","type":"uint256","indexed":true,"internalType":"uint256"},{"name":"timestamp","type":"uint256","indexed":false,"internalType":"uint256"}],"anonymous":false},{"type":"event","name":"PhantomPortfolioCreated","inputs":[{"name":"owner","type":"address","indexed":true,"internalType":"address"},{"name":"portfolioId","type":"uint256","indexed":true,"internalType":"uint256"},{"name":"tokenCount","type":"uint256","indexed":false,"internalType":"uint256"},{"name":"timestamp","type":"uint256","indexed":false,"internalType":"uint256"}],"anonymous":false},{"type":"event","name":"PortfolioRebalanced","inputs":[{"name":"owner","type":"address","indexed":true,"internalType":"address"},{"name":"portfolioId","type":"uint256","indexed":true,"internalType":"uint256"},{"name":"tradeCount","type":"uint256","indexed":false,"internalType":"uint256"},{"name":"timestamp","type":"uint256","indexed":false,"internalType":"uint256"}],"anonymous":false},{"type":"event","name":"RebalanceOrderExecuted","inputs":[{"name":"owner","type":"address","indexed":true,"internalType":"address"},{"name":"orderId","type":"bytes32","indexed":true,"internalType":"bytes32"},{"name":"tokenIn","type":"address","indexed":false,"internalType":"address"},{"name":"tokenOut","type":"address","indexed":false,"internalType":"address"},{"name":"timestamp","type":"uint256","indexed":false,"internalType":"uint256"}],"anonymous":false},{"type":"error","name":"HookNotImplemented","inputs":[]},{"type":"error","name":"InvalidEncryptedInput","inputs":[{"name":"got","type":"uint8","internalType":"uint8"},{"name":"expected","type":"uint8","internalType":"uint8"}]},{"type":"error","name":"InvalidParameters","inputs":[]},{"type":"error","name":"NotManager","inputs":[]},{"type":"error","name":"NotPoolManager","inputs":[]},{"type":"error","name":"NotPortfolioOwner","inputs":[]},{"type":"error","name":"PortfolioNotFound","inputs":[]},{"type":"error","name":"RebalanceNotNeeded","inputs":[]},{"type":"error","name":"ReentrancyGuardReentrantCall","inputs":[]},{"type":"error","name":"SecurityZoneOutOfBounds","inputs":[{"name":"value","type":"int32","internalType":"int32"}]}],"bytecode":{"object":"0x60a06040523461027a57604051601f612f3838819003918201601f19168301916001600160401b0383118484101761027e5780849260209460405283398101031261027a57516001600160a01b038116810361027a576080525f6101a0610064610292565b8281528260208201528260408201528260608201528260808201528260a08201528260c08201528260e0820152826101008201528261012082015282610140820152826101608201528261018082015201525f6101a06100c2610292565b8281528260208201528260408201528260608201528260808201528260a0820152600160c0820152600160e08201528261010082015282610120820152826101408201528261016082015282610180820152015261200030161580159061026d575b8015610260575b8015610253575b8015610246575b8015610239575b8015610229575b8015610219575b801561020d575b8015610201575b80156101f5575b80156101e9575b80156101dd575b80156101d1575b6101be57604051612c8590816102b3823960805181818161015d015281816101df01528181610231015281816115a8015281816116ae01528181611e360152611ed10152f35b630732d7b560e51b5f523060045260245ffd5b50600130161515610178565b50600230161515610171565b5060043016151561016a565b50600830161515610163565b5060103016151561015c565b50602030161515610155565b506040301615156001141561014e565b5060803016151560011415610147565b5061010030161515610140565b5061020030161515610139565b5061040030161515610132565b506108003016151561012b565b5061100030161515610124565b5f80fd5b634e487b7160e01b5f52604160045260245ffd5b604051906101c082016001600160401b0381118382101761027e5760405256fe60806040526004361015610011575f80fd5b5f3560e01c806321d0ee7014611ebe578063259982e514611ebe578063337099b114611e94578063575e24b414611de1578063599ccaaa14611d4c5780636badc4e6146117d25780636c2bbe7e1461169b5780636fe7e6eb1461179a5780637baab3da1461170e57806392eb9c0c146116f15780639f063efc1461169b578063b47b2fb11461154d578063b6854732146114f3578063b6a8b0fa1461014a578063c2db356b1461045f578063c4e833ce146102f9578063d445ab5a14610260578063dc4c90d31461021c578063dc98354e146101ae578063e1b4af691461014a5763e36496dc14610100575f80fd5b34610146576040366003190112610146576024356004355f52600460205260405f208054821015610146576020916101379161210f565b90549060031b1c604051908152f35b5f80fd5b34610146576101583661208b565b5050507f00000000000000000000000000000000000000000000000000000000000000006001600160a01b03163303925061019f91505057630a85dc2960e01b5f5260045ffd5b63570c108560e11b5f5260045ffd5b346101465760e0366003190112610146576101c7611f12565b5060a0366023190112610146576101dc612065565b507f00000000000000000000000000000000000000000000000000000000000000006001600160a01b0316330361019f57630a85dc2960e01b5f5260045ffd5b34610146575f366003190112610146576040517f00000000000000000000000000000000000000000000000000000000000000006001600160a01b03168152602090f35b3461014657604036600319011261014657610279611f12565b6001600160a01b03165f908152600260205260409020805460243591908210156101465760a0916102a9916120e2565b50600180831b03815416906001810154906002600180861b039101541690604051928352600180851b038116602084015262ffffff81851c16604084015260b81c60020b60608301526080820152f35b34610146575f366003190112610146575f6101a0604051610319816121f7565b8281528260208201528260408201528260608201528260808201528260a08201528260c08201528260e0820152826101008201528261012082015282610140820152826101608201528261018082015201526101c0602060405161037c816121f7565b5f8152818101905f8252604081015f8152606082015f8152608083015f815260a084015f815260c085016001815260e0860190600182526101008701925f84526101208801945f86526101408901965f88526101608a01985f8a526101a06101808c019b5f8d52019b5f8d526040519d8e915f835251151591015251151560408d015251151560608c015251151560808b015251151560a08a015251151560c089015251151560e08801525115156101008701525115156101208601525115156101408501525115156101608401525115156101808301525115156101a0820152f35b3461014657602036600319011261014657610478611f12565b6001600160a01b03811633036114e45760018060a01b0381165f525f60205260405f209060ff600983015416156114a857600a820154600b830154810180911161102f5742111561149957906008810154916104d3836122ff565b926104e16040519485612213565b808452601f196104f0826122ff565b015f5b818110611452575050610505816124d3565b9161050f826124d3565b610518836124d3565b9260028601600187015f5b83811061139c5750505050600585015490845194610540866122ff565b9561054e6040519788612213565b80875261055d601f19916122ff565b0136602088013760409760209560609591905f5b84518110156107c6576105996105878287612532565b516105928389612532565b5190612ab6565b908c8a602061061783516105ad8582612213565b600181528336848301378c6105c182612505565b528451936105cf8686612213565b60018552368486013760066105e385612505565b5261062985519485938493631888debd60e01b855260066004860152600260248601526080604486015260848501906127b8565b838103600319016064850152906127b8565b03815f73ea30c4b8b44078bbf8a6ef5b9f1ec1626c7848d95af19081156107bc575f91610786575b509261067a846106756106676106ed9785612b4d565b936106706129bb565b612ab6565b612b4d565b8115610774575b8015610764575b8251916106958d84612213565b60028352601f198d013660208501376106ad83612505565b526106b782612512565b5260209182918151916106ca8484612213565b5f83525f36813751631888debd60e01b81529586928392600b5f60048601612820565b03815f73ea30c4b8b44078bbf8a6ef5b9f1ec1626c7848d95af190811561075a575f9161072b575b5060019250610724828d612532565b5201610571565b905082813d8311610753575b6107418183612213565b8101031261014657600191518e610715565b503d610737565b8e513d5f823e3d90fd5b5061076f6001612864565b610688565b90506107806001612864565b90610681565b9150506020813d82116107b4575b816107a160209383612213565b8101031261014657518d9061067a610651565b3d9150610794565b82513d5f823e3d90fd5b50889287918b878e976004830154926107df82516124d3565b976080965f5b8451811015610a2b578c906108866108148961080f610804858b612532565b51610592868d612532565b612640565b602093848d82516108258382612213565b5f81525f3681378351916108398184612213565b60038352601f1901368484013761271061085283612505565b52600661085e83612512565b525f61086983612522565b528351631888debd60e01b815295869283926006600485016127eb565b03815f73ea30c4b8b44078bbf8a6ef5b9f1ec1626c7848d95af1918215610a21578c8f9193879487965f926109db575b50956108ca8261093f986108d09450612721565b92612532565b519080156109cd575b81156109bd575b8351926108ed8185612213565b60028452601f1901368685013761090383612505565b5261090d82612512565b5281519161091b8484612213565b5f83525f36813751631888debd60e01b815293849283926016600660048601612820565b03815f73ea30c4b8b44078bbf8a6ef5b9f1ec1626c7848d95af19081156109b3578d935f9261097e575b505061097782600194612532565b52016107e5565b8194508092503d83116109ac575b6109968183612213565b810103126101465790518b919061097782610969565b503d61098c565b8f513d5f823e3d90fd5b90506109c76129bb565b906108e0565b506109d66129bb565b6108d9565b965094935050505082813d8311610a1a575b6109f78183612213565b81010312610146578f8d8c6108d0866108ca899661093f985193509197506108b6565b503d6109ed565b50513d5f823e3d90fd5b508b898c8a8d888a5f5b60088b0154811015610da657610a4b8187612532565b50610a568183612532565b50610a618184612532565b50610a6f8160088d0161210f565b905460039190911b1c6001600160a01b0316610a8b8286612532565b5190602091610b01838c8051610aa18382612213565b5f81525f368137815191610ab58d84612213565b60038352601f198d0136858501376063610ace84612505565b526006610ada84612512565b525f610ae584612522565b5251631888debd60e01b815293849283926006600485016127eb565b03815f73ea30c4b8b44078bbf8a6ef5b9f1ec1626c7848d95af1908115610d6d575f91610d77575b50610ba691610b389190612640565b838c8051610b468382612213565b5f81525f368137815191610b5a8d84612213565b60038352601f198d0136858501376064610b7384612505565b526006610b7f84612512565b525f610b8a84612522565b5251631888debd60e01b815294859283926006600485016127eb565b03815f73ea30c4b8b44078bbf8a6ef5b9f1ec1626c7848d95af1918215610d6d578f858b8f949589968d955f92610d20575b50610c6397610bee83610bf49360039550612721565b96612532565b5193015494805190610c068483612213565b5f82525f368137805192610c1a8185612213565b60038452601f190136858501378a610c3184612505565b526004610c3d84612512565b525f610c4884612522565b5251631888debd60e01b8152968792839260048085016127eb565b03815f73ea30c4b8b44078bbf8a6ef5b9f1ec1626c7848d95af193841561075a57908e8d989796959493925f95610ce7575b50610ca28860019a612532565b5195815197610cb0896121c1565b5f89528801528601528c8501528984015260a083015260c0820152610cd5828d612532565b52610ce0818c612532565b5001610a35565b94505096508483813d8311610d19575b610d018183612213565b810103126101465791518b969092908e610ca2610c95565b503d610cf7565b9750955050508092508491503d8311610d66575b610d3e8183612213565b8101031261014657878f858b8f94610bf48a610bee600393610c639a51945092505097610bd8565b503d610d34565b8c513d5f823e3d90fd5b90508381813d8311610d9f575b610d8e8183612213565b810103126101465751610ba6610b29565b503d610d84565b898989898860018060a01b0384165f525f602052825f20610dc6426128d5565b6007820155600a4291015560018060a01b0384165f526002602052610ded835f20546124d3565b915f935b8651851015610f4b576001600160a01b03610e0c8689612532565b515116610e57610e656001600160a01b036020610e298a8d612532565b51015185516001600160a01b0395861660208201908152929091169094166040850152929182906060820190565b03601f198101835282612213565b519020925f5b6001600160a01b0388165f908152600260205283902054811015610f3e5760018060a01b0388165f526002602052610ea581845f206120e2565b50835181546001600160a01b039081166020830190815260018401548083168489015260a081811c62ffffff168a86015260b89190911c600290810b888601529094015490911683830152918152610efe60c082612213565b5190208514610f0f57600101610e6b565b6001929896919450610f34610f2d610f278389612532565b51612176565b9187612532565b525b019395610df1565b5092509593600190610f36565b9086869392610f5a86516124d3565b935f5b8751811015610f7b578080610f7460019389612532565b5201610f5d565b50949291905f955b85515f19810190811161102f5787101561104f575f5b865188810390811161102f575f19810190811161102f5781101561104357610fcb610fc48289612532565b518a612532565b51906001810180821161102f57600192610fef610fe8838c612532565b518d612532565b5111610ffd575b5001610f99565b61102861100a838b612532565b5191611016818c612532565b51611021858d612532565b528a612532565b528a610ff6565b634e487b7160e01b5f52601160045260245ffd5b50600190960195610f83565b859488945f5b8751811015611285576110688189612532565b516110738189612532565b51611082575b50600101611055565b6110a39060018060a09b99949a9b1b0385165f526002602052865f206120e2565b5085516110af816121dc565b81546001600160a01b03908116825260018301548082166020840190815260a082901c62ffffff168a850190815260b89290921c600290810b88860190815295015490921688840190815293999093905f5b8651811015611272576001908c8c6001600160a01b03611121848c612532565b515116610e5761113d8c6020610e29888a8060a01b0393612532565b519020918d8251916020830193878060a01b038c51168552878060a01b038b5116908401528d62ffffff8d5116908401525160020b90820152848060a01b0387511660a082015260a0815261119360c082612213565b519020146111a2575b01611101565b6111ac8189612532565b51828060a01b038b165f525f60205260028d5f2001838060a01b03825116848060a01b03165f526020528c805f20546111f7828401918251908015611264575b811561125457612be4565b50848060a01b03835116926020868060a01b03910151169051915192835260208301528d820152428a8201527f86c0423c36deca771c6cc9ba80ebe7e4e528198205dab05dd3024be8cd8fb8dc8c848060a01b038d1692a261119c565b905061125e6129bb565b90612be4565b5061126d6129bb565b6111ec565b509b9a9350505050600191965090611079565b5081811b6bffffffffffffffffffffffff19169392905f5b865181101561135a5760019085516020810190888252826034820152426054820152605481526112ce607482612213565b5190206112db828a612532565b5160a084811b8590038881165f90815260208781528b82209582529485528a9020835181549083166001600160a01b0319918216178255948401518188018054919093169516949094179055888201516002840155858201516003840155868201516004840155810151600583015560c001516006909101550161129d565b600654875186519081524260208201526001600160a01b038616907feea0ca0837bac590bc1df36a96431b06d6e8c95770315159e0545eef0f464258908890a3005b806113ae60019260088c999c0161210f565b838060a01b0391549060031b1c16828060a01b03165f528660205260405f20546113d8828b612532565b526113e6816008890161210f565b838060a01b0391549060031b1c16828060a01b03165f528260205260405f20546114108288612532565b5261141e816008890161210f565b838060a01b0391549060031b1c16828060a01b03165f528360205260405f2054611448828a612532565b5201979497610523565b602090604095949551611464816121c1565b5f81525f838201525f60408201525f60608201525f60808201525f60a08201525f60c0820152828289010152019392936104f3565b635121f34360e01b5f5260045ffd5b60405162461bcd60e51b8152602060048201526014602482015273506f7274666f6c696f206e6f742061637469766560601b6044820152606490fd5b6321c26d5960e11b5f5260045ffd5b34610146576020366003190112610146576001600160a01b03611514611f12565b165f526005602052608060405f208054906001810154906004600282015491015491604051938452602084015260408301526060820152f35b346101465761016036600319011261014657611567611f12565b5060a03660231901126101465760603660c31901126101465761012435610144356001600160401b038111610146576115a4903690600401611f3c565b50507f00000000000000000000000000000000000000000000000000000000000000006001600160a01b0316330361019f5761161b906115e336612316565b506116166116106fffffffffffffffffffffffffffffffff611609818560801d16612948565b9316612948565b91612a74565b612a74565b60065480604051600281524260208201527feea0ca0837bac590bc1df36a96431b06d6e8c95770315159e0545eef0f46425860403392a3604051600381524260208201527feea0ca0837bac590bc1df36a96431b06d6e8c95770315159e0545eef0f46425860403392a36040805163b47b2fb160e01b81525f6020820152f35b34610146576116a936611ffc565b5050507f00000000000000000000000000000000000000000000000000000000000000006001600160a01b03163303935061019f9250505057630a85dc2960e01b5f5260045ffd5b34610146575f366003190112610146576020600654604051908152f35b34610146576020366003190112610146576001600160a01b0361172f611f12565b165f525f60205261010060405f206003810154906004810154906005810154600682015460078301549060ff60098501541692600b600a860154950154956040519788526020880152604087015260608601526080850152151560a084015260c083015260e0820152f35b3461014657610100366003190112610146576117b4611f12565b5060a0366023190112610146576117c9612065565b506101dc61207b565b346101465760a0366003190112610146576004356001600160401b03811161014657611802903690600401611fcc565b906024356001600160401b03811161014657611822903690600401611fcc565b906044356001600160401b03811161014657611842903690600401611fcc565b929091606435916001600160401b038311610146576080600319843603011261014657608435936001600160401b038511610146576080600319863603011261014657611890828914612124565b61189b868914612124565b8715611d1457335f525f60205260405f2095600887016001600160401b038a11611d0057680100000000000000008a11611d005780548a8255808b10611cda575b5088949394905f5260205f20905f5b8b8110611cb95750505060098701600160ff1982541617905561190f600654612176565b60065560028701925f5b898b8a818410611c385782908b6119333660048e01612242565b60ff60408201511660058103611c2157509061198b61199a92611954612546565b50805190606060ff6020830151169101519060405192611973846121a6565b8352602083015260056040830152606082015261256a565b60038401553690600401612242565b60ff60408201511660048103611c0a57506119ee906119b7612546565b50805190606060ff60208301511691015190604051926119d6846121a6565b8352602083015260046040830152606082015261256a565b60058201556119fd6001612864565b60068201556007611a0d426128d5565b910155611a19826122ff565b90611a276040519283612213565b828252602082018360051b82019136831161014657905b828210611bf2578385335f525f60205260405f2091611a5d81516124d3565b92611a6882516124d3565b9160028201915f5b8251811015611ae2576001906001600160a01b03611a8e8286612532565b5116828060a01b03165f528260205260405f2054611aac828a612532565b52818060a01b03611abd8286612532565b5116828060a01b03165f528460205260405f2054611adb8288612532565b5201611a70565b50915060056003830154920154935f5b8651811015611b2657600190611b1233611b0c838b612532565b516129f9565b611b2033611b0c8389612532565b01611af2565b50909193611b3433866129f9565b611b3e33826129f9565b5f5b8651811015611b725780611b5f611b596001938a612532565b51612a74565b611b6c611b598288612532565b01611b40565b50611b81849161161687612a74565b5f5b8351811015611bbb5780611bb5611b9c60019385612532565b51838060a01b03611bad8489612532565b5116906129f9565b01611b83565b6006546040805185815242602082015233917f209ce749f3f17aed82146c9bf9c292728cd862ce0d0aee0f7224890225a49d0391a3005b60208091611bff84611f28565b815201910190611a3e565b6367cf307160e01b5f52600452600460245260445ffd5b6367cf307160e01b5f52600452600560245260445ffd5b611c7284809493611ca193611c63611c5e8a8f60019b611c59913693612184565b612242565b612465565b90611c77611c7285858a6122ef565b612162565b898060a01b03165f5260205260405f2055611c9b611c5e8b611c59858d3693612184565b946122ef565b838060a01b03165f528660205260405f205501611919565b6001906020611cca84999899612162565b93019281850155019594956118eb565b815f528a60205f2091820191015b818110611cf557506118dc565b5f8155600101611ce8565b634e487b7160e01b5f52604160045260245ffd5b60405162461bcd60e51b815260206004820152601060248201526f115b5c1d1e481d1bdad95b881b1a5cdd60821b6044820152606490fd5b34610146576040366003190112610146576001600160a01b03611d6d611f12565b165f52600160205260405f206024355f5260205260e060405f2060018060a01b038154169060018060a01b0360018201541690600281015460038201546004830154916006600585015494015494604051968752602087015260408601526060850152608084015260a083015260c0820152f35b346101465761014036600319011261014657611dfb611f12565b5060a03660231901126101465760603660c319011261014657610124356001600160401b03811161014657611e34903690600401611f3c565b7f00000000000000000000000000000000000000000000000000000000000000006001600160a01b0316330361019f57611e7462ffffff9160609361241c565b906040939293519363ffffffff60e01b1684526020840152166040820152f35b34610146576020366003190112610146576004355f526003602052602060405f2054604051908152f35b3461014657611ecc36611f69565b5050507f00000000000000000000000000000000000000000000000000000000000000006001600160a01b03163303915061019f905057630a85dc2960e01b5f5260045ffd5b600435906001600160a01b038216820361014657565b35906001600160a01b038216820361014657565b9181601f84011215610146578235916001600160401b038311610146576020838186019501011161014657565b90610160600319830112610146576004356001600160a01b0381168103610146579160a060231982011261014657602491608060c3198301126101465760c49161014435906001600160401b03821161014657611fc891600401611f3c565b9091565b9181601f84011215610146578235916001600160401b038311610146576020808501948460051b01011161014657565b906101a0600319830112610146576004356001600160a01b0381168103610146579160a060231982011261014657602491608060c3198301126101465760c4916101443591610164359161018435906001600160401b03821161014657611fc891600401611f3c565b60c435906001600160a01b038216820361014657565b60e435908160020b820361014657565b610120600319820112610146576004356001600160a01b0381168103610146579160a06023198301126101465760249160c4359160e4359161010435906001600160401b03821161014657611fc891600401611f3c565b80548210156120fb575f52600360205f20910201905f90565b634e487b7160e01b5f52603260045260245ffd5b80548210156120fb575f5260205f2001905f90565b1561212b57565b60405162461bcd60e51b815260206004820152600f60248201526e098cadccee8d040dad2e6dac2e8c6d608b1b6044820152606490fd5b356001600160a01b03811681036101465790565b5f19811461102f5760010190565b91908110156120fb5760051b81013590607e1981360301821215610146570190565b608081019081106001600160401b03821117611d0057604052565b60e081019081106001600160401b03821117611d0057604052565b60a081019081106001600160401b03821117611d0057604052565b6101c081019081106001600160401b03821117611d0057604052565b90601f801991011681019081106001600160401b03821117611d0057604052565b359060ff8216820361014657565b91906080838203126101465760405161225a816121a6565b80938035825261226c60208201612234565b602083015261227d60408201612234565b60408301526060810135906001600160401b03821161014657019082601f830112156101465781356001600160401b038111611d0057604051936122cb601f8301601f191660200186612213565b81855260208285010111610146576020815f92826060960183880137850101520152565b91908110156120fb5760051b0190565b6001600160401b038111611d005760051b60200190565b60a0906023190112610146576040519061232f826121dc565b816024356001600160a01b03811681036101465781526044356001600160a01b038116810361014657602082015260643562ffffff811681036101465760408201526084358060020b810361014657606082015260a435906001600160a01b03821682036101465760800152565b91908260a0910312610146576040516123b5816121dc565b80926123c081611f28565b82526123ce60208201611f28565b6020830152604081013562ffffff811681036101465760408301526060810135908160020b820361014657606083019190915260800135906001600160a01b03821682036101465760800152565b5061242836602461239d565b506124565760405161243b602082612213565b5f81525f36813751612456576315d7892d60e21b905f908190565b6315d7892d60e21b905f908190565b60ff604082015116600681036124bc57506124b990612482612546565b50805190606060ff60208301511691015190604051926124a1846121a6565b8352602083015260066040830152606082015261256a565b90565b6367cf307160e01b5f52600452600660245260445ffd5b906124dd826122ff565b6124ea6040519182612213565b82815280926124fb601f19916122ff565b0190602036910137565b8051156120fb5760200190565b8051600110156120fb5760400190565b8051600210156120fb5760600190565b80518210156120fb5760209160051b010190565b60405190612553826121a6565b606080835f81525f60208201525f60408201520152565b6020606060e4829360405194859384926313fce3b160e11b8452604060048501528051604485015260ff8382015116606485015260ff60408201511660848501520151608060a484015280519182918260c4860152018484015e5f838284010152336024830152601f801991011681010301815f73ea30c4b8b44078bbf8a6ef5b9f1ec1626c7848d95af1908115612635575f91612606575090565b90506020813d60201161262d575b8161262160209383612213565b81010312610146575190565b3d9150612614565b6040513d5f823e3d90fd5b908115612711575b8015612703575b6040519161265e606084612213565b60028352604036602085013761267383612505565b5261267d82612512565b526126b960208092604051906126938383612213565b5f82525f368137604051631888debd60e01b81529384928392600f600660048601612820565b03815f73ea30c4b8b44078bbf8a6ef5b9f1ec1626c7848d95af1918215612635575f926126e557505090565b90809250813d83116126fc575b6126218183612213565b503d6126f2565b5061270c6129bb565b61264f565b905061271b6129bb565b90612648565b9081156127a8575b801561279a575b6040519161273f606084612213565b60028352604036602085013761275483612505565b5261275e82612512565b526126b960208092604051906127748383612213565b5f82525f368137604051631888debd60e01b81529384928392600d600660048601612820565b506127a36129bb565b612730565b90506127b26129bb565b90612729565b90602080835192838152019201905f5b8181106127d55750505090565b82518452602093840193909201916001016127c8565b916128129060ff6124b99593168452601a60208501526080604085015260808401906127b8565b9160608184039101526127b8565b9293919060ff1683526020811015612850576124b9936128129160208501526080604085015260808401906127b8565b634e487b7160e01b5f52602160045260245ffd5b6126b9602080926040516128788382612213565b5f81525f3681376040519161288e608084612213565b60038352606036858501376128a283612505565b525f6128ad83612512565b525f6128b883612522565b52604051631888debd60e01b815293849283925f600485016127eb565b6126b9602080926040516128e98382612213565b5f81525f368137604051916128ff608084612213565b600383526060368585013761291383612505565b52600561291f83612512565b525f61292a83612522565b52604051631888debd60e01b815293849283926005600485016127eb565b6126b96020809260405161295c8382612213565b5f81525f36813760405191612972608084612213565b600383526060368585013761298683612505565b52600661299283612512565b525f61299d83612522565b52604051631888debd60e01b815293849283926006600485016127eb565b60206126b9816040516129ce8282612213565b5f81525f368137604051906129e4608083612213565b60038252606036848401375f61298683612505565b73ea30c4b8b44078bbf8a6ef5b9f1ec1626c7848d93b1561014657604051631974142760e21b815260048101919091526001600160a01b0390911660248201525f8180604481015b03818373ea30c4b8b44078bbf8a6ef5b9f1ec1626c7848d95af1801561263557612a685750565b5f612a7291612213565b565b73ea30c4b8b44078bbf8a6ef5b9f1ec1626c7848d93b1561014657604051631974142760e21b815260048101919091523060248201525f818060448101612a41565b908115612b3d575b8015612b2f575b60405191612ad4606084612213565b600283526040366020850137612ae983612505565b52612af382612512565b526126b96020809260405190612b098383612213565b5f82525f368137604051631888debd60e01b815293849283926007600660048601612820565b50612b386129bb565b612ac5565b9050612b476129bb565b90612abe565b908115612bd4575b8015612bc6575b60405191612b6b606084612213565b600283526040366020850137612b8083612505565b52612b8a82612512565b526126b96020809260405190612ba08383612213565b5f82525f368137604051631888debd60e01b815293849283926015600660048601612820565b50612bcf6129bb565b612b5c565b9050612bde6129bb565b90612b55565b9060405191612bf4606084612213565b600283526040366020850137612c0983612505565b52612c1382612512565b526126b96020809260405190612c298383612213565b5f82525f368137604051631888debd60e01b81529384928392601260066004860161282056fea2646970667358221220f678eee55aeb1f31adc715f9d10a23f2ade3a97e88bff3e14dd348ef14428cf064736f6c634300081a0033","linkReferences":{}},"methodIdentifiers":{"afterAddLiquidity(address,(address,address,uint24,int24,address),(int24,int24,int256,bytes32),int256,int256,bytes)":"9f063efc","afterDonate(address,(address,address,uint24,int24,address),uint256,uint256,bytes)":"e1b4af69","afterInitialize(address,(address,address,uint24,int24,address),uint160,int24)":"6fe7e6eb","afterRemoveLiquidity(address,(address,address,uint24,int24,address),(int24,int24,int256,bytes32),int256,int256,bytes)":"6c2bbe7e","afterSwap(address,(address,address,uint24,int24,address),(bool,int256,uint160),int256,bytes)":"b47b2fb1","beforeAddLiquidity(address,(address,address,uint24,int24,address),(int24,int24,int256,bytes32),bytes)":"259982e5","beforeDonate(address,(address,address,uint24,int24,address),uint256,uint256,bytes)":"b6a8b0fa","beforeInitialize(address,(address,address,uint24,int24,address),uint160)":"dc98354e","beforeRemoveLiquidity(address,(address,address,uint24,int24,address),(int24,int24,int256,bytes32),bytes)":"21d0ee70","beforeSwap(address,(address,address,uint24,int24,address),(bool,int256,uint160),bytes)":"575e24b4","getHookPermissions()":"c4e833ce","performanceMetrics(address)":"b6854732","poolActiveAuctions(bytes32,uint256)":"e36496dc","poolAuctionCount(bytes32)":"337099b1","poolManager()":"dc4c90d3","portfolioCounter()":"92eb9c0c","portfolioPools(address,uint256)":"d445ab5a","portfolios(address)":"7baab3da","rebalanceOrders(address,bytes32)":"599ccaaa","setupPhantomPortfolio(address[],(uint256,uint8,uint8,bytes)[],(uint256,uint8,uint8,bytes)[],(uint256,uint8,uint8,bytes),(uint256,uint8,uint8,bytes))":"6badc4e6","triggerRebalance(address)":"c2db356b"},"storageLayout":{"storage":[{"astId":96259,"contract":"src/PhantomPortfolio.sol:PhantomPortfolio","label":"portfolios","offset":0,"slot":"0","type":"t_mapping(t_address,t_struct(EncryptedPortfolio)96214_storage)"},{"astId":96267,"contract":"src/PhantomPortfolio.sol:PhantomPortfolio","label":"rebalanceOrders","offset":0,"slot":"1","type":"t_mapping(t_address,t_mapping(t_bytes32,t_struct(EncryptedRebalanceOrder)96235_storage))"},{"astId":96274,"contract":"src/PhantomPortfolio.sol:PhantomPortfolio","label":"portfolioPools","offset":0,"slot":"2","type":"t_mapping(t_address,t_array(t_struct(PoolKey)45941_storage)dyn_storage)"},{"astId":96280,"contract":"src/PhantomPortfolio.sol:PhantomPortfolio","label":"poolAuctionCount","offset":0,"slot":"3","type":"t_mapping(t_userDefinedValueType(PoolId)45895,t_uint256)"},{"astId":96286,"contract":"src/PhantomPortfolio.sol:PhantomPortfolio","label":"poolActiveAuctions","offset":0,"slot":"4","type":"t_mapping(t_userDefinedValueType(PoolId)45895,t_array(t_uint256)dyn_storage)"},{"astId":96292,"contract":"src/PhantomPortfolio.sol:PhantomPortfolio","label":"performanceMetrics","offset":0,"slot":"5","type":"t_mapping(t_address,t_struct(EncryptedPerformanceMetrics)96253_storage)"},{"astId":96295,"contract":"src/PhantomPortfolio.sol:PhantomPortfolio","label":"portfolioCounter","offset":0,"slot":"6","type":"t_uint256"}],"types":{"t_address":{"encoding":"inplace","label":"address","numberOfBytes":"20"},"t_array(t_address)dyn_storage":{"encoding":"dynamic_array","label":"address[]","numberOfBytes":"32","base":"t_address"},"t_array(t_struct(PoolKey)45941_storage)dyn_storage":{"encoding":"dynamic_array","label":"struct PoolKey[]","numberOfBytes":"32","base":"t_struct(PoolKey)45941_storage"},"t_array(t_uint256)dyn_storage":{"encoding":"dynamic_array","label":"uint256[]","numberOfBytes":"32","base":"t_uint256"},"t_array(t_userDefinedValueType(euint128)28)dyn_storage":{"encoding":"dynamic_array","label":"euint128[]","numberOfBytes":"32","base":"t_userDefinedValueType(euint128)28"},"t_bool":{"encoding":"inplace","label":"bool","numberOfBytes":"1"},"t_bytes32":{"encoding":"inplace","label":"bytes32","numberOfBytes":"32"},"t_contract(IHooks)35834":{"encoding":"inplace","label":"contract IHooks","numberOfBytes":"20"},"t_int24":{"encoding":"inplace","label":"int24","numberOfBytes":"3"},"t_mapping(t_address,t_array(t_struct(PoolKey)45941_storage)dyn_storage)":{"encoding":"mapping","key":"t_address","label":"mapping(address => struct PoolKey[])","numberOfBytes":"32","value":"t_array(t_struct(PoolKey)45941_storage)dyn_storage"},"t_mapping(t_address,t_mapping(t_bytes32,t_struct(EncryptedRebalanceOrder)96235_storage))":{"encoding":"mapping","key":"t_address","label":"mapping(address => mapping(bytes32 => struct PhantomPortfolio.EncryptedRebalanceOrder))","numberOfBytes":"32","value":"t_mapping(t_bytes32,t_struct(EncryptedRebalanceOrder)96235_storage)"},"t_mapping(t_address,t_struct(EncryptedPerformanceMetrics)96253_storage)":{"encoding":"mapping","key":"t_address","label":"mapping(address => struct PhantomPortfolio.EncryptedPerformanceMetrics)","numberOfBytes":"32","value":"t_struct(EncryptedPerformanceMetrics)96253_storage"},"t_mapping(t_address,t_struct(EncryptedPortfolio)96214_storage)":{"encoding":"mapping","key":"t_address","label":"mapping(address => struct PhantomPortfolio.EncryptedPortfolio)","numberOfBytes":"32","value":"t_struct(EncryptedPortfolio)96214_storage"},"t_mapping(t_address,t_userDefinedValueType(euint128)28)":{"encoding":"mapping","key":"t_address","label":"mapping(address => euint128)","numberOfBytes":"32","value":"t_userDefinedValueType(euint128)28"},"t_mapping(t_bytes32,t_struct(EncryptedRebalanceOrder)96235_storage)":{"encoding":"mapping","key":"t_bytes32","label":"mapping(bytes32 => struct PhantomPortfolio.EncryptedRebalanceOrder)","numberOfBytes":"32","value":"t_struct(EncryptedRebalanceOrder)96235_storage"},"t_mapping(t_userDefinedValueType(PoolId)45895,t_array(t_uint256)dyn_storage)":{"encoding":"mapping","key":"t_userDefinedValueType(PoolId)45895","label":"mapping(PoolId => uint256[])","numberOfBytes":"32","value":"t_array(t_uint256)dyn_storage"},"t_mapping(t_userDefinedValueType(PoolId)45895,t_uint256)":{"encoding":"mapping","key":"t_userDefinedValueType(PoolId)45895","label":"mapping(PoolId => uint256)","numberOfBytes":"32","value":"t_uint256"},"t_struct(EncryptedPerformanceMetrics)96253_storage":{"encoding":"inplace","label":"struct PhantomPortfolio.EncryptedPerformanceMetrics","numberOfBytes":"160","members":[{"astId":96239,"contract":"src/PhantomPortfolio.sol:PhantomPortfolio","label":"totalReturn","offset":0,"slot":"0","type":"t_userDefinedValueType(euint128)28"},{"astId":96242,"contract":"src/PhantomPortfolio.sol:PhantomPortfolio","label":"benchmarkReturn","offset":0,"slot":"1","type":"t_userDefinedValueType(euint128)28"},{"astId":96245,"contract":"src/PhantomPortfolio.sol:PhantomPortfolio","label":"activeReturn","offset":0,"slot":"2","type":"t_userDefinedValueType(euint128)28"},{"astId":96249,"contract":"src/PhantomPortfolio.sol:PhantomPortfolio","label":"assetReturns","offset":0,"slot":"3","type":"t_array(t_userDefinedValueType(euint128)28)dyn_storage"},{"astId":96252,"contract":"src/PhantomPortfolio.sol:PhantomPortfolio","label":"measurementPeriod","offset":0,"slot":"4","type":"t_userDefinedValueType(euint64)26"}]},"t_struct(EncryptedPortfolio)96214_storage":{"encoding":"inplace","label":"struct PhantomPortfolio.EncryptedPortfolio","numberOfBytes":"384","members":[{"astId":96179,"contract":"src/PhantomPortfolio.sol:PhantomPortfolio","label":"targetAllocations","offset":0,"slot":"0","type":"t_mapping(t_address,t_userDefinedValueType(euint128)28)"},{"astId":96184,"contract":"src/PhantomPortfolio.sol:PhantomPortfolio","label":"currentHoldings","offset":0,"slot":"1","type":"t_mapping(t_address,t_userDefinedValueType(euint128)28)"},{"astId":96189,"contract":"src/PhantomPortfolio.sol:PhantomPortfolio","label":"tradingLimits","offset":0,"slot":"2","type":"t_mapping(t_address,t_userDefinedValueType(euint128)28)"},{"astId":96192,"contract":"src/PhantomPortfolio.sol:PhantomPortfolio","label":"rebalanceFrequency","offset":0,"slot":"3","type":"t_userDefinedValueType(euint64)26"},{"astId":96195,"contract":"src/PhantomPortfolio.sol:PhantomPortfolio","label":"totalValue","offset":0,"slot":"4","type":"t_userDefinedValueType(euint128)28"},{"astId":96198,"contract":"src/PhantomPortfolio.sol:PhantomPortfolio","label":"toleranceBand","offset":0,"slot":"5","type":"t_userDefinedValueType(euint32)24"},{"astId":96201,"contract":"src/PhantomPortfolio.sol:PhantomPortfolio","label":"autoRebalanceEnabled","offset":0,"slot":"6","type":"t_userDefinedValueType(ebool)18"},{"astId":96204,"contract":"src/PhantomPortfolio.sol:PhantomPortfolio","label":"lastRebalance","offset":0,"slot":"7","type":"t_userDefinedValueType(euint64)26"},{"astId":96207,"contract":"src/PhantomPortfolio.sol:PhantomPortfolio","label":"tokens","offset":0,"slot":"8","type":"t_array(t_address)dyn_storage"},{"astId":96209,"contract":"src/PhantomPortfolio.sol:PhantomPortfolio","label":"isActive","offset":0,"slot":"9","type":"t_bool"},{"astId":96211,"contract":"src/PhantomPortfolio.sol:PhantomPortfolio","label":"lastRebalanceTime","offset":0,"slot":"10","type":"t_uint256"},{"astId":96213,"contract":"src/PhantomPortfolio.sol:PhantomPortfolio","label":"rebalanceFrequencySeconds","offset":0,"slot":"11","type":"t_uint256"}]},"t_struct(EncryptedRebalanceOrder)96235_storage":{"encoding":"inplace","label":"struct PhantomPortfolio.EncryptedRebalanceOrder","numberOfBytes":"224","members":[{"astId":96217,"contract":"src/PhantomPortfolio.sol:PhantomPortfolio","label":"tokenIn","offset":0,"slot":"0","type":"t_address"},{"astId":96219,"contract":"src/PhantomPortfolio.sol:PhantomPortfolio","label":"tokenOut","offset":0,"slot":"1","type":"t_address"},{"astId":96222,"contract":"src/PhantomPortfolio.sol:PhantomPortfolio","label":"amountIn","offset":0,"slot":"2","type":"t_userDefinedValueType(euint128)28"},{"astId":96225,"contract":"src/PhantomPortfolio.sol:PhantomPortfolio","label":"minAmountOut","offset":0,"slot":"3","type":"t_userDefinedValueType(euint128)28"},{"astId":96228,"contract":"src/PhantomPortfolio.sol:PhantomPortfolio","label":"executionWindow","offset":0,"slot":"4","type":"t_userDefinedValueType(euint64)26"},{"astId":96231,"contract":"src/PhantomPortfolio.sol:PhantomPortfolio","label":"priority","offset":0,"slot":"5","type":"t_userDefinedValueType(euint32)24"},{"astId":96234,"contract":"src/PhantomPortfolio.sol:PhantomPortfolio","label":"isActive","offset":0,"slot":"6","type":"t_userDefinedValueType(ebool)18"}]},"t_struct(PoolKey)45941_storage":{"encoding":"inplace","label":"struct PoolKey","numberOfBytes":"96","members":[{"astId":45926,"contract":"src/PhantomPortfolio.sol:PhantomPortfolio","label":"currency0","offset":0,"slot":"0","type":"t_userDefinedValueType(Currency)45595"},{"astId":45930,"contract":"src/PhantomPortfolio.sol:PhantomPortfolio","label":"currency1","offset":0,"slot":"1","type":"t_userDefinedValueType(Currency)45595"},{"astId":45933,"contract":"src/PhantomPortfolio.sol:PhantomPortfolio","label":"fee","offset":20,"slot":"1","type":"t_uint24"},{"astId":45936,"contract":"src/PhantomPortfolio.sol:PhantomPortfolio","label":"tickSpacing","offset":23,"slot":"1","type":"t_int24"},{"astId":45940,"contract":"src/PhantomPortfolio.sol:PhantomPortfolio","label":"hooks","offset":0,"slot":"2","type":"t_contract(IHooks)35834"}]},"t_uint24":{"encoding":"inplace","label":"uint24","numberOfBytes":"3"},"t_uint256":{"encoding":"inplace","label":"uint256","numberOfBytes":"32"},"t_userDefinedValueType(Currency)45595":{"encoding":"inplace","label":"Currency","numberOfBytes":"20"},"t_userDefinedValueType(PoolId)45895":{"encoding":"inplace","label":"PoolId","numberOfBytes":"32"},"t_userDefinedValueType(ebool)18":{"encoding":"inplace","label":"ebool","numberOfBytes":"32"},"t_userDefinedValueType(euint128)28":{"encoding":"inplace","label":"euint128","numberOfBytes":"32"},"t_userDefinedValueType(euint32)24":{"encoding":"inplace","label":"euint32","numberOfBytes":"32"},"t_userDefinedValueType(euint64)26":{"encoding":"inplace","label":"euint64","numberOfBytes":"32"}}},"id":136}