{"abi":[{"type":"function","name":"ZERO_DELTA","inputs":[],"outputs":[{"name":"","type":"int256","internalType":"BalanceDelta"}],"stateMutability":"view"}],"bytecode":{"object":"0x60808060405234601757606f9081601c823930815050f35b5f80fdfe60808060405260043610156011575f80fd5b5f3560e01c6391cb4669146023575f80fd5b5f366003190112603557805f60209252f35b5f80fdfea2646970667358221220b43726e97da5e5c5c906d6746c92f1747e7dd25d1efd7d37bc0a64e57005c11e64736f6c634300081a0033","linkReferences":{}},"methodIdentifiers":{"ZERO_DELTA()":"91cb4669"},"storageLayout":{"storage":[],"types":{}},"id":69}