{"abi":[{"type":"function","name":"acl","inputs":[],"outputs":[{"name":"","type":"address","internalType":"contract ACL"}],"stateMutability":"view"},{"type":"function","name":"decodeLowLevelReversion","inputs":[{"name":"data","type":"bytes","internalType":"bytes"}],"outputs":[{"name":"error","type":"string","internalType":"string"}],"stateMutability":"pure"},{"type":"function","name":"exists","inputs":[],"outputs":[{"name":"","type":"bool","internalType":"bool"}],"stateMutability":"pure"},{"type":"function","name":"initialize","inputs":[{"name":"_taskManager","type":"address","internalType":"address"},{"name":"_acl","type":"address","internalType":"address"}],"outputs":[],"stateMutability":"nonpayable"},{"type":"function","name":"mockQueryDecrypt","inputs":[{"name":"ctHash","type":"uint256","internalType":"uint256"},{"name":"","type":"uint256","internalType":"uint256"},{"name":"issuer","type":"address","internalType":"address"}],"outputs":[{"name":"allowed","type":"bool","internalType":"bool"},{"name":"error","type":"string","internalType":"string"},{"name":"","type":"uint256","internalType":"uint256"}],"stateMutability":"view"},{"type":"function","name":"queryDecrypt","inputs":[{"name":"ctHash","type":"uint256","internalType":"uint256"},{"name":"","type":"uint256","internalType":"uint256"},{"name":"permission","type":"tuple","internalType":"struct Permission","components":[{"name":"issuer","type":"address","internalType":"address"},{"name":"expiration","type":"uint64","internalType":"uint64"},{"name":"recipient","type":"address","internalType":"address"},{"name":"validatorId","type":"uint256","internalType":"uint256"},{"name":"validatorContract","type":"address","internalType":"address"},{"name":"sealingKey","type":"bytes32","internalType":"bytes32"},{"name":"issuerSignature","type":"bytes","internalType":"bytes"},{"name":"recipientSignature","type":"bytes","internalType":"bytes"}]}],"outputs":[{"name":"allowed","type":"bool","internalType":"bool"},{"name":"error","type":"string","internalType":"string"},{"name":"","type":"uint256","internalType":"uint256"}],"stateMutability":"view"},{"type":"function","name":"querySealOutput","inputs":[{"name":"ctHash","type":"uint256","internalType":"uint256"},{"name":"","type":"uint256","internalType":"uint256"},{"name":"permission","type":"tuple","internalType":"struct Permission","components":[{"name":"issuer","type":"address","internalType":"address"},{"name":"expiration","type":"uint64","internalType":"uint64"},{"name":"recipient","type":"address","internalType":"address"},{"name":"validatorId","type":"uint256","internalType":"uint256"},{"name":"validatorContract","type":"address","internalType":"address"},{"name":"sealingKey","type":"bytes32","internalType":"bytes32"},{"name":"issuerSignature","type":"bytes","internalType":"bytes"},{"name":"recipientSignature","type":"bytes","internalType":"bytes"}]}],"outputs":[{"name":"allowed","type":"bool","internalType":"bool"},{"name":"error","type":"string","internalType":"string"},{"name":"","type":"bytes32","internalType":"bytes32"}],"stateMutability":"view"},{"type":"function","name":"seal","inputs":[{"name":"input","type":"uint256","internalType":"uint256"},{"name":"key","type":"bytes32","internalType":"bytes32"}],"outputs":[{"name":"","type":"bytes32","internalType":"bytes32"}],"stateMutability":"pure"},{"type":"function","name":"taskManager","inputs":[],"outputs":[{"name":"","type":"address","internalType":"contract TaskManager"}],"stateMutability":"view"},{"type":"function","name":"unseal","inputs":[{"name":"hashed","type":"bytes32","internalType":"bytes32"},{"name":"key","type":"bytes32","internalType":"bytes32"}],"outputs":[{"name":"","type":"uint256","internalType":"uint256"}],"stateMutability":"pure"},{"type":"error","name":"NotAllowed","inputs":[]},{"type":"error","name":"SealingKeyInvalid","inputs":[]},{"type":"error","name":"SealingKeyMissing","inputs":[]}],"bytecode":{"object":"0x60808060405234601557610b0d908161001a8239f35b5f80fdfe60806040526004361015610011575f80fd5b5f3560e01c806309ba3156146102365780631a1992a91461018c578063267c4ae41461021b578063485cc955146101ad5780638a5c8c7f1461018c578063a02eb53414610159578063a0639f541461012e578063a50a640e14610107578063de287359146100df5763ff6957d314610087575f80fd5b346100db5760203660031901126100db5760043567ffffffffffffffff81116100db576100c36100be6100d79236906004016102de565b610925565b604051918291602083526020830190610429565b0390f35b5f80fd5b346100db575f3660031901126100db576001546040516001600160a01b039091168152602090f35b346100db575f3660031901126100db575f546040516001600160a01b039091168152602090f35b346100db576100d761014a61014236610324565b9190506108db565b6040939193519384938461044d565b346100db5760603660031901126100db576044356001600160a01b03811681036100db5761014a6100d7916004356107df565b346100db5760403660031901126100db576020604051602435600435188152f35b346100db5760403660031901126100db576004356001600160a01b038116908190036100db576024356001600160a01b03811691908290036100db576bffffffffffffffffffffffff60a01b5f5416175f556bffffffffffffffffffffffff60a01b60015416176001555f80f35b346100db575f3660031901126100db57602060405160018152f35b346100db5761024f61024736610324565b91905061064a565b6040519215158352606060208401819052839261026e91840190610429565b9060408301520390f35b90601f8019910116810190811067ffffffffffffffff82111761029a57604052565b634e487b7160e01b5f52604160045260245ffd5b35906001600160a01b03821682036100db57565b67ffffffffffffffff811161029a57601f01601f191660200190565b81601f820112156100db578035906102f5826102c2565b926103036040519485610278565b828452602083830101116100db57815f926020809301838601378301015290565b60606003198201126100db57600435916024359160443567ffffffffffffffff81116100db5761010081830360031901126100db5760405191610100830183811067ffffffffffffffff82111761029a57604052610384826004016102ae565b8352602482013567ffffffffffffffff811681036100db5760208401526103ad604483016102ae565b6040840152606482013560608401526103c8608483016102ae565b608084015260a482013560a084015260c482013567ffffffffffffffff81116100db578160046103fa928501016102de565b60c084015260e48201359167ffffffffffffffff83116100db5761042192016004016102de565b60e082015290565b805180835260209291819084018484015e5f828201840152601f01601f1916010190565b93929161046c9060409215158652606060208701526060860190610429565b930152565b908160209103126100db575180151581036100db5790565b92919061046c6020916040865260018060a01b03815116604087015267ffffffffffffffff8382015116606087015260018060a01b036040820151166080870152606081015160a087015260018060a01b0360808201511660c087015260a081015160e087015260e061050c60c0830151610100808a0152610140890190610429565b910151868203603f1901610120880152610429565b5f9060033d1161052d57565b905060045f803e5f5160e01c90565b5f60443d106105a2576040513d600319016004823e8051913d602484011167ffffffffffffffff8411176105ad578282019283519167ffffffffffffffff83116105a5573d840160031901858401602001116105a557506105a292910160200190610278565b90565b949350505050565b92915050565b5f809160233d116105c057565b915050602060045f3e5f51600191565b604051906105df604083610278565b600582526450616e696360d81b6020830152565b3d1561061d573d90610604826102c2565b916106126040519384610278565b82523d5f602084013e565b606090565b60405190610631604083610278565b600a825269139bdd105b1b1bddd95960b21b6020830152565b9060a08101908151156107d0576020836106869260018060a01b03600154169060405180958194829363573cf82560e11b845260048401610489565b03915afa5f918161079f575b506106fa575050506106a2610521565b806308c379a0146106e657634e487b71146106c9575b6106c36100be6105f3565b5f918290565b6106d16105b3565b50156106b8575f906106e16105d0565b905f90565b506106ef61053c565b806106c357506106b8565b15610793575f54604051631c76642b60e01b81526004810193909352602090839060249082906001600160a01b03165afa918215610788575f92610754575b50511860019160405161074d602082610278565b5f81529190565b9091506020813d602011610780575b8161077060209383610278565b810103126100db5751905f610739565b3d9150610763565b6040513d5f823e3d90fd5b50505f906106e1610622565b6107c291925060203d6020116107c9575b6107ba8183610278565b810190610471565b905f610692565b503d6107b0565b6316f124db60e31b5f5260045ffd5b600154604051632fd514cd60e11b8152600481018390526001600160a01b039384166024820152919260209183916044918391165afa5f91816108ba575b5061082c5750506106a2610521565b156108af575f54604051631c76642b60e01b81526004810192909252602090829060249082906001600160a01b03165afa908115610788575f9161087d575b5060019160405161074d602082610278565b90506020813d6020116108a7575b8161089860209383610278565b810103126100db57515f61086b565b3d915061088b565b505f906106e1610622565b6108d491925060203d6020116107c9576107ba8183610278565b905f61081d565b9060208261090b9260018060a01b03600154169060405180958194829363573cf82560e11b845260048401610489565b03915afa5f91816108ba575061082c5750506106a2610521565b602081519101519063ffffffff60e01b82169160048210610ab7575b50506001600160e01b03191663ed0764a160e01b8114610a7b57634c40eccb60e01b8114610a3557638e143bf760e01b81146109ec576365e9d4b360e11b146109b157604051610992604082610278565b600f81526e2637bb902632bb32b61022b93937b960891b602082015290565b6040516109bf604082610278565b601a81527f5065726d697373696f6e496e76616c69645f44697361626c6564000000000000602082015290565b506040516109fb606082610278565b602481527f5065726d697373696f6e496e76616c69645f526563697069656e745369676e616020820152637475726560e01b604082015290565b50604051610a44606082610278565b602181527f5065726d697373696f6e496e76616c69645f4973737565725369676e617475726020820152606560f81b604082015290565b50604051610a8a604082610278565b601981527f5065726d697373696f6e496e76616c69645f4578706972656400000000000000602082015290565b6001600160e01b031960049290920360031b82901b161690505f8061094156fea2646970667358221220e72c17d9d573d784d0958414fd9c92f6bd1b74bc42761909f55722ea2f36a3f464736f6c634300081a0033","linkReferences":{}},"methodIdentifiers":{"acl()":"de287359","decodeLowLevelReversion(bytes)":"ff6957d3","exists()":"267c4ae4","initialize(address,address)":"485cc955","mockQueryDecrypt(uint256,uint256,address)":"a02eb534","queryDecrypt(uint256,uint256,(address,uint64,address,uint256,address,bytes32,bytes,bytes))":"a0639f54","querySealOutput(uint256,uint256,(address,uint64,address,uint256,address,bytes32,bytes,bytes))":"09ba3156","seal(uint256,bytes32)":"1a1992a9","taskManager()":"a50a640e","unseal(bytes32,bytes32)":"8a5c8c7f"},"storageLayout":{"storage":[{"astId":21425,"contract":"node_modules/@fhenixprotocol/cofhe-mock-contracts/MockQueryDecrypter.sol:MockQueryDecrypter","label":"taskManager","offset":0,"slot":"0","type":"t_contract(TaskManager)23852"},{"astId":21428,"contract":"node_modules/@fhenixprotocol/cofhe-mock-contracts/MockQueryDecrypter.sol:MockQueryDecrypter","label":"acl","offset":0,"slot":"1","type":"t_contract(ACL)18082"}],"types":{"t_contract(ACL)18082":{"encoding":"inplace","label":"contract ACL","numberOfBytes":"20"},"t_contract(TaskManager)23852":{"encoding":"inplace","label":"contract TaskManager","numberOfBytes":"20"}}},"id":5}